:100000000C9432070C9479070C9479070C947907B7
:100010000C9479070C9479070C9479070C94790760
:100020000C9479070C9479070C94E3270C94B62868
:100030000C94EE1E0C9479070C9479070C947907B4
:100040000C9479070C9479070C9479070C94790730
:100050000C9479070C944F1F0C9479070C94790732
:100060000C9479070C9479070C9479070C94790710
:100070000C9479070C9479070C9479070C94790700
:100080000C9479070C9479070C9479070C947907F0
:100090000C9479070C9479070C9479070C947907E0
:1000A0000C9479070C9479070C94790729001E00A9
:1000B0001F0020002100220023002400250026002C
:1000C00027002D002E0000002A004C002B001400F9
:1000D0001A0008001500170000001C0018000C0092
:1000E000120013002F00300031004A0039000400D4
:1000F0001600070009000A0000000B000D000E00AA
:100100000F0033003400000028000070E1001D00E3
:100110001B00060019000500000068001100100017
:10012000360037003800E50052000000E000000013
:10013000E30000002C00690000002C000000E60035
:1001400000000000E400500051004F0001000100D9
:100150000100010001000100010001000100010097
:100160000100010001000000010001000100010088
:100170000100010001000100000001000100010078
:100180000100010001000100010001000100010067
:100190000100010001000100000001000100010058
:1001A0000100010001000000010001000100010048
:1001B0000100010001000100000001000100010038
:1001C0000100010001000100010000000100000029
:1001D000010000000100010000000100000001001A
:1001E0000000000001000100010001000100010009
:1001F00001000100010001000100010001000100F7
:1002000001000100010000000100010001000100E7
:1002100001000100010001000000010001000100D7
:1002200001000100010001000100010001000100C6
:1002300001000100010001000000010001000100B7
:1002400001000100010000000100010001000100A7
:100250000100010001000100000001000100010097
:100260000100010001000100010000000100000088
:100270000100000001000100000001000000010079
:100280000000000001000100010001000100010068
:100290000100010001000100010001000100010056
:1002A0000100010001000000010001000100010047
:1002B0000100010001000100000001000100010037
:1002C0000100010001000100010001000100010026
:1002D0000100010001000100000001000100010017
:1002E0000100010001000000010001000100010007
:1002F00001000100010001000000010001000100F7
:1003000001000100010001000100000001000000E7
:1003100001000000010001000000010000000100D8
:1003200000000000010001000100010001000100C7
:1003300001000100010001000100010001000100B5
:1003400001000100010000000100010001000100A6
:100350000100010001000100000001000100010096
:100360000100010001000100010001000100010085
:100370000100010001000100000001000100010076
:100380000100010001000000010001000100010066
:100390000100010001000100000001000100010056
:1003A0000100010001000100010000000100000047
:1003B0000100000001000100000001000000010038
:1003C0000000000001000100010001000100010027
:1003D0000100010001000100010001000100010015
:1003E0000100010001000000010001000100010006
:1003F00001000100010001000000010001000100F6
:1004000001000100010001000100010001000100E4
:1004100001000100010001000000010001000100D5
:1004200001000100010000000100010001000100C5
:1004300001000100010001000000010001000100B5
:1004400001000100010001000100000001000000A6
:100450000100000001000100000001000000010097
:100460000000000001000100010001000100010086
:100470000100010001000100010001000100010074
:100480000100010001000000010001000100010065
:100490000100010001000100000001000100010055
:1004A0000100010001000100010001000100010044
:1004B0000100010001000100000001000100010035
:1004C0000100010001000000010001000100010025
:1004D0000100010001000100000001000100010015
:1004E0000100010001000100010000000100000006
:1004F00001000000010001000000010000000100F7
:1005000000000000010001000100010001000100E5
:1005100001000100010001000100010001000100D3
:1005200001000100010000000100010001000100C4
:1005300001000100010001000000010001000100B4
:1005400001000100010001000100010001000100A3
:100550000100010001000100000001000100010094
:100560000100010001000000010001000100010084
:100570000100010001000100000001000100010074
:100580000100010001000100010000000100000065
:100590000100000001000100000001000000010056
:1005A0000000000001000100010001000100010045
:1005B0000100010001000100010001000100010033
:1005C0000100010001000000010001000100010024
:1005D0000100010001000100000001000100010014
:1005E0000100010001000100010001000100010003
:1005F00001000100010001000000010001000100F4
:1006000001000100010000000100010001000100E3
:1006100001000100010001000000010001000100D3
:1006200001000100010001000100000001000000C4
:1006300001000000010001000000010000000100B5
:1006400000000000010001000100010001000100A4
:100650000100010001000100010001000100010092
:100660000100010001000000010001000100010083
:100670000100010001000100000001000100010073
:100680000100010001000100010001000100010062
:100690000100010001000100000001000100010053
:1006A0000100010001000000010001000100010043
:1006B0000100010001000100000001000100010033
:1006C0000100010001000100010000000100000024
:1006D0000100000001000100000001000000010015
:1006E0000000000001000100010001000100010004
:1006F00001000100010001000100010001000100F2
:1007000001000100010000000100010001000100E2
:1007100001000100010001000000010001000100D2
:1007200001000100010001000100010001000100C1
:1007300001000100010001000000010001000100B2
:1007400001000100010000000100010001000100A2
:100750000100010001000100000001000100010092
:100760000100010001000100010000000100000083
:100770000100000001000100000001000000010074
:100780000000000001000100010001000100010063
:100790000100010001000100010001000100010051
:1007A0000100010001000000010001000100010042
:1007B0000100010001000100000001000100010032
:1007C0000100010001000100010001000100010021
:1007D0000100010001000100000001000100010012
:1007E0000100010001000000010001000100010002
:1007F00001000100010001000000010001000100F2
:1008000001000100010001000100000001000000E2
:1008100001000000010001000000010000000100D3
:1008200000000000010001000100010001000100C2
:1008300001000100010001000100010001000100B0
:1008400001000100010000000100010001000100A1
:100850000100010001000100000001000100010091
:100860000100010001000100010001000100010080
:100870000100010001000100000001000100010071
:100880000100010001000000010001000100010061
:100890000100010001000100000001000100010051
:1008A0000100010001000100010000000100000042
:1008B0000100000001000100000001000000010033
:1008C0000000000001000100010001000100010022
:1008D0000100010001000100010001000100010010
:1008E0000100010001000000010001000100010001
:1008F00001000100010001000000010001000100F1
:1009000001000100010001000100010001000100DF
:1009100001000100010001000000010001000100D0
:1009200001000100010000000100010001000100C0
:1009300001000100010001000000010001000100B0
:1009400001000100010001000100000001000000A1
:100950000100000001000100000001000000010092
:100960000000000001000100010001000100010081
:10097000010001000100010001000100010001006F
:100980000100010001000000010001000100010060
:100990000100010001000100000001000100010050
:1009A000010001000100010001000100010001003F
:1009B0000100010001000100000001000100010030
:1009C0000100010001000000010001000100010020
:1009D0000100010001000100000001000100010010
:1009E0000100010001000100010000000100000001
:1009F00001000000010001000000010000000100F2
:100A000000000000010001000100010001000100E0
:100A100001000100010001000100010001000100CE
:100A200001000100010000000100010001000100BF
:100A300001000100010001000000010001000100AF
:100A4000010001000100010001000100010001009E
:100A5000010001000100010000000100010001008F
:100A6000010001000100000001000100010001007F
:100A7000010001000100010000000100010001006F
:100A80000100010001000100010000000100000060
:100A90000100000001000100000001000000010051
:100AA0000000000001000100010001006432146434
:100AB0003214783C1E1E140A0500000000010101DA
:100AC0000202030405050607090A0B0C0E0F11129A
:100AD000141517191B1D1F212325282A2C2F3134EB
:100AE00036393B3E414346494C4F5255585A5D6159
:100AF00064676A6D707376797C7F8386898C8F9248
:100B000095989B9EA2A5A7AAADB0B3B6B9BCBEC12D
:100B1000C4C6C9CBCED0D3D5D7DADCDEE0E2E4E67A
:100B2000E8EAEBEDEEF0F1F3F4F5F6F8F9FAFAFB9A
:100B3000FCFDFDFEFEFEFFFFFFFFFFFFFFFEFEFED2
:100B4000FDFDFCFBFAFAF9F8F6F5F4F3F1F0EEED41
:100B5000EBEAE8E6E4E2E0DEDCDAD7D5D3D0CECBD0
:100B6000C9C6C4C1BEBCB9B6B3B0ADAAA7A5A29E42
:100B70009B9895928F8C898683807C797673706D33
:100B80006A6764615D5A5855524F4C494643413E2D
:100B90003B393634312F2C2A282523211F1D1B19C0
:100BA00017151412110F0E0C0B0A09070605050480
:100BB0000302020101010000000000000000010129
:100BC000010101010101010202020202020202020C
:100BD00003030303030303030404040404040505DB
:100BE000050505060606060607070707080808089C
:100BF0000909090A0A0A0A0B0B0B0C0C0C0D0D0D46
:100C00000E0E0F0F0F1010111111121213131414D6
:100C1000151516161717181819191A1A1B1C1C1D4A
:100C20001D1E1F1F202021222223242525262727A1
:100C300028292A2B2B2C2D2E2F2F303132333435CF
:100C400036363738393A3B3C3D3E3F4041424344DB
:100C5000464748494A4B4C4D4F50515253555657B1
:100C6000585A5B5C5E5F606263646667696A6C6D5C
:100C70006E707173747678797B7C7E8081838486D4
:100C8000888A8B8D8F91929496989A9B9D9FA1A311
:100C9000A5A7A9ABADAFB1B3B5B7B9BBBDBFC1C413
:100CA000C6C8CACCCFD1D3D6D8DADCDFE1E4E6E8D7
:100CB000EBEDF0F2F5F7FAFCFF12036B006500793B
:100CC0000062006F00610072006400000016037192
:100CD000006D006B006200750069006C00640065C7
:100CE00000720000000403090409026D0004010001
:100CF000A0FA09040000010301010009211101000B
:100D0000012240000705810308000A0904010001CF
:100D100003010200092111010001224D0007058293
:100D20000308000A09040200010300000009211160
:100D30000100012236000705830308000A090403A5
:100D40000001030000000921110100012239000700
:100D50000584032000011201100100000008EDFECF
:100D6000606001000102000105010906A1010507FB
:100D700019E029E71500250195087501810205088C
:100D800019012905950575019102950175039101D8
:100D90000507190029F71500250195F8750181024D
:100DA000C005010980A10185021601002603001A71
:100DB00081002A8300751095018100C0050C09018E
:100DC000A1018503160100269C021A01002A9C023B
:100DD000751095018100C005010902A1010901A159
:100DE00000050919012905150025019505750181E1
:100DF000029501750381010501093009311581252D
:100E00007F95027508810609381581257F95017542
:100E1000088106050C0A38021581257F95017508A1
:100E20008106C0C005010906A101050719E029E7EF
:100E3000150025019508750181029501750881014C
:100E4000050819012905950575019102950175039C
:100E500091010507190029FF150026FF0095067569
:100E6000088100C011241FBECFEFDAE0DEBFCDBF86
:100E700004B603FE27C080913B0390913C03A091F0
:100E80003D03B0913E038730904BA740B04BD1F467
:100E900010923B0310923C0310923D0310923E03CC
:100EA00014BE84B7877F84BF0FB6F894A89580914D
:100EB0006000886180936000109260000FBEE0E0E7
:100EC000F8E3099511E0A0E0B1E0ECE7F8E502C035
:100ED00005900D92AE33B107D9F723E0AEE3B1E050
:100EE00001C01D92AB33B207E1F70E9437250C9485
:100EF000072C0C94000090E080E008950895089578
:100F000081E00895089581E008950C9480070E947F
:100F10003B172FEF84E39CE0215080409040E1F7A5
:100F200000C000000C94721FEF92FF920F931F936A
:100F3000CF93DF937C01DC010D911C91119780917F
:100F40008F01811143C012968C918823D1F1C80181
:100F50000E94BD1CC82F682FC8010E94691CB801DF
:100F60008C2F0E94FF08EC01B7010E94850788239F
:100F700009F468C0B701CE010E94090B882309F467
:100F800061C0CE33B0E7DB0770F4C433E0E7DE07BF
:100F900010F5C130F0E7DF0709F45CC050F5C1156A
:100FA000D04709F44AC081E0809340018093410119
:100FB000C701DF91CF911F910F91FF90EF900C949B
:100FC0008307C8010E94951CC82FC9CFC8010E9481
:100FD000BD1CB801C6CFFE01E553F047D7011296FC
:100FE0008C91E930F10508F040C0E75FF34D0C94B7
:100FF000B92BCE01825090474397A8F6F701828122
:101000008823B1F20E947F1E811102C00E945E1EE1
:101010000E949C1E90E090932D0380932C03FE0170
:10102000E350F04780912C038160E231F10508F034
:1010300047C0EE5EF34D0C94B92BF701828181110C
:101040000E94870780E0DF91CF911F910F91FF9061
:10105000EF900895D70112968C91882399F380918F
:101060002702816080932702EDCF882359F30E94E5
:10107000910FE8CF882331F30E94870FE3CF8823B5
:1010800009F30E94640EDECF8823E1F20E947C0EF9
:10109000D9CF8823B9F20E949B0ED4CF882391F236
:1010A0000E94B30ECFCF882369F20E94CB0ECACF25
:1010B000882341F20E94E30EC5CF80912C03826009
:1010C00080932C0380912C030E94A01E0E943B174A
:1010D000B9CF80912C038460F3CF80912C0388607A
:1010E000EFCF80912C038061EBCF80912C03806245
:1010F000E7CF80912C038064E3CF80912C0380683C
:10110000DFCF80912C038C60DBCF80912C038E7F0E
:10111000D7CF80912C038D7FD3CF80912C038B7FF1
:10112000CFCF80912C03877FCBCF80912C038F7EF4
:10113000C7CF80912C038F7DC3CF80912C038F7BF1
:10114000BFCF80912C038F77BBCF80912C03837FFF
:10115000B7CF90912C03892F97FB87F98058B0CF98
:10116000882361F0109240010E941E1F90933F015E
:1011700080933E0182E00E94A01464CF80914001E0
:1011800081110FC080913E0190913F010E942A1F62
:10119000883C910530F486E20E94751386E20E9435
:1011A000511482E00E94A7144DCF882351F0109271
:1011B00041010E941E1F90933F0180933E0180E2F7
:1011C000DACF8091410181110FC080913E01909151
:1011D0003F010E942A1F883C910530F487E20E945B
:1011E000751387E20E94511480E2DCCF0C94580BF7
:1011F0000C945A0B0C9482070C94FA080895E72F6C
:10120000F0E095E0899FE00DF11D112484E0EE0FE0
:10121000FF1F8A95E1F7E60FF11DEE0FFF1FE45562
:10122000FF4F859194910895FC01EE0FFF1FE45547
:10123000F54F8591949108950E94FF080E948D0AB0
:101240009C01811540E4940708F097C0211580E3C4
:10125000380708F0FAC0203E310508F074C0203C81
:10126000310508F0E5C0283A310588F4253A310502
:1012700008F0E2C02130310509F477C0C9010497B4
:10128000813A910508F471C030E020E06EC0C901D8
:10129000885A91094597C0F7283A310509F4FEC0EC
:1012A000293A310509F4FDC02A3A310509F4FCC098
:1012B0002B3A310509F4FBC02C3A310509F4FAC088
:1012C0002B3B310509F4F9C02C3B310509F4F8C07A
:1012D0002D3A310509F4F7C0203B310509F4F6C079
:1012E0002E3A310509F4F5C02F3A310509F4F4C05E
:1012F000213B310509F4F3C0223B310509F4F2C06A
:10130000233B310509F4F1C0243B310509F4F0C059
:10131000253B310509F4EFC0263B310509F4EEC049
:10132000273B310509F4EDC0283B310509F4ECC039
:10133000293B310509F4EBC02A3B310509F4EAC029
:1013400020E034E412C0211590E2390780F42F3FE9
:10135000310509F050F4283E310538F0C901805FAD
:1013600091093065409708F08FCFC9010895C901F0
:101370009F700E9414099C01F8CF8115944508F0D4
:1013800041C0211583E5380708F06AC0211592E5B0
:10139000390738F5211541E5340708F05CC02115FF
:1013A00080E5380708F454C0C90134E09695879564
:1013B0003A95E1F78370422F46954695437090E247
:1013C000499FA0011124582B822F837021E030E027
:1013D00002C0220F331F8A95E2F7242B352B3C687D
:1013E000C4CFC9018370992741E050E002C0440F87
:1013F000551F8A95E2F72695269580E2289F900151
:101400001124EBCF211596E5390748F4922F882750
:1014100021153545C8F59C01246F306AA6CFC90156
:1014200090563F708115904108F02ECF30629DCFCD
:10143000C901805C91099DCF253A310549F1263AD1
:10144000310549F522E830E490CF3327306C8DCF59
:101450003F70306A8ACF322F2227216F306A85CFC2
:10146000C9018370992741E050E002C0440F551F25
:101470008A95E2F72695269580E2289F900111240F
:10148000242B352B3A6871CF88279F719C01CECFD2
:1014900021E830E46ACF23E830E467CF22EE34E479
:1014A00064CF29EE34E461CF2AEE34E45ECF25EB3D
:1014B00034E45BCF26EB34E458CF23EB34E455CF50
:1014C00024EB34E452CF27EB34E44FCF2CEC34E45C
:1014D0004CCF2DEC34E449CF23E835E446CF2AE85D
:1014E00035E443CF22E935E440CF24E935E43DCF6C
:1014F00021E236E43ACF23E236E437CF24E236E481
:1015000034CF25E236E431CF26E236E42ECF27E28F
:1015100036E42BCF2AE236E428CF803E910581F1D4
:10152000C8F48133910509F462C048F48932910509
:1015300009F456C08A32910509F460C008958933D0
:101540009105B9F082389105A1F08533910509F430
:1015500040C00895863E910561F138F4823E9105C0
:10156000B1F0833E9105E1F00895873E910551F178
:10157000089520912C032370D9F080EE90E0089517
:1015800020912C0320FF14C089E390E0089520915E
:101590002C0322FF0DC024FD09C083EE90E00895C6
:1015A00020912C0322FD31C024FF02C090E080E096
:1015B000089520912C0323FFFBCF24FDF7CF87EE66
:1015C00090E0089520912C0323FFEECF86EE90E06B
:1015D000089520912C0325FFEBCF89E290E0089538
:1015E00020912C0325FFE4CF85E390E0089520911E
:1015F0002C0326FFDDCF8AE290E0089520912C0392
:1016000026FFD6CF81E390E0089582EE90E0089522
:1016100008950F931F93CF938C01FB018281811159
:1016200006C0C1E08C2FCF911F910F910895C091FA
:101630004F01C11125C00531104799F70E94080BD1
:1016400081E080934F010E941E1F90934E01809372
:101650004D011092420110924401109243011092E8
:1016600046011092450110924801109247011092D4
:101670004A011092490110924C0110924B01D2CFB5
:1016800080914D0190914E010E942A1F883C910546
:1016900040F680914201E82FF0E0EE0FFF1FED5B76
:1016A000FE4F118300838F5F80934201C0E0BACF69
:1016B0000C947E070C947F07CF93DF9385B78068E7
:1016C00085BF85B7806885BFA4E2B1E049E251E0FB
:1016D000C1E0D0E08D91E82FE295EF70F0E061A1DC
:1016E0008F709E0101C0220F8A95EAF7922F909584
:1016F000962391A382A1822B82A34A175B0751F7FD
:10170000A4E1B1E061E070E08D91E82FE295EF7027
:10171000F0E041A18F709B0101C0220F8A95EAF78A
:10172000922F9095942391A382A1822B82A381E092
:10173000A432B80749F710925B0110925A01109237
:1017400051011092500110925D0110925C011092B3
:1017500053011092520110925F0110925E0110929B
:101760005501109254011092610110926001109283
:10177000570110925601109263011092620110926B
:10178000590110925801DF91CF910C94F6084F92B5
:101790005F927F928F929F92AF92BF92CF92DF9291
:1017A000EF92FF920F931F93CF93DF9390E5492E13
:1017B00091E0592E24E2E22E21E0F22E01E010E029
:1017C00099249394E201A990B9902E01DE011E9212
:1017D0001E92F70181917F01E82FE295EF70F0E012
:1017E00091A18F70980101C0220F8A95EAF7892F85
:1017F000822B81A382A1822E8094882182A380EAF9
:101800008A95F1F784E1C82E81E0D82E90E080E03F
:10181000E60179916E01472F42954F7050E0EA0141
:1018200078A04D915C9111977F70E80102C0CC0FB8
:10183000DD1F7A95E2F7BE01672109F072C0B80199
:10184000082E02C0660F771F0A94E2F7462B572B2B
:1018500011965C934E93019680319105C9F681A152
:10186000882281A282A1282B22A38D919C91A81667
:10187000B90641F0909264010E941E1F9093660188
:1018800080936501DAE54D16D1E05D0609F09ACF47
:1018900080916401882391F18091650190916601A6
:1018A0000E942A1F069750F180915001909151019A
:1018B00090935B0180935A01809152019091530162
:1018C00090935D0180935C0180915401909155014A
:1018D00090935F0180935E01809156019091570132
:1018E000909361018093600180915801909159011A
:1018F0009093630180936201109264010E94F80842
:1019000081E0DF91CF911F910F91FF90EF90DF90D9
:10191000CF90BF90AF909F908F907F905F904F90AF
:10192000089570E060E092CFE82FF0E0EE0FFF1F27
:10193000E65AFE4F80819181089508959C01CB0164
:1019400061B3542F5095562361B3462B6FB7F8946B
:10195000820F931F2817390711F46FBF0895F901FB
:1019600071919F01E8E041BB000000C077FF51BBCF
:10197000770F000000C000C000C051BB00C0EA9556
:1019800091F7E8CFFC0190B3942B90BB9B01220F01
:10199000331F620F731FCF010E949E0C87EC90E0F3
:1019A0000197F1F700C00000089540E80C94C20CC4
:1019B000AF92BF92CF92DF92EF92FF920F931F935D
:1019C000CF93DF937C01E901842F242F662309F450
:1019D0003FC0C42ED12C8FEF90E0861B9109489F09
:1019E0008001499F100D1124212F812F9927C81A9A
:1019F000D90A9CE3A92EB12CC701B5010E94912BF5
:101A0000FB01BC01C69EC001C79E900DD69E900DE5
:101A10001124B5010E94912BE330F10509F443C074
:101A200080EFE816F10468F4E130F10591F13297A6
:101A3000A1F18CE3E816F10440F180E020E040E001
:101A400007C0E430F10599F1842F861B3597A9F77B
:101A5000E42FF0E0E754F44F4491E22FF0E0E75434
:101A6000F44F9491E82FF0E0E754F44FE491498368
:101A70009883EA83DF91CF911F910F91FF90EF90B0
:101A8000DF90CF90BF90AF900895812F262F210F28
:101A9000DFCF812F242F461BDBCF862F810FE42F32
:101AA000412F2E2FD5CFE42FE61B842FF9CF842F83
:101AB000462F410FCDCF88E090E00C94C72BAB01AF
:101AC000BC0188E090E00C94E52BCF93DF9300D02D
:101AD00000D0CDB7DEB7E4E5F2E083E08083118289
:101AE0008FEF828383838091540290915502A0915D
:101AF0005602B091570289839A83AB83BC83BC01A1
:101B0000CD010F900F900F900F90DF91CF910C941B
:101B10005F0D80915402ECE5F2E080FF06C064E4C2
:101B200070E08CE592E00C94D50C11821082128248
:101B3000339683E0E832F807C1F7F1CFECE5F2E045
:101B4000818360834283339693E0E832F907C1F7DB
:101B50000C94890DEF92FF920F931F93CF93DF9315
:101B600000D00F92CDB7DEB7182FE92EF62E042F36
:101B70008091540290915502A0915602B091570263
:101B80008093580290935902A0935A02B0935B023B
:101B90008091540280FF1FC09E012F5F3F4F812F15
:101BA0009E2D0E94D80C8091580210FB87F98093DB
:101BB00058021695809159028078182BE0FA17F98F
:101BC00010935902F0925A0200935B024B81698193
:101BD0008A810E949E0D0F900F900F90DF91CF9100
:101BE0001F910F91FF90EF9008950F931F93CF9344
:101BF000DF9300D000D00F92CDB7DEB789839D83ED
:101C0000062F142F8091540280FF54C0982F9E7786
:101C1000923091F589819D810E94AA0D8091540294
:101C2000B981B0FB87F980935402B6958091550233
:101C30008078B82B8D8180FBB7F9B0935502009363
:101C40005602109357028091540290915502A09130
:101C50005602B091570289839A83AB83BC83BC013F
:101C6000CD010F900F900F900F900F90DF91CF91BB
:101C70001F910F910C945F0D982F96959F732EE3F3
:101C8000290F2F73243018F410915702C7CF965C98
:101C90009F73993018F6881F8827881F90915502E6
:101CA0009D83990F982B9983AD81A7FBAA27A0F953
:101CB000AD83B4CF0F900F900F900F900F90DF91E6
:101CC000CF911F910F910895E4E5F2E02081221F4A
:101CD0002227221F30915502432F440F842F822B3D
:101CE00037FB992790F9089668E671E00E94A52BCA
:101CF000438162810C94F50D20915402221F22270A
:101D0000221F30915502432F440F842F822B37FB23
:101D1000992790F98830910540F4805A9E4F409160
:101D20005702609156020C94F50D089768E671E031
:101D30000E94A52BF4CF60915602683F90F4685F33
:101D400080915402881F8827881F90915502292F5F
:101D5000220F97FB992790F940915702822B0C9400
:101D6000F50D6FEFEDCF60915602683090F068503E
:101D700080915402881F8827881F90915502292F2F
:101D8000220F97FB992790F940915702822B0C94D0
:101D9000F50D60E0EDCF40915702483F90F4485F69
:101DA00080915402881F8827881F90915502292FFF
:101DB000220F97FB992790F960915602822B0C9481
:101DC000F50D4FEFEDCF40915702483090F048505D
:101DD00080915402881F8827881F90915502292FCF
:101DE000220F97FB992790F960915602822B0C9451
:101DF000F50D40E0EDCFCF93DF9300D000D0CDB70D
:101E0000DEB79091540290FF47C09178811132C0A3
:101E10009260909354028091540290915502A09147
:101E20005602B091570289839A83AB83BC83BC016D
:101E3000CD010E945F0D80915402982F9E779230C1
:101E400009F510927C01881F8827881F9091550200
:101E5000292F220F97FB992790F940915702609103
:101E60005602822B0F900F900F900F90DF91CF9121
:101E70000C94F50D893110F09063CBCF8F73880FE0
:101E8000982BC7CF982F9695925C9F739631D8F672
:101E900091E090937C01D7CF0F900F900F900F900F
:101EA000DF91CF910895809127028160809327026E
:101EB00081E080937D010E947F1E811104C00E94F9
:101EC0005E1E0E94650D0E945B0D6093540270932C
:101ED000550280935602909357026E7761F40E94E8
:101EE000650D0E945B0D60935402709355028093C0
:101EF00056029093570281E080937C0180915402B6
:101F000080FF04C086958F730C94FB0E089580911A
:101F1000540286958F738F5F893108F081E00C94AD
:101F2000FB0ECF93DF9300D000D0CDB7DEB79091FA
:101F30005402892F8E7F90FF81608093540280919C
:101F4000540290915502A0915602B0915702898394
:101F50009A83AB83BC83BC01CD010E945F0D80914D
:101F6000540280FF0AC086958F730F900F900F90D8
:101F70000F90DF91CF910C94FB0E10927C019FEF9C
:101F8000A0E7B2E09150A040B040E1F700C00000EF
:101F90000F900F900F900F90DF91CF910C94890DBF
:101FA000CF93C82F80917A0190917B010E942A1FC4
:101FB000EC2FF0E0EB54F54FE491E817190609F027
:101FC00010F50E941E1F90937B0180937A01E0918F
:101FD0007901F0E0E754F54F449180915402881F55
:101FE0008827881F90915502292F220F97FB992748
:101FF00090F960915602822B0E94AA0D809179017E
:102000008F5F80937901CF910895CF93C82F8091EE
:102010007701909178010E942A1FEC2FF0E0EE5496
:10202000F54FE491E817190609F0E8F40E941E1F25
:102030009093780180937701409157026091560206
:1020400080917501909176010E94AA0D8091750191
:1020500090917601019668E671E00E94912B909331
:10206000760180937501CF910895CF92DF92EF9220
:10207000FF920F931F93CF93C82F8091730190917C
:1020800074010E942A1FEC2FE695F0E0EE54F54F04
:10209000E491E817190609F0C8F50E941E1F9093F5
:1020A0007401809373018CE5E82E82E0F82E10E035
:1020B00000E098E6C92EDD24D394809171019091BF
:1020C0007201800F911FB6010E94912B97014091E0
:1020D0005702609156020E94D80C0B5F1F4F83E09D
:1020E000E80EF11C043581E0180739F70E94890DCC
:1020F0008091710190917201C0FF10C00196B601EC
:102100000E94912B9093720180937101CF911F9146
:102110000F91FF90EF90DF90CF9008950197F2CF4D
:10212000AF92BF92CF92DF92EF92FF920F931F93E5
:10213000CF93DF93C82FDD24DA9480FD02C0DD2425
:10214000D39480916F01909170010E942A1FC695CF
:10215000EC2FF0E0E155F54FE491E817190611F086
:1021600008F053C00E941E1F9093700180936F016E
:10217000CCE5D2E010E000E097E0A92EB12C198266
:1021800018821A8287E0E82EF12CC12C80916E0112
:102190008C0D87FD8C5B082E000C990B8017910726
:1021A000E9F4209157022E9DC0012F9D900D11241E
:1021B000B5010E94A52B462F80915402881F8827C5
:1021C000881F90915502592F550F97FB992790F929
:1021D0009E0160915602852B0E94D80CCD0C81E0A7
:1021E000E81AF10899F60F5F1F4F23960434110582
:1021F00031F60E94890D80916E0191E0D91212C0D2
:1022000081110EC083E480936E01DF91CF911F9105
:102210000F91FF90EF90DF90CF90BF90AF90089517
:102220008150F1CF90E00196B8010E94A52BEBCF31
:10223000BF92CF92DF92EF92FF920F931F93CF93B3
:10224000DF93CDB7DEB7CC5CD1090FB6F894DEBF13
:102250000FBECDBF182F80916C0190916D010E942F
:102260002A1FE12FF0E0E455F54FE491E817190635
:1022700011F008F07AC00E941E1F90936D018093A8
:102280006C018E010F5F1F4FF12CE12C6801D8010A
:1022900011961C9211971C9212961C92B12C90913F
:1022A000000180916B01B99E800D112484340CF0E3
:1022B00083E487FD80E0082E000C990B8E159F05A6
:1022C000A1F480915402881F8827881F909155029D
:1022D000592F550F97FB992790F998014091570274
:1022E00060915602852B0E94D80CB394B7E0BB12C4
:1022F000D6CFEFEFEE1AFE0A0D5F1F4FF4E4EF1694
:10230000F10429F62CE532E009E010E054E4E52E72
:10231000F12CC801B7010E94A52BFC01EE0FFF1F95
:10232000E80FF91FEC0DFD1D8181D90111968C93E9
:10233000119780818C93828112968C930F5F1F4F2F
:102340002D5F3F4F0D34110521F70E94890D9091AB
:10235000000180916B019130E9F48A3FBCF489EF70
:1023600080936B018FEF80930001C453DF4F0FB652
:10237000F894DEBF0FBECDBFDF91CF911F910F91BB
:10238000FF90EF90DF90CF90BF90089581508093A1
:102390006B01EBCF8B342CF08AE480936B0181E0EE
:1023A000E2CF8F5FF4CFCF93DF938091690190915B
:1023B0006A010E942A1F883E934028F10E941E1F36
:1023C00090936A01809369018091670190916801FF
:1023D0000196817099279093680180936701CCE5FD
:1023E000D2E09E01409157026091560290E080E059
:1023F0000E94D80C239683E0C832D80791F7DF916A
:10240000CF910C94890DDF91CF91089580917C013B
:10241000882371F18091540286958F739EE3980F03
:102420009F73943018F482500C94D00F9AE3980F55
:102430009F73933018F486500C94051097E3980F0F
:102440009F73963018F489500C94351091E3980FCF
:102450009F73963018F48F500C9490109BE2980F55
:102460009F73933018F485510C9418110C94D31168
:10247000089590938301809382010895E0918201F1
:10248000F0918301309721F00190F081E02D0994C3
:1024900080E00895E0918201F0918301309721F06E
:1024A0000280F381E02D09940895E0918201F0917A
:1024B0008301309721F00480F581E02D099408957F
:1024C00020918001309181012817390771F0909394
:1024D000810180938001E0918201F0918301309726
:1024E00021F00680F781E02D0994089520917E0166
:1024F00030917F012817390771F090937F01809305
:102500007E01E0918201F0918301309721F00084F7
:10251000F185E02D0994089508950C948C120E9481
:10252000151F0E945C0B0E94DF1F0C94530F5F92DB
:102530006F927F928F929F92AF92BF92CF92DF92D3
:10254000EF92FF920F931F93CF93DF9300D000D0B1
:102550000F92CDB7DEB70E94C70B95E8A92E91E088
:10256000B92E10E000E088248394912C502E802F07
:102570000E94940C7C01F501C190D1905F01C816B6
:10258000D90609F45DC08091270281FD0E949D0C4F
:1025900090E080E0CE24DF243401082E02C0660CD7
:1025A000771C0A94E2F7960126213721232B09F4A0
:1025B00042C089835A82E620F72081E0EF2809F49F
:1025C00080E08B830E941E1F8160782F9D838C8307
:1025D00049815A816B818D810E944C13000F111F1C
:1025E000F801EB57FE4F8081918168267926718230
:1025F00060820E948C220E943E1290918401891771
:10260000B1F10E943E12809384010F900F900F90C1
:102610000F900F90DF91CF911F910F91FF90EF904E
:10262000DF90CF90BF90AF909F908F907F906F90F2
:102630005F900C94FC0801968031910509F0ACCFB5
:102640000F5F1F4F0530110509F090CF8FEF898381
:102650008A831B820E941E1F8160782F9D838C833A
:1026600049815A816B818D810E944C13C2CF0F909A
:102670000F900F900F900F90DF91CF911F910F91BE
:10268000FF90EF90DF90CF90BF90AF909F908F9092
:102690007F906F905F900895CF93DF93CDB7DEB7B3
:1026A0002B970FB6F894DEBF0FBECDBF4F83588770
:1026B00069877A878B871E8285E0FE013796DE0167
:1026C000119601900D928A95E1F749815A816B81AB
:1026D0007C818D819E812B960FB6F894DEBF0FBE54
:1026E000CDBFDF91CF910C94C319882309F4D8C0D2
:1026F000823871F40E943E1281FDD2C089E30E94AB
:10270000651D0E942F1E89E30E94A21D0C942F1E9E
:10271000833859F40E943E1280FDC2C083E50E94B6
:10272000651D0E942F1E83E5EFCF843859F40E9467
:102730003E1282FDB5C087E40E94651D0E942F1ED7
:1027400087E4E2CF9CEF980F913A18F40E94651D40
:10275000DDCF90E2980F983050F4877091E001C07F
:10276000990F8A95EAF7892F0E94E61DCFCF9BE546
:10277000980F933070F4853A31F0863A39F083E857
:1027800090E00C94601281E890E0FBCF82E890E04A
:10279000F8CF98E5980F953108F082C0883A09F48F
:1027A00040C0893A09F440C08A3A09F440C08B3AE3
:1027B00009F440C08C3A09F440C08B3B09F440C096
:1027C0008C3B09F440C08D3A09F440C0803B09F4C9
:1027D00040C08E3A09F440C08F3A09F440C0813BB2
:1027E00009F440C0823B09F440C0833B09F440C077
:1027F000843B09F440C0853B09F440C0863B09F4A2
:1028000040C0873B09F440C0883B09F440C0893B85
:1028100009F440C08A3B09F440C090E080E00C9489
:10282000761282EE90E0FBCF89EE90E0F8CF8AEE50
:1028300090E0F5CF85EB90E0F2CF86EB90E0EFCF24
:1028400083EB90E0ECCF84EB90E0E9CF87EB90E076
:10285000E6CF8CEC90E0E3CF8DEC90E0E0CF83E826
:1028600091E0DDCF8AE891E0DACF82E991E0D7CF3D
:1028700084E991E0D4CF81E292E0D1CF83E292E08B
:10288000CECF84E292E0CBCF85E292E0C8CF86E261
:1028900092E0C5CF87E292E0C2CF8AE292E0BFCF5A
:1028A0000895882309F44BC0823871F40E943E12C7
:1028B00081FF45C089E30E94651D0E942F1E89E3A8
:1028C0000E94A21D0C942F1E833859F40E943E12C0
:1028D00080FF35C083E50E94651D0E942F1E83E5A1
:1028E000EFCF843859F40E943E1282FF28C087E45B
:1028F0000E94651D0E942F1E87E4E2CF9CEF980F77
:10290000913AF0F290E2980F983050F4877091E08D
:1029100001C0990F8A95EAF7892F0E94EC1DD2CF4A
:102920009BE5980F933020F490E080E00C946012C7
:10293000885A853120F490E080E00C947612089556
:10294000882321F00E94E61D0C942F1E08958823F1
:1029500021F00E94EC1D0C942F1E08958F929F92DF
:10296000AF92BF92DF92EF92FF920F931F93CF939C
:10297000DF9300D000D00F92CDB7DEB77C016D831E
:102980007983FC01058102950F70128111110E945B
:10299000051E0E945E1DD82E882371F01123A1F020
:1029A0008D81805E883080F082E00E94481D0E9408
:1029B0005E1D91E0D82ED926E981E295EF70F0E016
:1029C000EC5DF34D0C94B92BD12CF6CF09810F702F
:1029D000F981F07F11F00295007F1123B1F00023FF
:1029E00061F08D81805E883018F02D81211109C041
:1029F000802F0E94E61D0E942F1E8D810E9475135C
:102A000015C0802F0E94F71DF6CF8D810E945114B2
:102A1000002361F08D81805E883018F03D81311196
:102A200029C0802F0E94EC1D0E942F1EDD2009F47A
:102A3000D3C10E943B1D80FDCFC1F70112820E94CD
:102A4000351D0E94811BC7010E94FD160E94351D85
:102A50000F900F900F900F900F90DF91CF911F91DB
:102A60000F91FF90EF90DF90BF90AF909F908F906D
:102A70000C94A31B802F0E94FD1DD6CF49814F705F
:102A8000B42E5981507F503219F0B29480EFB822A1
:102A90008D81882369F0813029F1112369F10023A8
:102AA00059F0F701858180FFA8CF8F70858304C01E
:102AB000112361F0011104C08B2D0E94A014B6CF28
:102AC0008B2D0130D1F70E94191EB0CF011106C025
:102AD0000E941C1E8B2D0E94A714A8CF013009F460
:102AE000A5CFF6CF112321F0063008F09FCFE4CF19
:102AF000053008F09BCFEECF002361F38D810E945B
:102B0000511494CF898186958695837069F08130C0
:102B100009F08CCF8D8199819370111102C090E0E2
:102B200080E00E94761282CF8D819981937011117D
:102B300002C090E080E00E94601278CF8D81112366
:102B400029F00E949A210E94812270CF0E940222C5
:102B5000FACF8981837009F05FC0111167CF2D8191
:102B6000229526952770220F220F8D818F7090E07D
:102B7000B0E0A0E04C015D01022E04C0880C991C5D
:102B8000AA1CBB1C0A94D2F7FD8160E070E0CB0167
:102B9000F4FF0FC06FE070E080E090E004C0660FCB
:102BA000771F881F991F2A95D2F760957095809599
:102BB000909529812695269523702D832230B1F09A
:102BC000233019F19B01AC01282939294A295B29B5
:102BD00029833A834B835C833D8169817A818B8130
:102BE0009C813130B1F00E940E1B20CF9B01AC01C3
:102BF000282939294A295B2929833A834B835C8315
:102C0000CA01B9010E94381B11CF0E940E1BC501D9
:102C1000B4010E94E41A0ACF8695112311F089812C
:102C20008170882309F402CF2D8122952695277083
:102C3000220F220F8D818F7090E0B0E0A0E04C0158
:102C40005D01022E04C0880C991CAA1CBB1C0A94AE
:102C5000D2F73D8160E070E0CB0134FF0FC06FE040
:102C600070E080E090E004C0660F771F881F991F16
:102C70002A95D2F7609570958095909549814695F3
:102C8000469543704D834230B1F0433019F19B01BA
:102C9000AC01282939294A295B2929833A834B83A6
:102CA0005C833D8169817A818B819C813130B1F077
:102CB0000E94141CBBCE9B01AC01282939294A294A
:102CC0005B2929833A834B835C83CA01B9010E9443
:102CD0003E1CACCE0E94141CC501B4010E94EA1B2C
:102CE000A5CE3D81323F09F447C080F4303F79F1F1
:102CF000313FD9F1832F805E8031D0F0112309F468
:102D000056C001117ACE89818F7133C04D81433F06
:102D1000D1F1443F99F7112309F43FC089818F71A4
:102D200089830E94811B63E089810E943F1D7ECEC2
:102D30005D815F705D8389818F71112321F00E9415
:102D4000811B8D81BACE0E94A31B8D81C4CE11231D
:102D500041F0053008F06ACE89818F710E94C81B4E
:102D600065CE063008F062CEF7CF89818F711123CE
:102D700039F00E94811B5ACE89818F711123C9F3CA
:102D80000E94A31B53CE112329F089818F710E94C9
:102D90006C1B4CCE0E94621B49CE81E00E94481DF4
:102DA000023008F443CE82E00E94481D3FCE01115C
:102DB000A5CE89818F71E4CF49814F706D81C701A4
:102DC0000E947B070E945D1A31CE49814F706D8150
:102DD000C7010E94FE082ACE0F900F900F900F900F
:102DE0000F90DF91CF911F910F91FF90EF90DF90A7
:102DF000BF90AF909F908F9008950F931F93CF93A4
:102E0000DF93EC018B819C81892B29F0888199814A
:102E100089238F3F29F4DF91CF911F910F9108955E
:102E2000CE010E9494078823B1F3688179818A8159
:102E30000E940B1D8C010E94681C0E94D91AB801C7
:102E4000CE01DF91CF911F910F910C94AE140E948F
:102E5000051E0E94161E0E94D81D0E942F1E0E9451
:102E600072230E94812290E080E00E94601290E034
:102E700080E00C9476120E94F41D0C9427170E9497
:102E8000FF1C282F892F82958F70903C80F48A3008
:102E9000B0F4843020F4823090F480E008958630DD
:102EA000E1F781E0203E88F0213FB9F70EC08C3079
:102EB00011F08F3091F793FB882780F9089581E016
:102EC000203F39F018F4203E40F70895243F29F7B9
:102ED000FCCF0895CF93DF9300D000D00F92CDB7F1
:102EE000DEB70F900F900F900F900F90DF91CF9162
:102EF0000895CF93DF9300D000D000D0CDB7DEB7D8
:102F000026960FB6F894DEBF0FBECDBFDF91CF91EE
:102F100008951F93CF93DF93E091900116E0809185
:102F200091018E1304C0DF91CF911F910895CE2F90
:102F3000D0E01E9FF0011124EE56FE4F40815181DA
:102F400062817381848195810E947917FE01319697
:102F5000E770E5CF4091C2015091C3016091C40177
:102F60007091C5018091C6019091C7010C947917A9
:102F70001F93CF93DF938091C701807FC1F480912D
:102F8000C4018823A1F080919001C09191016091CA
:102F9000C2017091C3014091C5015091C601D62F65
:102FA000D723DA01A095B09516E0C81304C0DF91CD
:102FB000CF911F91089590E04115510511F0DF3F29
:102FC00031F401968770F1CF2A0F3B1F17C0189F6D
:102FD000F001199FF00D1124EE56FE4F21812713A9
:102FE000F0CF20812613EDCF22812111EACF23815A
:102FF00034812417350740F3241B350B283C310559
:1030000000F72091C7012F7020612093C70126E0AF
:10301000289FF001299FF00D1124E956FE4F808171
:103020008F708061808382EC91E00E94FD16DF91B9
:10303000CF911F910C9489179F92AF92BF92CF921C
:10304000DF92EF92FF920F931F93CF93DF93CDB751
:10305000DEB72B970FB6F894DEBF0FBECDBF8C0145
:1030600085E0F801DE01179601900D928A95E1F74F
:10307000D8014C9111965C9111971296EC90129791
:103080008091C5019091C601009709F46BC1209110
:10309000C2013091C301632F62236F3F09F462C103
:1030A0001396CD90DC909090C401992009F4F8C05B
:1030B000C816D90608F43FC0F601E81BF90BCF018A
:1030C000FF24F394883C910508F0F12C82ECA82EA3
:1030D00081E0B82E8091C701982F907FFF2009F4DE
:1030E000B7C0911180C0FE2C35132AC0241328C00C
:1030F000E11026C08F7080618093C7010E94AA17DB
:10310000C5010E94FD168091C701D80115968C93C8
:103110008F2D2B960FB6F894DEBF0FBECDBFDF917B
:10312000CF911F910F91FF90EF90DF90CF90BF90C4
:10313000AF909F900895809590958C0D9D1DC0CF68
:10314000CD2829F0842F85238F3F09F019C180E015
:10315000B82FB170DB2EE09190012091910136E003
:1031600080FD1CC0EE20A1F28091C7018160809398
:10317000C701F12CCDCF8E2F90E03E9FF00111249E
:10318000EE56FE4F6181651306C06081641303C073
:1031900062816E11E7CFFC013196E770E213EBCF4D
:1031A0004F8358878F8198850E94FF1C292F229575
:1031B0002F70903260F0225F2F70223078F49F7071
:1031C00051F0F8019581907F31F4D12C0AC09F70A5
:1031D00011F08823D1F3805E8830B8F3C8010E94D3
:1031E000FD16FD2C95CF351306C0241304C0D8015D
:1031F000EE2009F47BC04F8358878F8198850E9409
:103200003F17882309F4B8C0EE2009F4B5C08091B7
:10321000C701803270F02091C2013091C3013A831E
:1032200029831B82DD82CC828E83CE0101960E948F
:10323000FD1686E0F801A2ECB1E001900D928A95AE
:10324000E1F70E94B8170E94AA17FF24F39460CFF9
:10325000911113C07C2DDB86CA866E2D8B850E9452
:103260006A1782EC91E00E94FD1686E0F50111924A
:103270008A95E9F70E94AA174BCF3513BCCF2413C8
:10328000BACFE110B8CFD80115968C93C8010E942F
:10329000FD1686E0F50111928A95E9F7F92C38CFF1
:1032A000C816D90688F1B601681B790BCB01F12C41
:1032B000883C910508F047C0FE2CEE2009F45CC064
:1032C000351330C024132EC08091C70180FD21C06A
:1032D000982F907FF1F0D80115968C931597903F19
:1032E00039F0982F907F905F8F70892B15968C9373
:1032F000C8010E94FD1686E0F801A2ECB1E0019041
:103300000D928A95E1F7B6CF809590958C0D9D1D15
:10331000CECF86E0F801A2ECB1E001900D928A9543
:10332000E1F7F6CE4F8358878F8198850E943F172B
:1033300081117FCF8091C70181608093C701C8014F
:103340000E94FD16E5CE7C2DDB86CA866E2D8B8510
:103350000E946A1786E0E2ECF1E0DF011D928A9597
:10336000E9F788CFEE2041F04F8358878F81988509
:103370000E943F1781115DCFC8010E94FD1665CFE5
:1033800081E08E25E5CE1F93CF93DF93CDB7DEB7D7
:103390002C970FB6F894DEBF0FBECDBF4F83588772
:1033A00069877A878B879C87CE0107960E941C18B5
:1033B000882369F08A859B85892B39F04F81588550
:1033C000842F85238F3F09F071C016E05FC086E02F
:1033D000FE013796DE01119601900D928A95E1F774
:1033E0008A859B85892B89F388859F8189238F3FD7
:1033F00061F32091910130E0C9010196877099270E
:10340000409190014817190671F40E943B171092E1
:1034100091011092900186E0E2ECF1E0DF011D9253
:103420008A95E9F7D2CF96E0929FD001939FB00D95
:103430001124AE56BE4FFE01319601900D929A9521
:10344000E1F7809391010E948917BFCF819FC0014E
:1034500011248E569E4F0E941C188823E9F0E0919B
:1034600090011E9FF0011124EE56FE4F40815181C4
:1034700062817381848195810E9479178091900186
:1034800090E0019687709927809390018091900138
:10349000909191018913DACF2C960FB6F894DEBF84
:1034A0000FBECDBFDF91CF911F91089569857A85B9
:1034B0008B859C850E94791788CFEF92FF920F939E
:1034C0001F93CF93DF938C01892B89F0F12CEE248D
:1034D000E394E8012196F8018491843709F457C0F8
:1034E000A0F4823009F43EC048F48130D1F0DF917D
:1034F000CF911F910F91FF90EF9008959CEF980F3F
:103500009037A8F70E9475130AC0853709F44CC09C
:103510009CE7980F903758F78F770E9451148E01CF
:1035200016C00E5F1F4FFE01849190E2980F9830F5
:1035300060F48770FE2D01C0FF0F8A95EAF78F2F88
:103540000E94081E0E942F1E02C00E9475138F2D1C
:10355000815008F4BECFEFE9FFE03197F1F700C0EA
:103560000000F6CF0E5F1F4FFE01849190E2980F8E
:10357000983050F48770FE2D01C0FF0F8A95EAF74E
:103580008F2F0E940E1EDECF0E945114E0CF0E5FDF
:103590001F4FFE01C491C150D0F28FE99FE0019707
:1035A000F1F700C00000F7CF0E5F1F4FFE01F4904F
:1035B000CECF08956093FE017093FF0180930002C7
:1035C000909301020C942717CF93DF9300D000D083
:1035D000CDB7DEB769837A838B839C838091FE01AC
:1035E0009091FF01A0910002B091010229813A81DE
:1035F0004B815C81822B932BA42BB52B8093FE01F6
:103600009093FF01A0930002B09301020F900F90DE
:103610000F900F90DF91CF910C942717CF93DF93EA
:1036200000D000D0CDB7DEB769837A838B839C83CB
:103630008091FE019091FF01A0910002B0910102E2
:1036400029813A814B815C8182239323A423B52372
:103650008093FE019093FF01A0930002B0930102BA
:103660000F900F900F900F90DF91CF910C94271730
:10367000CF93DF9300D000D0CDB7DEB769837A83D4
:103680008B839C838091FE019091FF01A0910002A9
:10369000B091010229813A814B815C818227932775
:1036A000A427B5278093FE019093FF01A093000209
:1036B000B09301020F900F900F900F90DF91CF9178
:1036C0000C9427171092FA011092FB011092FC0142
:1036D0001092FD010C94271741E050E060E070E08B
:1036E00004C0440F551F661F771F8A95D2F7409379
:1036F000FA015093FB016093FC017093FD010C945F
:103700002717282F81E090E0A0E0B0E004C0880FE8
:10371000991FAA1FBB1F2A95D2F74091FA01509119
:10372000FB016091FC017091FD01842B952BA62B70
:10373000B72B8093FA019093FB01A093FC01B09307
:10374000FD010C94271741E050E060E070E004C0F8
:10375000440F551F661F771F8A95D2F740955095E5
:10376000609570958091FA019091FB01A091FC0108
:10377000B091FD0184239523A623B7238093FA01FA
:103780009093FB01A093FC01B093FD010C942717CB
:10379000282F81E090E0A0E0B0E004C0880F991FDE
:1037A000AA1FBB1F2A95D2F74091FA015091FB0145
:1037B0006091FC017091FD0184279527A627B7270A
:1037C0008093FA019093FB01A093FC01B093FD015B
:1037D0000C942717CF93DF9300D000D0CDB7DEB77E
:1037E00069837A838B839C838091FA019091FB019A
:1037F000A091FC01B091FD0129813A814B815C814E
:10380000822B932BA42BB52B8093FA019093FB0171
:10381000A093FC01B093FD010F900F900F900F90BB
:10382000DF91CF910C942717CF93DF9300D000D076
:10383000CDB7DEB769837A838B839C838091FA014D
:103840009091FB01A091FC01B091FD0129813A8189
:103850004B815C8182239323A423B5238093FA01B7
:103860009093FB01A093FC01B093FD010F900F908A
:103870000F900F90DF91CF910C942717CF93DF9388
:1038800000D000D0CDB7DEB769837A838B839C8369
:103890008091FA019091FB01A091FC01B091FD0192
:1038A00029813A814B815C8182279327A427B52700
:1038B0008093FA019093FB01A093FC01B093FD016A
:1038C0000F900F900F900F90DF91CF910C942717CE
:1038D00008959295907FE92FE80F877041E001C02D
:1038E000440F8A95EAF7E695E695E69585E0E89F28
:1038F000F0011124E853FE4F30E020E070E05191D8
:10390000DF011197CB01022E02C0969587950A948C
:10391000E2F7817081958527842385278C932F5F1B
:103920003F4F2530310559F70895E92FE295E07FA3
:10393000E80F982F9770E695E695E69585E0E89F65
:10394000F0011124E853FE4F50E040E080E0219167
:1039500030E0092E02C0369527950A94E2F72170CF
:103960003327042E01C0220F0A94EAF7822B4F5FFF
:103970005F4F4530510559F70895BF92CF92DF92BE
:10398000EF92FF920F931F93CF93DF938C01C09020
:10399000FA01D090FB01E090FC01F090FD018091D4
:1039A000FE019091FF01A0910002B0910102C82A8E
:1039B000D92AEA2AFB2ACFE1D0E0BC2ED701C601E2
:1039C0000C2E04C0B695A795979587950A94D2F7C3
:1039D00080FD0EC0219788F7B12C8B2DDF91CF9100
:1039E0001F910F91FF90EF90DF90CF90BF900895BF
:1039F000B8018C2F0E941C09019761F3EECFCF9381
:103A0000DF93D82FC92F0E94BD1C6D2F7C2FDF9113
:103A1000CF910C941C091F93CF93DF93162FD72FB0
:103A200090918F01992339F0862F972FDF91CF91B5
:103A30001F910C94FF1C882391F0862F972F0E94D2
:103A4000BD1CC82F682F812F9D2F0E94691C612FDC
:103A50007D2F8C2FDF91CF911F910C941C09862F05
:103A6000972F0E94951CC82FF2CF80910202859556
:103A7000859585950895809102028770089598E054
:103A8000899F90011124622B609302020C94811B88
:103A9000909102028095892380930202282F27703B
:103AA00061F4282F082E000C330B9217130629F00F
:103AB0008595859585950C94A31B08959091020298
:103AC000977081E009F480E00895909113019923A3
:103AD000E1F090912C0397FF18C0E82FE695E6954A
:103AE000E695EF3139F12091010130910201E20FA9
:103AF000F32FF11D877021E030E001C0220F8A957D
:103B0000EAF78181822B8183089520910101309110
:103B10000201F90132969FEF40E05191851751F073
:103B20009F3F19F4511101C0942F4F5F4E31A9F7F7
:103B30009F3F09F40895290F311D97FD3A95F9012A
:103B40008283089590911301992301F190912C03A0
:103B500097FF1CC0E82FE695E695E695EF3139F121
:103B60002091010130910201E20FF32FF11D8770C6
:103B700021E030E0A90102C0440F551F8A95E2F709
:103B8000CA01809591818923818308952091010143
:103B900030910201F9013296205E3F4F91918913D5
:103BA00003C0DF0111971C92E217F307B9F70895DC
:103BB00081E090E0E0910101F0910201E80FF91F2E
:103BC0001082019680329105A9F7089590912602FE
:103BD000982B909326020895982F90958091260215
:103BE00089238093260208951092260208959091C9
:103BF0002502982B909325020895982F90958091F7
:103C000025028923809325020895109225020895A4
:103C100090912402982B909324020895982F9095C8
:103C20008091240289238093240208951092240213
:103C3000089580930302089510920302089520913D
:103C4000010130910201F9013196205E3F4F80E081
:103C5000919191118F5FE217F307D1F70895E091E9
:103C60000101F0910201809126028083E09101011F
:103C7000F0910201808190912502892B8083E0914F
:103C80000101F0910201808190912402892B8083AF
:103C900090910302992361F0E0910101F0910201FA
:103CA0008081892B80830E941F1E81111092030244
:103CB00080910101909102010C944A126DEE7EEF09
:103CC00090E080E00E94F12B60E082E090E00E94B2
:103CD000D32B60E083E090E00E94D32B60E084E08F
:103CE00090E00E94D32B60E085E090E00E94D32B0F
:103CF00040E050E0BA0188E090E00C94E52B90E0C1
:103D000080E00E94CD2B9C0181E02D3E3E4F09F0CA
:103D100080E0089582E090E00C94BF2B682F82E051
:103D200090E00C94D32B83E090E00C94BF2B682F91
:103D300083E090E00C94D32B84E090E00C94BF2BB4
:103D4000682F84E090E00C94D32B80913203843070
:103D500039F11092280288E190E020E40FB6F8943F
:103D6000A895809360000FBE2093600080E00E94C1
:103D7000FC0883B7817F846083BF83B7816083BF82
:103D80007894889583B78E7F83BF0FB6F894A895F3
:103D900080916000886180936000109260000FBE87
:103DA000089508950895CF930E94D11E0E94C70BD5
:103DB0000E94D21EC0E08C2F0E94940C892B31F4FB
:103DC000CF5FC530C1F780E0CF91089581E0FCCF8F
:103DD0000E943B170E943E120C94FC081F921FB6D3
:103DE0001F9211248F939F93AF93BF9380912802CA
:103DF000811113C08091280390912903A0912A0377
:103E0000B0912B034196A11DB11D8093280390937F
:103E10002903A0932A03B0932B03BF91AF919F91E5
:103E20008F911F901FBE1F90189582E084BD93E074
:103E300095BD9AEF97BD80936E0008952FB7F894C3
:103E40008091280390912903A0912A03B0912B031C
:103E50002FBF0895CF92DF92EF92FF929C014FB750
:103E6000F8948091280390912903A0912A03B0919E
:103E70002B034FBF6C017D01EE24FF24A90170E0EC
:103E800060E0C416D506E606F70638F0821B930BF1
:103E9000FF90EF90DF90CF9008950197F7CF1F929A
:103EA0001FB61F9211248F939F93AF93BF9380915E
:103EB000280390912903A0912A03B0912B03019626
:103EC000A11DB11D8093280390932903A0932A0379
:103ED000B0932B03BF91AF919F918F911F901FBE05
:103EE0001F9018950E946827F8942FEF87EA91E6B3
:103EF000215080409040E1F700C0000087E090EB47
:103F0000DC0180933B0390933C03A0933D03B0936B
:103F10003E0388E19CE00FB6F894A895809360007A
:103F20000FBE90936000FFCFAF92BF92CF92DF920F
:103F3000EF92FF920F931F93CF93C0E0AA24A39414
:103F4000B12CE82EF12C8C2F0E94940C6C0110E007
:103F500000E0C501002E02C0880F991F0A94E2F705
:103F60008C219D21892B99F0602F7C2F80E00E946D
:103F7000FF08E816F90659F481E0CF911F910F91DF
:103F8000FF90EF90DF90CF90BF90AF9008950F5FBC
:103F90001F4F00311105E9F6CF5FC530A1F680E073
:103FA000ECCFCF93C82F8CE20E94941F882321F07E
:103FB0008C2FCF910C94941F80E0CF910895CF93D4
:103FC000DF9300D000D0CDB7DEB70E947F1E8111F5
:103FD00002C00E945E1E95E6998308C00E94C70B2E
:103FE0008FE39CE90197F1F700C00000A981A1507F
:103FF000A983A111F3CF89E20E94D11F811110C1C1
:104000008AE20E94D11F81110E945E1E85E00E94FB
:10401000D11F81110E94721F0E948A1E8093270265
:1040200087E00E94D11F882371F08BE10E94D11F8D
:10403000882309F4D1C090912702892F8D7F91FFA9
:10404000826080932702809127020E948E1E0E9428
:104050009C1E90E090932D0380932C0380EE0E9491
:10406000D11F882341F090912C03892F8E7F90FFE0
:10407000816080932C0389E30E94D11F882341F043
:1040800090912C03892F8D7F91FF826080932C0368
:1040900082EE0E94D11F882341F090912C03892F3A
:1040A0008B7F92FF846080932C0386EE0E94D11F49
:1040B000882341F090912C03892F877F93FF88609C
:1040C00080932C0383EE0E94D11F882341F09091AE
:1040D0002C03892F8F7E94FF806180932C0385E3CE
:1040E0000E94D11F882341F090912C03892F8F7D4E
:1040F00095FF806280932C0381E30E94D11F882367
:1041000041F090912C03892F8F7B96FF80648093E0
:104110002C0381E10E94D11F882341F090912C0350
:10412000892F97FB87F9805880932C0380912C036B
:104130000E94A01E87E20E94D11F89838EE10E9407
:10414000D11F882319F0B981B260B9838FE10E9431
:10415000D11F882319F029812460298380E20E94DD
:10416000D11F882319F039813860398381E20E9498
:10417000D11F882319F049814061498382E20E945E
:10418000D11F882319F059815062598383E20E941C
:10419000D11F882319F089818064898384E20E9479
:1041A000D11F8823B1F199819068998389810E94F8
:1041B000971E3981232F30E050E040E029833A8375
:1041C0004B835C83CA01B9010F900F900F900F9041
:1041D000DF91CF910C94DA1A8EE00E94D11F8823D0
:1041E00039F090912702892F8B7F92FF846029CF2D
:1041F00080E10E94D11F90912702882329F0892F06
:10420000877F93FF88601DCF892F8E7F90FF81600D
:1042100018CFA981A111CACF0E94931E282FCBCFFE
:104220000F900F900F900F90DF91CF910895809194
:104230002B0280FF12C06091060185E0689FB001EB
:104240001124759567957595679560387105A8F582
:1042500061157105A1F1862F089581FF09C0609154
:10426000060185E0689FB001112475956795EDCF33
:104270006091060182FD0AC080912C028823D1F052
:104280009091050160910601891728F085E0689FEB
:10429000B0011124DACF869FB001112485E0869FFA
:1042A0009001879F300D1124692F70E0C9010E9491
:1042B000A52BCBCF65E070E0CECF8FE7089581E0EE
:1042C000089580912B0280FF0CC06091040170E082
:1042D00075956795759567956115710549F1862FF7
:1042E000089581FF06C06091040170E0759567959F
:1042F000F3CF6091040182FD0BC090912C029923B1
:10430000A1F06091030180910401961738F0682FA5
:1043100070E06038710500F38FE70895899FC00150
:10432000112470E00E94A52BF4CF61E070E0D7CF9C
:1043300081E00895803F31F40E9417218195809398
:104340002F020895813F19F40E941721F8CF823F70
:1043500031F40E941721819580932E020895833FA6
:1043600019F40E941721F8CF893F29F40E94612196
:104370008093300208958A3F21F40E946121819543
:10438000F7CF8B3F31F40E946121819580933102F8
:1043900008958C3F19F40E946121F8CF843F31F4D5
:1043A00080912D02816080932D020895853F21F434
:1043B00080912D028260F7CF863F21F480912D02FB
:1043C0008460F1CF873F21F480912D028860EBCF8C
:1043D000883F21F480912D028061E5CF8D3F31F43B
:1043E00080912B02816080932B0208958E3F21F4EF
:1043F00080912B028260F7CF8F3FB9F780912B021B
:104400008460F1CF90912E02803F41F480912F0281
:1044100087FD10922F02992371F00895813F29F4AE
:1044200080912F021816ACF3F6CF823F81F497FFEC
:10443000F2CF10922E0280912F0290913002892BA0
:1044400090913102892B49F710922C020895833FF5
:1044500019F4191674F3DFCF893F39F480913002D3
:104460001816CCF610923002D6CF8A3F29F48091EC
:10447000300287FFD0CFF6CF8B3F39F480913102E5
:1044800087FFC9CF10923102C6CF8C3F29F48091AB
:1044900031021816BCF3BFCF843F31F480912D0256
:1044A0008E7F80932D02B7CF853F21F480912D021E
:1044B0008D7FF7CF863F21F480912D028B7FF1CF46
:1044C000873F21F480912D02877FEBCF883F21F435
:1044D00080912D028F7EE5CF8D3F31F480912B02AC
:1044E0008E7F80932B0297CF8E3F21F480912B02F9
:1044F0008D7FF7CF8F3F09F08ECF80912B028B7F7E
:10450000F0CF8DE292E00E9455120E941E1F909300
:104510002A028093290208951F93CF93DF9300D03E
:1045200000D000D0CDB7DEB78091290290912A0249
:104530000E942A1FAC0180912C022091070130E0DB
:10454000811106C0209108019AE0299F9001112451
:104550004217530788F020912E02A0912F02A983C1
:1045600010913002B0913102BE8321110FC09A2FF9
:10457000912B9B2B09F0B2C026960FB6F894DEBFA4
:104580000FBECDBFDF91CF911F9108958F3F19F0DE
:104590008F5F80932C02121624F40E9417218093BF
:1045A0002E0280912E0287FF05C00E94172181955F
:1045B00080932E022981121624F40E9417218093E1
:1045C0002F0280912F0287FF05C00E94172181953D
:1045D00080932F0280912E02882309F455C03091D8
:1045E0002F023D83332309F44FC0282F880F330B4C
:1045F000440B550B29833A834B835C83CA01B90171
:104600000E94982A23E333E343E35FE369837A83D9
:104610008B839C8369817A818B819C810E94FC2A97
:1046200069837A838B839C8369817A818B819C8166
:104630000E94602A60932E028D81082E000C990B37
:10464000AA0BBB0B89839A83AB83BC83BC01CD01CE
:104650000E94982A23E333E343E35FE369837A8389
:104660008B839C8369817A818B819C810E94FC2A47
:1046700069837A838B839C8369817A818B819C8116
:104680000E94602A60932F02111624F40E94612177
:10469000809330028091300287FF05C00E94612123
:1046A0008195809330029E81191624F40E94612125
:1046B000809331028091310287FF05C00E94612101
:1046C00081958093310226960FB6F894DEBF0FBE17
:1046D000CDBFDF91CF911F910C9481228F3F09F0C4
:1046E00057CF68CF85E0EDE2F2E0DF011D928A95B9
:1046F000E9F710922C0210922B0208958091520239
:104700000895CF93DF9300D00F92CDB7DEB72091FD
:104710003203243019F523E029838A839B83209375
:10472000E9008FEF9091E800815095FD06C095ED6E
:104730009A95F1F700008111F5CF8091E80085FF8F
:104740000DC050E040E063E070E0CE0101960E94B1
:10475000E0258091E8008E778093E8000F900F901D
:104760000F90DF91CF910895CF93DF9300D00F92F8
:10477000CDB7DEB79C0180913203843031F582E001
:104780008983205831093B832A8383E08093E900A1
:104790008FEF9091E800815095FD06C095ED9A95B8
:1047A000F1F700008111F5CF8091E80085FF0DC081
:1047B00050E040E063E070E0CE0101960E94E02509
:1047C0008091E8008E778093E8000F900F900F9013
:1047D000DF91CF910895209132032430F1F422E04B
:1047E0002093E9002FEF3091E800215035FD06C0FD
:1047F00035ED3A95F1F700002111F5CF2091E80051
:1048000025FF0BC050E040E065E070E00E94E0252D
:104810008091E8008E778093E8000895CF93DF932E
:10482000D82FC92F809132038430F1F49091130175
:104830009923E9F090912C0397FF19C08093E90028
:104840008FEF9091E800815095FD06C095E19A9513
:10485000F1F700008111F5CF8091E80050E040E0D1
:1048600060E270E085FD1AC0DF91CF91089581E08C
:104870008093E9008FEF9091E800815095FD06C08C
:1048800095ED9A95F1F700008111F5CF8091E80040
:1048900085FFEACF50E040E068E070E08D2F9C2F6C
:1048A0000E94E0258091E8008E778093E80080E206
:1048B000ED2FFC2FA2E3B2E001900D928A95E1F773
:1048C000D3CF80913103811109C00E9468270E94D3
:1048D000C5278091E20084608093E20008951092E1
:1048E00031030895089508950C94E81E42E061ECA8
:1048F00081E00E94E42642E061EC82E00E94E4262E
:1049000042E061EC83E00E94E42642E261EC84E054
:104910000C94E42680913403893089F148F4823084
:1049200009F494C0833009F44FC0813041F00895F8
:104930008A3009F47BC08B3009F461C008958091FE
:104940003303813A09F03FC08091E800877F80936C
:10495000E8008091370390913803892B61F460E27D
:1049600082E392E070E00E942F268091E8008B772E
:104970008093E800089560E090E080E0F3CF8091BC
:104980003303813201F5809137039091380300970A
:1049900011F00397C1F48091E800877F8093E800CD
:1049A0008091E80082FF0BC08091F1008093520259
:1049B0008091E8008B778093E8000C941827809111
:1049C00032038111EDCF089580913303813AD9F7F5
:1049D0008091370390913803892BA9F78091E800E3
:1049E000877F8093E8008091E80080FFFCCF809172
:1049F00013018093F1008091E8008E77DCCF8091E5
:104A00003303813201F78091370390913803892B6A
:104A1000D1F68091E800877F8093E8000E941827F4
:104A200080913503809313010C943B1780913303DD
:104A3000813249F68091E800877F8093E8000E94E8
:104A40001827809136038093530208958091330391
:104A5000813A09F0B8CF8091E800877F8093E80021
:104A60008091E80080FFFCCF80915302C2CF84B7D1
:104A7000877F84BF0FB6F894A89580916000886105
:104A800080936000109260000FBE80E88093610008
:104A9000109261000E948D120E9468270E94C52713
:104AA0008091E20084608093E20078940E94452A1D
:104AB0000E948F1289E091E00E94391280913203A6
:104AC000853029F00E9497120E940612F7CF0E94AB
:104AD000A51E80913003882389F30E94D31E88236A
:104AE00069F30E94CA25EACF9C01DA01892F992730
:104AF00083309105C1F068F48130910509F445C017
:104B0000029761F48DE690E029EE3CE02D933C9312
:104B1000089581329105E1F0829739F190E080E0CB
:104B200030E020E0F3CFC9019927213059F08230DD
:104B3000910559F0E5EEFCE0892B81F7849190E036
:104B40009F01E4CFEDECFCE0F9CFE9EBFCE0F6CF20
:104B5000643020F7E62FF0E0EE0FFF1FEB5CFE4F16
:104B60002081318189E090E0D1CF6430B8F670E0E7
:104B7000FB01EE0FFF1FE35DFE4F20813181675D7A
:104B80007E4FFB01808190E0C1CF82E190E026E57D
:104B90003DE0BCCF80E189BD82E189BD09B400FE62
:104BA000FDCF8091D8008F7D8093D8008091E00068
:104BB00082608093E0008091E00081FDFCCF089549
:104BC000AF92BF92CF92DF92FF920F931F93CF933A
:104BD000DF936C01EB018A010E943727F82E8111C7
:104BE00023C00115110539F0F80180819181C81B9E
:104BF000D90BC80ED91EB12CA12C2097A9F08091F9
:104C0000E80085FD22C08091E8008E778093E8005F
:104C100001151105A1F0F80180819181A80EB91E3E
:104C2000B182A08285E0F82E8F2DDF91CF911F9168
:104C30000F91FF90DF90CF90BF90AF9008950E94AA
:104C400037278823D1F2F82EEFCFF60181916F013B
:104C50008093F1002197FFEFAF1ABF0ACECFFC017E
:104C6000CB012091390330913A032617370790F092
:104C7000009729F42091E8002E772093E80040E087
:104C8000009751F4411108C08091E80082FF31C0C3
:104C900080E00895C901F3CF209132032223A9F1C6
:104CA0002530A9F12091E80023FD2DC02091E800D6
:104CB00022FDEACF2091E80020FFE2CF3091F300FF
:104CC0002091F200009719F02830310558F041E0AA
:104CD0002830310509F040E02091E8002E7720933C
:104CE000E800CECF41914093F10001972F5F3F4FF5
:104CF000E9CF80913203882341F0853041F08091E3
:104D0000E80083FFC1CF81E0089582E0089583E049
:104D10000895FC01CB012091390330913A03261705
:104D2000370790F0009729F42091E8002E77209320
:104D3000E80040E0009751F4411108C08091E8007C
:104D400082FF32C080E00895C901F3CF2091320381
:104D50002223B1F12530B1F12091E80023FD2EC0CE
:104D60002091E80022FDEACF2091E80020FFE2CF69
:104D70003091F3002091F200009719F028303105AE
:104D800058F041E02830310509F040E02091E8007A
:104D90002E772093E800CECF44914093F1003196D6
:104DA00001972F5F3F4FE8CF80913203882341F076
:104DB000853041F08091E80083FFC0CF81E0089505
:104DC00082E0089583E00895982F973028F08F703F
:104DD0008093E90081E008959093E900242F762FD5
:104DE00050E0981731F07091EC002091ED00509157
:104DF000F00021FD02C09F5FE8CF3091EB003E7FC5
:104E00003093EB003091ED003D7F3093ED00309119
:104E1000EB0031603093EB007093EC002093ED00D9
:104E20005093F0002091EE0027FDE5CF80E008953B
:104E30008091330387FF13C08091E80082FF06C092
:104E40008091E8008B778093E80004C08091320362
:104E50008111F2CF0895809132038823D9F3809194
:104E6000E80080FFF8CF8091E8008E77ECCF2091AA
:104E7000E4003091E50095E6A9012091EC00822F35
:104E8000817020FF06C08091E80080FF06C080E0AE
:104E900008952091E80022FD1AC0809132038823F2
:104EA00089F0853089F08091EB0085FD0FC020915D
:104EB000E4003091E50042175307F9F29150E1F612
:104EC00084E0089582E0089583E0089581E00895E4
:104ED0000E94D6270E94DE27E0EEF0E0808181600C
:104EE0008083E8EDF0E080818F77808319BCA7EDA7
:104EF000B0E08C918E7F8C9380818F7E8083109226
:104F0000310308950F931F93CF93DF930E94D62709
:104F10000E94DE27C8EDD0E088818F778883888162
:104F20008068888388818F7D888319BC10923203C2
:104F300010922E031092300310922F0300EE10E017
:104F4000F80180818B7F808388818160888342E043
:104F500060E080E00E94E426E1EEF0E080818E7F58
:104F60008083E2EEF0E080818160808380818860D0
:104F70008083F80180818E7F80838881806188832F
:104F8000DF91CF911F910F910895E8EDF0E08081BE
:104F90008F7E8083E7EDF0E080818160808384E014
:104FA00082BF81E0809331030C948227E8EDF0E02A
:104FB00080818E7F80831092E20008951092DA0043
:104FC0001092E10008951F920F920FB60F921124D4
:104FD0002F933F934F935F936F937F938F939F9301
:104FE000AF93BF93EF93FF938091E10082FF0BC0DB
:104FF0008091E20082FF07C08091E1008B7F809367
:10500000E1000E94442A8091DA0080FF19C080915B
:10501000D80080FF15C08091DA008E7F8093DA007F
:105020008091D90080FF94C080E189BD82E189BD73
:1050300009B400FEFDCF81E0809332030E94612419
:105040008091E10080FF19C08091E20080FF15C0CF
:105050008091E2008E7F8093E2008091E200806187
:105060008093E2008091D80080628093D80019BCC0
:1050700085E0809332030E9473248091E10084FFD5
:1050800029C08091E20084FF25C080E189BD82E1D2
:1050900089BD09B400FEFDCF8091D8008F7D80933B
:1050A000D8008091E1008F7E8093E1008091E20042
:1050B0008F7E8093E2008091E20081608093E20025
:1050C00080912E03882309F449C084E08093320341
:1050D0000E9474248091E10083FF29C08091E20046
:1050E00083FF25C08091E100877F8093E10082E00B
:1050F0008093320310922E038091E1008E7F809383
:10510000E1008091E2008E7F8093E2008091E200D6
:1051100080618093E20042E060E080E00E94E4264B
:105120008091F00088608093F0000E947224FF91CB
:10513000EF91BF91AF919F918F917F916F915F910F
:105140004F913F912F910F900FBE0F901F90189588
:1051500019BC109232030E946F2472CF8091E30039
:1051600087FD02C081E0B2CF83E0B0CF1F920F92E3
:105170000FB60F9211242F933F934F935F936F932A
:105180007F938F939F93AF93BF93CF93DF93EF93CF
:10519000FF93D091E900DF708091EC00C82FC170BF
:1051A00080FDC0E81092E9008091F000877F809335
:1051B000F00078940E94FA281092E9008091F000A3
:1051C00088608093F000CD2BCF70C093E900FF91F1
:1051D000EF91DF91CF91BF91AF919F918F917F918F
:1051E0006F915F914F913F912F910F900FBE0F9054
:1051F0001F9018951F93CF93DF93CDB7DEB7AA9773
:105200000FB6F894DEBF0FBECDBF83E393E0FC0181
:1052100001962091F100208323E08B339207B9F7A8
:105220000E948A248091E80083FF16C18091330395
:10523000909134039A3008F00FC1E92FF0E0EC5C54
:10524000F34D0C94B92B803881F0823809F004C1F9
:10525000809137038F708093E9008091EB0085FB8C
:10526000882780F91092E90006C080912F03909161
:105270003003911182609091E800977F9093E8004D
:105280008093F1001092F1008091E8008E77E0C0E9
:10529000882309F4CEC0823009F0DEC08091350346
:1052A0008111D1C0809137038F7009F4D5C08093EC
:1052B000E9002091EB0020FFC6C0933031F48091CB
:1052C000EB0080628093EB00BEC09091EB00906198
:1052D0009093EB0021E030E001C0220F8A95EAF7BD
:1052E0002093EA001092EA008091EB008860EACFF8
:1052F0008111B2C0109135031F778091E30080784F
:10530000812B8093E3008091E800877F8093E80001
:105310000E9418278091E80080FFFCCF8091E30075
:1053200080688093E30082E0111183E08093320370
:1053300093C08058823008F08FC0809135039091DF
:1053400036038C3D23E09207A1F583E08A838AE24D
:1053500089834FB7F894DE01139620E03EE051E2D6
:10536000E32FF0E050935700E49120FF03C0E29553
:10537000EF703F5FEF708E2F90E0EA30C0F0C7967D
:105380008D939D932F5F243159F74FBF8091E80093
:10539000877F8093E8006AE270E0CE0101960E9468
:1053A0002F268091E8008B778093E80055C0C09647
:1053B000E7CFAE014F5F5F4F609137030E947425C6
:1053C000BC01892B09F448C08091E800877F809355
:1053D000E80089819A810E948926E3CF8038E1F52F
:1053E0008091E800877F8093E80080912E0380936E
:1053F000F1004ACF811130C090913503923060F5B1
:105400008091E800877F8093E80090932E030E94AC
:10541000182780912E03882311F084E005C0809125
:10542000E30087FDFACF81E0809332030E94762467
:1054300013C080913503813079F481E0933009F015
:1054400080E0809330031092E9008091E800877F2C
:105450008093E8000E9418278091E80083FF0AC02B
:105460008091E800877F8093E8008091EB00806264
:105470008093EB00AA960FB6F894DEBF0FBECDBFA7
:10548000DF91CF911F9108950895CF9380913203BA
:105490008823A1F0C091E900CF709091EC00892F92
:1054A000817090FD80E8C82B1092E9008091E8009F
:1054B00083FD0E94FA28CF70C093E900CF91089530
:1054C0000E94672A6894B1110C94F62A08950E94EC
:1054D000DB2A88F09F5798F0B92F9927B751B0F081
:1054E000E1F0660F771F881F991F1AF0BA95C9F768
:1054F00014C0B13091F00E94F52AB1E008950C94E7
:10550000F52A672F782F8827B85F39F0B93FCCF399
:10551000869577956795B395D9F73EF490958095E4
:10552000709561957F4F8F4F9F4F0895E89409C004
:1055300097FB3EF490958095709561957F4F8F4FC6
:105540009F4F9923A9F0F92F96E9BB279395F695DC
:10555000879577956795B795F111F8CFFAF4BB0F5A
:1055600011F460FF1BC06F5F7F4F8F4F9F4F16C0BE
:10557000882311F096E911C0772321F09EE8872F48
:10558000762F05C0662371F096E8862F70E060E004
:105590002AF09A95660F771F881FDAF7880F96957D
:1055A000879597F9089557FD9058440F551F59F066
:1055B0005F3F71F04795880F97FB991F61F09F3F00
:1055C00079F087950895121613061406551FF2CF29
:1055D0004695F1DF08C0161617061806991FF1CF79
:1055E00086957105610508940895E894BB276627A0
:1055F0007727CB0197F908950E940F2B0C94802BED
:105600000E94722B38F00E94792B20F0952311F024
:105610000C94692B0C946F2B11240C94F62A0E9485
:10562000D32A70F3959FC1F3950F50E0551F629FE9
:10563000F001729FBB27F00DB11D639FAA27F00DEB
:10564000B11DAA1F649F6627B00DA11D661F829F12
:105650002227B00DA11D621F739FB00DA11D621FF7
:10566000839FA00D611D221F749F3327A00D611D14
:10567000231F849F600D211D822F762F6A2F1124F6
:105680009F5750409AF0F1F088234AF0EE0FFF1F29
:10569000BB1F661F771F881F91505040A9F79E3F80
:1056A000510580F00C94692B0C94F62A5F3FE4F3CB
:1056B000983ED4F3869577956795B795F795E795D6
:1056C0009F5FC1F7FE2B880F911D9695879597F9DF
:1056D000089597F99F6780E870E060E008959FEF74
:1056E00080EC089500240A94161617061806090679
:1056F000089500240A941216130614060506089548
:10570000092E0394000C11F4882352F0BB0F40F4CF
:10571000BF2B11F460FF04C06F5F7F4F8F4F9F4F0F
:105720000895AA1BBB1B51E107C0AA1FBB1FA617E8
:10573000B70710F0A61BB70B881F991F5A95A9F73A
:1057400080959095BC01CD01089597FB072E16F426
:10575000009407D077FD09D00E94912B07FC05D05B
:105760003EF4909581959F4F0895709561957F4F78
:105770000895EE0FFF1F0590F491E02D0994F9991B
:10578000FECF92BD81BDF89A992780B50895A6E114
:10579000B0E044E050E00C94F92BA8E1B0E042E026
:1057A00050E00C94F92B262FF999FECF92BD81BDC4
:1057B000F89A019700B4021639F01FBA20BD0FB64F
:1057C000F894FA9AF99A0FBE08950396272F0E942B
:1057D000D42B0E94D32B252F0E94D42B242F0C9442
:1057E000D42B0196272F0E94D42B0C94D32BDC01B1
:1057F000CB01FC01F999FECF06C0F2BDE1BDF89ADC
:10580000319600B40D9241505040B8F70895F89485
:10581000FFCF3A083F08440849084E085308580883
:10582000B008D5085D0869086D0871087508790821
:105830007D088108850889088D08910895089908D0
:105840009D08A108A508A908E614E6143E153E1512
:1058500082159E1516151615A915161571167116B1
:10586000DC1616151615E516232948292C2A482971
:0C5870002C2A782999292C2AEE29FA29E3
:10587C00FF04022808140A321E7E230E24EB23B4E4
:10588C0023812301303132333790919496973435FC
:10589C00366667C29293F4F5F6404D3639240ED72E
:0E58AC000DA10D680DFB0C140D2D0D460D0009
:00000001FF
