:100000000C94DE030C9416040C9416040C94160441
:100010000C9416040C9416040C9416040C941604F8
:100020000C9416040C9416040C94A02A0C94742BB3
:100030000C94C0240C9416040C9416040C9416040E
:100040000C9416040C9416040C9416040C941604C8
:100050000C9416040C9447250C9416040C94160466
:100060000C9416040C9416040C9416040C941604A8
:100070000C9416040C9416040C9416040C94160498
:100080000C9416040C9416040C9416040C94160488
:100090000C9416040C9416040C9416040C94160478
:1000A0000C9416040C9416040C94160429001E00DB
:1000B0001F0020002100220023002400250026002C
:1000C00027002D002E0000002A004C002B001400F9
:1000D0001A0008001500170000001C0018000C0092
:1000E000120013002F00300031004A0039000400D4
:1000F0001600070009000A0000000B000D000E00AA
:100100000F0033003400000028004D00E1001D0006
:100110001B00060019000500000068001100100017
:10012000360037003800E50052000000E000000013
:10013000E20000002C00015100002C000000E7004C
:1001400000000000E400500051004F0035003A006C
:100150003B003C003D003E003F00400041004200AB
:100160004300440045000000010001000100C25CA2
:10017000C35CC55CC65CC75C0000C85CC95CCA5C8B
:100180000100460047004800010001000100CB5C6F
:10019000CC5C010001000100000001000100010031
:1001A00001000100010000000100005C01000100ED
:1001B00001000100010001000000690001000100D0
:1001C00001000100010001004B00000001000000DF
:1001D000010000000100010000000100000001001A
:1001E00000000000010001004E00010001000100BC
:1001F00001000100010001000100010001000100F7
:1002000001000100010000000100010001000100E7
:1002100001000100010001000000010001000100D7
:1002200001000100010001000100010001000100C6
:1002300001000100010001000000010001000100B7
:1002400001000100010000000100010001000100A7
:100250000100010001000100000001000100010097
:100260000100010001000100010000000100000088
:100270000100000001000100000001000000010079
:100280000000000001000100010001000100010068
:100290000100010001000100010001000100010056
:1002A0000100010001000000010001000100010047
:1002B0000100010001000100000001000100010037
:1002C0000100010001000100010001000100010026
:1002D0000100010001000100000001000100010017
:1002E0000100010001000000010001000100010007
:1002F00001000100010001000000010001000100F7
:1003000001000100010001000100000001000000E7
:1003100001000000010001000000010000000100D8
:1003200000000000010001000100010000047F3F07
:100330001F643214643214783C1E1E140A052223F2
:10034000252628292A2C2D2F3032333536383A3BB2
:100350003D3E4042434547494A4C4E505153555704
:10036000595A5C5E6062646668696B6D6F71737523
:1003700077797B7D7F81838587898A8C8E90929423
:1003800096989A9C9E9FA1A3A5A7A8AAACAEAFB130
:10039000B3B4B6B8B9BBBCBEBFC1C2C3C5C6C7C97A
:1003A000CACBCCCDCED0D1D2D2D3D4D5D6D7D7D834
:1003B000D9D9DADADBDBDBDCDCDCDCDCDDDDDDDD86
:1003C000DCDCDCDCDCDBDBDBDADAD9D9D8D7D7D68E
:1003D000D5D4D3D2D2D1D0CECDCCCBCAC9C7C6C545
:1003E000C3C2C1BFBEBCBBB9B8B6B4B3B1AFAEAC8B
:1003F000AAA8A7A5A3A19F9E9C9A98969492908E36
:100400008C8A89878583817F7D7B79777573716F0E
:100410006D6B6968666462605E5C5A5957555351EA
:10042000504E4C4A4947454342403E3D3B3A3836A0
:10043000353332302F2D2C2A292826252322FFAAB6
:100440007F554000020406080A0C0D0B090705033E
:100450000100010101010101010101020202020288
:10046000020202020303030303030303040404045C
:100470000404040505050505060606060607070724
:10048000070708080808090909090A0A0A0B0B0BDB
:100490000C0C0C0D0D0D0E0E0E0F0F0F1010111178
:1004A00011121213131414151516161717181819FC
:1004B000191A1A1B1B1C1D1D1E1E1F202021222263
:1004C000232424252626272829292A2B2C2D2D2EA6
:1004D0002F30313232333435363738393A3B3C3DC0
:1004E0003E3F404142434445464748494A4C4D4EB1
:1004F0004F50515354555658595A5B5D5E5F616277
:1005000064656668696B6C6D6F7072737577787A05
:100510007B7D7E8082838587888A8C8E8F91939560
:1005200096989A9C9EA0A2A3A5A7A9ABADAFB1B384
:10053000B5B7BABCBEC0C2C4C6C9CBCDCFD1D4D664
:10054000D8DBDDDFE2E4E7E9EBEEF0F3F5F8FAFD06
:10055000FF00000000000000002A2B28000000001F
:100560000000000000000000000000002900000062
:10057000002C1E3420212224342627252E362D3708
:1005800038271E1F202122232425263333362E37D9
:10059000381F0405060708090A0B0C0D0E0F101171
:1005A00012131415161718191A1B1C1D2F3130237E
:1005B0002D350405060708090A0B0C0D0E0F101146
:1005C00012131415161718191A1B1C1D2F3130354C
:1005D0004C000000000000000000000000000000CF
:1005E000000000000000000000000000000000000B
:1005F00000000000007E0F00D4FFFFFFC7000000D6
:1006000078160353006B0065006C00650074006F82
:10061000006E00360038000000180373006B0065A0
:10062000006C00650074006F006E006B0062006477
:100630000000000403090409025B00030100A0FAA2
:100640000904000001030101000921110100012238
:1006500040000705810308000109040100020300AE
:100660000000092111010001222200070582032058
:100670000001070503032000010904020001030033
:10068000000009211101000122B6000705840320A2
:1006900000011201000200000008726E6C7300017C
:1006A000010200010660FF0961A10109621500262F
:1006B000FF009520750881020963150026FF00954B
:1006C0002075089102C005010902A10185020901F6
:1006D000A1000509190129081500250195087501D2
:1006E00081020501093009311581257F95027508C0
:1006F000810609381581257F950175088106050C4D
:100700000A38021581257F950175088106C0C0054C
:10071000010980A101850319012AB700150126B737
:1007200000950175108100C0050C0901A101850427
:1007300019012AA002150126A00295017510810059
:10074000C005010906A1018506050719E029E7157D
:100750000025019508750181020507190029EF158B
:1007600000250195F07501810205081901290595FB
:100770000575019102950175039101C005010906F6
:10078000A101050719E029E7150025019508750164
:1007900081029501750881010507190029FF1500DF
:1007A00026FF0095067508810005081901290595A1
:1007B0000575019102950175039101C011241FBEB9
:1007C000CFEFDAE0DEBFCDBF04B603FE18C08091E4
:1007D000340390913503A0913603B09137038730ED
:1007E000904BA740B04B59F410923403109235034C
:1007F0001092360310923703E0E0F8E3099511E018
:10080000A0E0B1E0E4E1FDE502C005900D92A63D57
:10081000B107D9F723E0A6EDB1E001C01D92A433E2
:10082000B207E1F70E94B9120C945F2E0C940000FD
:1008300084E0089581E0089581E008950E941C04F9
:10084000089508950E9421040895A5E0B0E0EBE228
:10085000F4E00C94C02D49835A833091DD018981E5
:100860009A81311119C0662399F0222389F00E94E0
:10087000B109182F682F89819A810E948E09698198
:100880007A81812F0E94AB212596E3E00C94DC2D28
:100890000E949F09182FF3CF0E94B10969817A81C4
:1008A000F1CFFC01262F40815181628173818481C7
:1008B0000E942504089581E00895CF93DF93EC0111
:1008C00060E00E945104BE010E942204DF91CF919A
:1008D0000895E1E0F0E0DF0102C0AA0FBB1F6A95B6
:1008E000E2F7BD01DF0102C0AA0FBB1F4A95E2F784
:1008F0006A2B01C0EE0F2A95EAF7962F98239613DC
:1009000002C08E2B0895E0958E230895242F462F44
:10091000682F8091FC010E9469040E94EE080895EE
:100920000E945A1108950E945E11089508950E9430
:1009300080080E9496042FEF84E39CE021508040C1
:100940009040E1F700C0000008950E9497040E94C3
:100950006B2508950E9497040E948F2508950F9398
:100960001F93CF93DF938C0161E00E945104EC014F
:10097000B8010E94491D811106C080E0DF91CF912E
:100980001F910F910895B801CE010E941E04882383
:10099000A1F3B801CE010E94F122882371F3B801BE
:1009A000CE010E94A71E882341F3B801CE010E9408
:1009B0006322882311F3B801CE010E94F01B882323
:1009C000E1F2F8018281882361F0CA35FDE5DF0795
:1009D00001F158F4C115ECE5DE0791F0CE3DDC45A0
:1009E00091F0C8010E941A04C9CFCC358DE5D80713
:1009F00069F090F0C73ADD45A1F70E94AA04BDCF87
:100A00000E94A504BACF0E946A0EF7CF0E94A40DDF
:100A1000E8CF0E94AE0DE5CF0E94B20DE2CF0E945A
:100A20009C240E9430050E94661A08950E94340595
:100A30000E943D1B0E94A124089508950E941D0557
:100A4000089581E008950E94210508950895CF93A7
:100A5000C82F0E941E058C2F0E942305CF91089558
:100A600080E00E94270508950E944D230E942705DB
:100A70000895CF930E944D23C82F8091D8018C17E1
:100A800079F0C093D8010E942C256093D90170930E
:100A9000DA018093DB019093DC018C2F0E94270503
:100AA000CF910895ABE0B0E0E8E5F5E00C94C12DFE
:100AB0004F83588769877A878B8761110E94EF0C73
:100AC0001E821D8285E0FE013796DE01119601909F
:100AD0000D928A95E1F78C819D81892B61F4498182
:100AE0005A816B817C818D819E810E94180C2B968E
:100AF000E2E00C94DD2D89819A8189238F3F79F37F
:100B0000CE0101960E945B048111E9CFF0CFFC0178
:100B1000808191810E94DE090895CF93C82F882398
:100B2000B9F08CEF8C0F813AA8F46C2F8091000102
:100B3000909101010E94C223882329F08C2F0E94EA
:100B4000AF0C0E94100D8C2F0E94A70C0E94100D5C
:100B5000CF91089580E28C0F883048F4C77081E00F
:100B600001C0880FCA95EAF70E94D20CEFCFEBE5DF
:100B7000EC0FE33040F4F0E0E85AFE4F808190E063
:100B80000E948223E5CFE8E5EC0FE73150F4F0E076
:100B9000EE0FFF1FE65DFE4F808191810E9498233A
:100BA000D7CFC03FA8F28C2F0E943D130E94101493
:100BB000CFCF882379F19CEF980F913A28F40E94C7
:100BC000AF0C0E94100D089590E2980F983050F4E9
:100BD000877091E001C0990F8A95EAF7892F0E94EA
:100BE000D80CEFCF9BE5980F933028F490E080E08D
:100BF0000E948223089598E5980F973128F490E099
:100C000080E00E9498230895803F20F00E9497136F
:100C10000E94101408951F93CF93DF93182FEB01B8
:100C20000E948D05209739F4812F0E94D905DF910C
:100C3000CF911F9108958FE99FE00197F1F700C0D0
:100C400000002197EFCF70E060E0893311F460E598
:100C500070E00E940B060895882321F00E94D20CB8
:100C60000E94100D0895882321F00E94D80C0E9444
:100C7000100D0895B0E0A0E0E0E4F6E00C94BA2D89
:100C80006C01D62FC72FFC011281F580F2949FE0F2
:100C9000F9220E94C80CE82E8823B9F0E12E112316
:100CA000A1F08C2F807F803421F080E28D0F88307E
:100CB000D0F08091DF0282FF16C082E00E94730DA7
:100CC0000E94C80C91E0E82EE926BC2EB2948FE079
:100CD000B822FBE0FB1508F468C0EB2DF0E0EF59FB
:100CE000F14D0C94732DE12CF0CF0C2F0F70C07FC1
:100CF00011F00295007F112399F0002359F080E252
:100D00008D0F883010F0D11107C0802F0E94D20CB7
:100D10000E94100D8D2F41C0802F0E94E20CF8CF51
:100D20008D2F0E94D905002309F43FC080E28D0F6A
:100D3000883010F0D11104C0802F0E94D80C03C05D
:100D4000802F0E94E80C0E94100D2FC00C2F0F70F6
:100D5000C07FC03211F00295007FDD2381F0D130D9
:100D600009F463C0112309F46DC0FF2009F463C0C6
:100D7000F601858180FFCECF8F7085835CC0809126
:100D8000DF0282FD33C0112359F0002329F0802FA8
:100D90000E94D20C0E94100D80E00E948D0505C0BB
:100DA00080E00E94D9050111C7CFEB2DE850FF0B61
:100DB000349720F40E944D230E942705EE2089F0ED
:100DC0000E94C40C80FD0DC0F60112820E94BE0C70
:100DD0000E940209C6010E9440080E94BE0C0E94A7
:100DE0000E09CDB7DEB7E9E00C94D62D112389F0BA
:100DF000F11006C00E94F20C802B0E942C06D5CF69
:100E000021E0F212F7CF0E94F20C802B0E94F90C25
:100E1000CCCFF11006C00E94060D802F0E94330631
:100E2000C4CF31E0F31609F2F6CF112331F085E09B
:100E30008F1508F4BACF802FE0CF94E09F1508F407
:100E4000B4CFEBCFFF2049F3D93349F4FFEF27EEBE
:100E500033E0F15020403040E1F700C000008D2F1A
:100E60000E94D905A2CF8C2F86958695837069F054
:100E7000813009F09ACF8D2F9C2F9370111102C0F1
:100E800090E080E00E94982390CF8D2F9C2F93704C
:100E9000111102C090E080E00E94822386CF8D2F46
:100EA000112329F00E943D130E9410147ECF0E944E
:100EB0009713FACF8C2F837079F5111176CF4D2FC0
:100EC000429546954770440F440F8D2F8F70042E26
:100ED00001C0880F0A94EAF72D2F2071D4FF07C0B4
:100EE0002FE030E001C0220F4A95EAF72095C69521
:100EF000C695C370822BC23049F058F4C13019F046
:100F00000E94DC0852CF0E94D6084FCF0E94E20810
:100F10004CCF0E94D30849CF8695112311F08C2F16
:100F20008170882309F441CF4D2F42954695477033
:100F3000440F440F8D2F8F70042E01C0880F0A9428
:100F4000EAF72D2F2071D4FF07C02FE030E001C059
:100F5000220F4A95EAF72095C695C695C370822B55
:100F6000C23049F058F4C13019F00E942D091DCF4C
:100F70000E9427091ACF0E94330917CF0E94EE085A
:100F800014CFCF70112329F08C2F0E9402098D2FCE
:100F900034CF8D2F0E9433068C2F0E940E0905CF6F
:100FA000D23F51F160F4D03FB9F0D13F81F011232D
:100FB00009F449C0F110AECE8C2F8F7121C0D33F00
:100FC00011F1D43FA1F78091DF0282FD26C08C2F62
:100FD0008F71112311F314C0112349F084E08F1590
:100FE00008F4E3CE8C2F8F710E941B09DECE95E0B2
:100FF0009F1508F4DACEF6CF8C2F8F711111CDCF5B
:101000000E940209D2CE112329F08C2F8F710E94E9
:10101000F908CBCE0E94F508C8CE112349F0CF7154
:101020008C2F0E94020963E08C2F0E94550DBDCECB
:1010300081E00E94730DE1E0EF1508F0B6CE82E08A
:101040000E94730DB2CEF110FFCE8C2F8F71A5CF01
:101050000F931F93CF93DF93EC01688179818A818D
:101060000E94E9098C010E9439090E94D208B80146
:10107000CE010E943A06DF91CF911F910F91089502
:10108000CF93DF93EC018B819C81892B29F08881A0
:10109000998189238F3F51F4DF91CF910895CE013B
:1010A0000E942808CE010E945D04F6CFCE010E9466
:1010B000AF048111F4CF0E94C80C882369F38A81A0
:1010C000882351F38091DF0282FFE6CF82E00E9405
:1010D000730DE2CF90E080E00E94822390E080E0F8
:1010E0000E9498230E94EF0C0E94100D0E942C1465
:1010F0000E94101408950E94B70C0E946A08089577
:101100000E94DF0C0E947B08089592959F70963094
:1011100091F058F4925F9F70923058F4803F19F02C
:1011200030F4883E30F481E008959A5FF4CF843F34
:10113000D1F380E00895883EB0F3813FD1F7F3CF3B
:10114000FC0183819481892B29F0808191818923FD
:101150008F3F11F480E00895808191810E94DE0923
:101160000E9485080895A5E0B0E0E9EBF8E00C9452
:10117000C12D2596E2E00C94DD2DA6E0B0E0E3EC75
:10118000F8E00C94C12D2696E2E00C94DD2D089534
:101190000E94C70808950E94C8088093FD010E941C
:1011A0006A08089508950E94CB0808959091FD0162
:1011B000892B0E94CB0808959091FD0189230E94FC
:1011C000CB0808959091FD0189270E94CB080895CE
:1011D0000E94C70808950E94E80808950E94EB083D
:1011E0008093FC010E946A08089580E00E94EE0846
:1011F000089591E001C0990F8A95EAF7892F0E941E
:10120000EE08089521E030E001C0220F8A95EAF748
:101210008091FC01822B0E94EE08089521E030E0CD
:1012200001C0220F8A95EAF720958091FC01822364
:101230000E94EE08089521E030E001C0220F8A9557
:10124000EAF78091FC0182270E94EE0808959091B0
:10125000FC01892B0E94EE0808959091FC018923DE
:101260000E94EE0808959091FC0189270E94EE08E3
:1012700008950895262F277091E001C0990F2A95AF
:10128000EAF723E0769567952A95E1F7FB01EE0FE3
:10129000FF1FE60FF71FE40FF51F50E040E0682F37
:1012A00070E08191DF0111979B01042E02C03695F9
:1012B00027950A94E2F721702195282729232827CA
:1012C0002C934F5F5F4F4330510559F70895A82F76
:1012D000A77023E0969587952A95E1F7FC01EE0F1C
:1012E000FF1FE80FF91FE60FF71F50E040E080E016
:1012F000219130E00A2E02C0369527950A94E2F734
:1013000021703327042E01C0220F0A94EAF7822BA2
:101310004F5F5F4F4330510559F70895262F9530A1
:1013200068F4803158F430E1939FB0011124680FC4
:10133000711D4EED51E0822F0E943A0908959530BB
:1013400070F4803160F440E1949F900111246EEDBF
:1013500071E0820F932F911D0E946709089580E02C
:101360000895CF92DF92FF920F931F93CF93DF9355
:101370006C010091FC018091FD01082BC7E0D0E0D9
:1013800010E0FC2EC8010C2E02C0959587950A949A
:10139000E2F780FD0CC02197A0F7F12C8F2DDF9193
:1013A000CF911F910F91FF90DF90CF900895B601DC
:1013B0008C2F0E943510019771F3F0CFCF93DF93FC
:1013C000EC010E94B109BE010E943510DF91CF915E
:1013D00008951F93CF93DF93EB019091DD01992343
:1013E00039F0CB010E94DE09DF91CF911F91089562
:1013F000882369F0CB010E94B109182F682FCE0114
:101400000E948E09BE01812F0E943510EDCFCB01C5
:101410000E949F09182FF6CF1F93CF93DF93C0919F
:10142000FE0116E08091FF018C1304C0DF91CF9183
:101430001F910895D0E01C9FF0011D9FF00D112415
:10144000E050FE4F4081518162817381848195819A
:101450000E94BD082196C770E5CF4091300250919F
:101460003102609132027091330280913402909186
:1014700035020E94BD0808951F93CF93DF9380919A
:101480003502807F09F049C080913202882309F437
:1014900044C08091FE01C091FF01609130027091C3
:1014A0003102A0913302B0913402D62FD72316E037
:1014B000C81799F190E0109711F0DF3F19F40196E9
:1014C0008770F6CF189F9001199F300D1124F901F4
:1014D000E050FE4F41814713F2CF40814613EFCFDA
:1014E00042814111ECCF438154814A1B5B0B483C44
:1014F000510528F7809135028F7080618093350205
:10150000F901EB5FFD4F80818F708061808380E304
:1015100092E00E9440080E940C0ADF91CF911F9137
:101520000895A1E1B0E0E7E9FAE00C94B92D8C014F
:1015300085E0F801DE011D9601900D928A95E1F794
:10154000F801E28080E3C82E82E0D82E6091330259
:10155000709134026115710509F44EC19091300209
:1015600020913102892F82238F3F09F445C14081A8
:101570005181A380B480F0903202F501E61BF70B95
:10158000FF2009F4EAC080913502382F307FE83C13
:10159000F10508F0A3C031116DC0FE2C251316C053
:1015A000941314C0E11012C08F70806180933502D3
:1015B0000E942D0AC6010E94400880913502F80160
:1015C00085838F2D6196EAE00C94D52DA114B1048A
:1015D00029F0842F85238F3F09F027C180E0F82F61
:1015E000F170DF2E80FF3CC08091FE012091FF0151
:1015F00036E0821315C04D875E878D859E850E94DB
:10160000DE09292F22952F702230F0F0243018F5B2
:101610009F70F1F0F8019581907FD1F4D12C1EC01C
:1016200090E0389FF001399FF00D1124E050FE4FFB
:101630006181651306C06081641303C06281E61294
:101640000FC001968770D5CF9F7011F0882331F3BA
:10165000805E883018F3C8010E944008FD2CB1CF8D
:10166000EE2009F4AECF809135028160809335027F
:10167000F12CA7CF251306C0941304C0F801EE2067
:1016800009F487C0C8010E94A008882319F1EE2040
:1016900009F180913502803270F020913002309152
:1016A000310238872F831986BB86AA868C87CE01A4
:1016B00007960E94400886E0F801A0E3B2E001909E
:1016C0000D928A95E1F70E943C0A0E942D0AFF24A0
:1016D000F39477CFC8010E944008F9CF311113C0AD
:1016E0007A2DB98AA88A6E2D89890E94B30880E371
:1016F00092E00E94400886E0F60111928A95E9F78F
:101700000E942D0AB5CF25130FC094130DC0E11010
:101710000BC0F8018583C8010E94400886E0F601ED
:1017200011928A95E9F74DCFC8010E94A00888233D
:1017300089F2EE2079F280913502803208F4BBCF35
:1017400020913002309131023A8329831B82BD827D
:10175000AC828E83CE010196ACCFE83CF10508F057
:101760003EC0FE2CEE2009F4B5CF25132AC09413F9
:1017700028C08091350280FD1BC0982F907FC1F05A
:10178000F8018583903F31F0982F907F905F8F70A4
:10179000892B8583C8010E94400886E0F801A0E3F8
:1017A000B2E001900D928A95E1F70E942D0A09CFCF
:1017B00086E0F801A0E3B2E001900D928A95E1F78E
:1017C00000CFC8010E94A008811175CF8091350219
:1017D000816080933502C8010E944008F2CE7A2DC4
:1017E000B98AA88A6E2D89890E94B30886E0F6011D
:1017F00011928A95E9F7D9CFEE2009F46BCFC80191
:101800000E94A008F82E882309F464CF86E0F8012E
:10181000A0E3B2E001900D928A95E1F780E392E0B7
:101820000E9487050E943C0AC0CF81E08E25D7CE5A
:10183000ACE0B0E0EEE1FCE00C94C02D4F835887A3
:1018400069877A878B879C87CE0107960E94910AC9
:10185000882369F08A859B85892B39F04F815885CB
:10186000842F85238F3F09F06BC016E05FC086E0B0
:10187000FE013796DE01119601900D928A95E1F7EF
:101880008A859B85892B89F388859F8189238F3F52
:1018900061F32091FF0130E0C9010196877099271B
:1018A0004091FE014817190671F40E9480081092B9
:1018B000FF011092FE0186E0E0E3F2E0DF011D92FD
:1018C0008A95E9F7D2CF96E0929FD001939FB00D11
:1018D0001124A050BE4FFE01319601900D929A95B1
:1018E000E1F78093FF010E940C0ABFCF819FC001E6
:1018F000112480509E4F0E94910A8823E9F0E091C4
:10190000FE011E9FF0011124E050FE4F40815181E5
:1019100062817381848195810E94BD088091FE015E
:1019200090E00196877099278093FE018091FE01D7
:101930009091FF018913DACF2C96E3E00C94DC2D13
:1019400069857A858B859C850E94BD088ECF682F1E
:1019500080910001909101010E9442240895682F16
:1019600080910001909101010E945024089580917E
:101970000001909101010E945E2408958091560219
:10198000859585958595089580915602877008956F
:1019900090915602977081E009F480E0089580915B
:1019A0007902089590917902892B809379020895A4
:1019B00080959091790298239093790208951092DE
:1019C0007902089590917802892B80937802089586
:1019D00080959091780298239093780208951092C0
:1019E0007802089580915702089508950E94F50C99
:1019F00008959091DF0292FF08C0909157029817C6
:101A000021F0809357020E94F60C089580915702AE
:101A1000882329F01092570280E00E94F60C089566
:101A2000CF93DF93E0910001F09101018091790261
:101A30008083E0910001F091010180819091780212
:101A4000892B808390915702992381F0E0910001C6
:101A5000F09101018081892B808380910001909118
:101A600001010E94AE2381110E94060DC091000168
:101A7000D091010140E250E066E372E0CE010E94A5
:101A8000012E892B59F080E2FE01A6E3B2E001901D
:101A90000D928A95E1F7CE010E945A23DF91CF91F2
:101AA000089508950E94510D08959091DF0292FFCC
:101AB00011C098E0899F90011124622B6093560217
:101AC0000E940209809156028595859585950E9410
:101AD000520D08950E94020908951092560280E066
:101AE0000E94520D0895909156028095892380930B
:101AF0005602282F277091F4282F082E000C330B44
:101B00009217130659F09091DF0292FF07C0859556
:101B1000859585950E940E090E946D0D08959091FE
:101B2000DF0292FB222720F9281769F080FB92F947
:101B30009093DF028091DE029091DF020E94E10D1E
:101B400082E00E94730D08958091DF0282FB882756
:101B500080F991E089270E948F0D089581E00E940D
:101B60008F0D089580E00E948F0D08956FEF7FEF35
:101B700090E080E00E94492E089590E080E00E946D
:101B8000252E883E9E4F19F40E94E41C089580E0A3
:101B9000089582E090E00E94172E089583E090E07F
:101BA0000E94172E0895CF9384E090E00E94172E94
:101BB000C82F82E290E00E94172E982F8C2FCF9191
:101BC0000895CF93C92F682F84E090E00E942B2EB8
:101BD0006C2F82E290E00E942B2ECF910895AB01F2
:101BE000BC018FE090E00E943D2E0895AB01BC0146
:101BF00083E190E00E943D2E089560E070E0CB010B
:101C00000E94F60D089560E070E0CB010E94EF0D98
:101C10000E94FD0D089568EE7EEF90E080E00E9446
:101C2000492E60E082E090E00E942B2E60E083E08D
:101C300090E00E942B2E1092FD0160E084E090E085
:101C40000E942B2E64E082E290E00E942B2E60E046
:101C500085E090E00E942B2E60E086E090E00E94FC
:101C60002B2E6FEF87E090E00E942B2E40E050E09B
:101C7000BA0188E090E00E943D2E60E08DE090E0A7
:101C80000E942B2E40E050E0BA0188E190E00E94D3
:101C90003D2E60E087E190E00E942B2E40E050E076
:101CA000BA018CE190E00E943D2E70E060E080E29D
:101CB00090E00E94492E40E050E0BA0188E190E0B7
:101CC0000E943D2E80E00E94FD1C0E942C1D0E945F
:101CD000030E08950E940B0E0895682F8EE090E089
:101CE0000E942B2E08950E942C2560938A027093E7
:101CF0008B0280938C0290938D0260938602709386
:101D00008702809388029093890208950895089528
:101D10000E94870E089508950E948B0E08958FE10A
:101D200091E10E9443230E94860E0E94880E08952E
:101D300081E008950E94980E0895089508950E94E4
:101D40009D0E0E949E0E08950E943E110E9426053F
:101D500008950E9417250E943C1D0E941A120E949D
:101D6000A40E0E94011B0E948C0E0895AAE0B0E010
:101D7000ECEBFEE00C94B62D0E9430122CE7822E84
:101D800022E0922E640110E0F601E190F1906F01E3
:101D9000812F0E9461111F5F153009F449C0E816B8
:101DA000F90691F380918E0281FD0E946A110E94D2
:101DB0009A0E782E10E0812F0E9461117C01F401AF
:101DC000A190B1904F018A159B0561F100E0CC24F0
:101DD000C394D12CAE24BF24C5018C219D21892B15
:101DE000C1F07720B1F00E831F8321E0C7018C2161
:101DF0009D21892B09F420E028870E9420258160FD
:101E0000782F9A8789874E815F8168858A850E94AD
:101E100052050F5FCC0CDD1C0031F1F6F401329756
:101E2000F182E0821F5F153031F60E94730E22C0EE
:101E3000E816F90609F0B6CF0E9420258C018091A2
:101E40007A0290917B0208171907A1F08FEF89831E
:101E50008A831B820E9420258160782F9D838C833A
:101E600049815A816B818D810E94520510937B02BA
:101E700000937A020E94471B0E944E140E9439056B
:101E80002A96EDE00C94D22DCF93DF930E943A1066
:101E9000EC01811521E5920708F042C0811530E57B
:101EA000930708F09FC0883E910530F5803E91056C
:101EB00008F094C0883A910588F4853A910508F0B5
:101EC00086C08130910509F489C0009709F486C065
:101ED000049708F083C0D0E0C0E080C08F3B91053C
:101EE000D0F7C85AD0E0CC0FDD1FC55ADE4F09909D
:101EF000D881C02DD46472C0811540E2940750F49B
:101F0000C11581E0D80708F069C0C03FD10518F3BA
:101F1000D06564C081159044F0F2DF70D06A5EC075
:101F2000811535E5930718F5811544E5940708F008
:101F300085C0C11583E5D80708F06CC0C11522E53E
:101F4000D20708F462C0CE018370992721E030E007
:101F500002C0220F331F8A95E2F7C695C69580E22C
:101F6000C89FE0011124C22BD32BDC6837C0811538
:101F700039E59307A8F4811548E5940708F063C094
:101F8000C11586E5D80708F0A6CF8C2F0E94DC107B
:101F9000C82FD0E0DC2FCC27CC27DF71D0621EC049
:101FA00081152AE5920708F453C090568115904296
:101FB00008F091CF8D2F8F710E94DC1090E0982F48
:101FC000882788279F719C012C2BE901E7CFC55AF0
:101FD000D0E0C757DE4FC881D0E0D064CE01DF919A
:101FE000CF9108958370992721E030E002C0220F3D
:101FF000331F8A95E2F7C695C69540E2C49FE0017B
:102000001124C22BD32BDD68E9CFDC2FCC27C16F85
:10201000D06AE4CFCE018370992721E030E002C07E
:10202000220F331F8A95E2F7C695C69540E2C49FFA
:10203000E0011124C22BD32BDA68D0CFD82FCC27C4
:10204000C46FD06ACBCFD82FCC27C06FD06AC6CF91
:102050008F700E94DC1034E0D695C7953A95E1F771
:10206000CF709C2FEC01D069B9CF0E94AB210E94A8
:10207000440F089582389105B9F1B0F48133910588
:1020800009F47DC048F48932910509F46DC08A32A3
:10209000910509F47BC008958533910509F45FC06B
:1020A0008933910509F10895833E9105D9F138F4FA
:1020B000803E910529F1823E910579F10895863E91
:1020C0009105D9F1873E910509F43EC0843E910502
:1020D00041F52091DF0221FF24C08091DE0284FDC2
:1020E00019C087EE90E008952091DE02237009F078
:1020F0005AC02091DF0223FF14C089E290E00895C6
:102100002091DE0220FD38C03091DF0230FF09C08F
:1021100024FF43C090E080E008952091DE0222FD7C
:10212000F7CF08952091DE0222FD3AC03091DF0200
:1021300030FD39C024FFF5CFEDCF2091DE0223FF23
:10214000F0CF24FDE7CFCDCF2091DE0223FD2EC0BE
:102150003091DF0231FFEECF84EE90E008952091C0
:10216000DE0225FFDECFC9CF2091DE0225FD21C092
:102170002091DF0223FFD5CF89E390E0D2CF2091D9
:10218000DE0226FFCECF8AE290E008952091DE02A3
:1021900026FFC7CF81E390E0089583EE90E0089595
:1021A00082EE90E0089580EE90E0089586EE90E053
:1021B000089585E390E008959091DE0292FF06C0B5
:1021C000282F28712830F9F4877F846093FF06C098
:1021D000282F28712831F1F4877E84612091DF0255
:1021E00020FF06C0382F38713830D9F4877F8160DE
:1021F00021FF06C0282F28712831D1F4877E816104
:1022000094FD877E0895282F24712430F9F68B7F62
:102210008860DCCF282F2471243101F78B7E886100
:10222000DDCF382F3171313019F78E7F8860E0CFE4
:10223000282F2171213121F78E7E8861E1CF80E046
:1022400008950E94B60D08950E9430122FEF86E780
:1022500091E0215080409040E1F700C000000E94D2
:10226000301280E00E94611180FF04C00E942111A1
:102270000E946B2508950E94241108950E94BD0DAF
:10228000811102C00E946A0E0E94C90D80938E02C5
:102290000E94D30D9093DF028093DE020E943B11D7
:1022A0000E94CE0D0E94D3088091FC010E94EB0891
:1022B000089508950E945911089508950E945D118E
:1022C0000895E82FF0E0EE0FFF1FE651FD4F8081EB
:1022D00091810895089580EA8A95F1F7089500C0E4
:1022E00008950E946B110895F894E82FE295EF701D
:1022F000F0E031A1282F2F7081E090E001C0880F1D
:102300002A95EAF7982F9095932391A392A1892B70
:1023100082A3789408950F931F93CF93DF93CCE912
:10232000D1E089918F3F11F00E94741181E0C13A90
:10233000D807B9F7CCE8D1E00CE911E089918F3FDB
:1023400011F00E9474110C171D07C1F7DF91CF9196
:102350001F910F910895AF92BF92DF92EF92FF927B
:102360000F931F93CF93DF938C01D62EC62FD0E00F
:10237000CE0184569E4F7C01FC0120812F3F09F441
:102380004CC0F894E22FE295EF70F0E031A12F708D
:1023900081E090E001C0880F2A95EAF7932F982BEF
:1023A00091A392A18095892382A378940E946F11B2
:1023B000ECE8F1E041E050E0B12CA12C21912F3F5D
:1023C000B1F1A22FA295AF70B0E090968C9190E001
:1023D0002F7002C0959587952A95E2F780FD27C05A
:1023E000CA01A82AB92A440F551F81E0EC39F80721
:1023F00029F7F70180818F3F11F00E94741161E08D
:10240000A114B10409F460E08D2D0E947111CC0F6C
:10241000DD1FC00FD11FB982A882DF91CF911F911C
:102420000F91FF90EF90DF90BF90AF90089590E0F4
:1024300080E0D7CF0E948B118AE0EAEEF2E0DF0164
:10244000982F1D929A95E9F7E0EEF2E0DF011D92D8
:102450008A95E9F785E00E946B120E949004089526
:10246000AAE0B0E0E6E3F2E10C94BE2D8E010F5F2E
:102470001F4F8AE0F80111928A95E9F7F12C6F2D30
:10248000C8010E94AB11F394F5E0FF12F8CF4AE0C7
:1024900050E0B80180EE92E00E94012E21E000970A
:1024A00009F420E0892B41F08AE0F801A0EEB2E0C7
:1024B00001900D928A95E1F745E06AEE72E080EEB8
:1024C00092E00E946C12182F0E949304812F2A968A
:1024D000E5E00C94DA2D0895CF92DF92EF92FF920F
:1024E0001F93CF93DF936C017B01C42F222349F00C
:1024F00081E0809391020E94202590939002809326
:102500008F021091910211110AC010E0812FDF910A
:10251000CF911F91FF90EF90DF90CF900895809121
:102520008F02909190020E943825059770F3D0E0B9
:10253000CC0FDD1FAE01B601C7010E94012E892B11
:1025400041F0AE01B601C7010E940E2E1092910219
:10255000DDCF10E0FBCF0E947A270E94A90E0E94D7
:10256000872708950E948C270E94B60E0E94A627F6
:1025700008950E94B9240E9460270E948F0E0E9435
:10258000AB120E94B2120E949F0EFBCF8091980264
:1025900080FF0DC06091070170E0660F771F603803
:1025A000710570F56115710569F1862F089581FF38
:1025B00007C06091070184E0689FB0011124EFCF4C
:1025C0006091070182FD0AC0809197028823A9F0DB
:1025D0002091060160910701821710F088E0ECCF8E
:1025E000869FC001112433E0880F991F3A95E1F7C7
:1025F000622F70E00E943D2DD2CF68E070E0D5CF11
:102600008FE7089581E008958091980280FF0CC0C3
:102610006091030170E075956795759567956115F3
:10262000710549F1862F089581FF06C0609103016D
:1026300070E075956795F3CF6091030182FD0BC043
:10264000909196029923A1F060910201809103017B
:10265000961738F0682F70E06038710500F38FE747
:102660000895899FC001112470E00E943D2DF4CF90
:1026700061E070E0D7CF81E00895803F31F40E949F
:10268000C612819580939C020895813F19F40E949F
:10269000C612F8CF823F31F40E94C6128195809312
:1026A0009B020895833F19F40E94C612F8CF893F18
:1026B00029F40E94041380939D0208958A3F21F417
:1026C0000E9404138195F7CF8B3F31F40E940413CD
:1026D000819580939E0208958C3F19F40E94041303
:1026E000F8CF9CE0980F953070F4845F990B21E04F
:1026F00030E001C0220F8A95EAF780919A02822B7E
:1027000080939A0208958D3F31F480919802816000
:102710008093980208958E3F21F480919802826000
:10272000F7CF8F3FB9F7809198028460F1CF409145
:102730009B02803F59F480919C0287FF0DC010924C
:102740009C0241110BC01092970208C0813F81F496
:1027500080919C0218169CF3442381F080919D0285
:1027600090919E02892B09F05AC01092960208950A
:10277000823F49F447FFF0CF10929B0280919C0268
:102780008111ECCFE0CF833F19F41416ACF3E4CF02
:1027900090919D02893F29F41916F4F610929D023A
:1027A000DBCF8A3F19F497FFD7CFF8CF90919E02E5
:1027B0008B3F29F497FFD0CF10929E02CDCF8C3F54
:1027C00019F41916CCF3C8CF9CE0980F953090F40B
:1027D000845F990B21E030E0B90102C0660F771FDA
:1027E0008A95E2F7CB01809590919A028923809394
:1027F0009A02B2CF8D3F31F4809198028E7F809300
:102800009802AACF8E3F21F4809198028D7FF7CF56
:102810008F3F09F0A1CF809198028B7FF0CF089570
:102820000E9420259C0190919B0280919C02982BF4
:1028300021F0309395022093940290919D02809113
:102840009E02982B21F0309393022093920289E903
:1028500092E00E947423089586E0E9E9F2E0DF0146
:102860001D928A95E9F710929702109296021092A3
:1028700098020895FC01828181110EC0838181112B
:102880000BC08481811108C091E08581811101C054
:1028900090E0892F8170089581E0FCCFA6E0B0E040
:1028A000E4E5F4E10C94C02D86E0E9E9F2E0DE0114
:1028B000119601900D928A95E1F710929B02109269
:1028C0009C0210929D0210929E028B819C81892B0A
:1028D00089F080919402909195020E943825AC0174
:1028E000909197029923C9F18091080184171506E8
:1028F00008F440C08D819E81892B91F080919202D5
:10290000909193020E943825AC01909196029923F0
:1029100009F471C0809104018417150608F479C088
:10292000BE016F5F7F4F89E992E00E9470248111A0
:1029300005C089E992E00E943A1481110E941014A6
:1029400086E0FE013196A9E9B2E001900D928A95E8
:10295000E1F72696E3E00C94DC2D209109018AE052
:10296000289F900111242417350720F69F5F90932C
:10297000970202C09F3FD1F71B81112359F00E949B
:10298000C6129FEF11160CF491E0899F802D11243F
:1029900080939B021C81112359F00E94C6129FEF65
:1029A00011160CF491E0899F802D112480939C02D4
:1029B00030919B02332309F49DCF20919C02222366
:1029C00009F498CF45EB3403C0011124992359F041
:1029D00090939B0245EB240390011124332339F09B
:1029E00030939C0287CF81E080939B02F3CF81E0FC
:1029F00080939C027FCF209105018AE0289F90015F
:102A000011242417350708F08BCF9F5F909396020F
:102A100002C09F3FD1F71D81112359F00E9404137A
:102A20009FEF11160CF491E0899F802D1124809363
:102A30009D021E81112359F00E9404139FEF11166D
:102A40000CF491E0899F802D112480939E02309197
:102A50009D02332309F464CF20919E02222309F4BE
:102A60005FCF45EB3403C0011124992359F09093B3
:102A70009D0245EB240390011124332339F0309358
:102A80009E024ECF81E080939D02F3CF81E0809340
:102A90009E0246CFEF92FF920F931F93CF93DF9347
:102AA000EB01E82FD1110EC0442321F0F0E0EF5AE2
:102AB000FB4FE4916E2F7E2F8E2FCDB7DEB7E6E071
:102AC0000C94D92D0D2F10E0282F30E0442329F04D
:102AD0002F5A3B4FF901249130E0F6E0CF9FC0011F
:102AE0001124EFEFF0E0BF010E94292DAB018C2FE4
:102AF00090E0880F991FA5E5A49FB001A59F700DD8
:102B00001124861B970B982F990F980FBF01601BFC
:102B1000710B629FD001639FB00D729FB00D1124A5
:102B20008B2F9D9FB0011124672F7727EF01C61BC4
:102B3000D70BBE01629FE001639FD00D729FD00D45
:102B400011247F01E91AF108E09EB001E19E700DA9
:102B5000F09E700D1124672F7727E61BF70BE29F7D
:102B60008001E39F100DF29F100D1124E12F722FB1
:102B70004230510599F048F44115510569F0413052
:102B8000510581F0EB2F8D2F07C04430510569F0BE
:102B900080F046305105B1F76E2F8FCFE22F7B2F9B
:102BA000812FFACFE22F7D2FF7CFEB2F822F712FBE
:102BB000F3CF7B2F822FED2FEFCF41E00E944A15FC
:102BC000089508950E94DD150895CF93DF93762F21
:102BD000E901682F842F0E94E215798368838A8334
:102BE000DF91CF9108958091F402982F9E7F29F470
:102BF000817082608093F40208958A34E8F38170D2
:102C00008864F8CF88E090E00E941F2E0895CF924C
:102C1000DF92EF92FF926B017C010E94F315B701E6
:102C2000A60188E090E00E943D2EFF90EF90DF909B
:102C3000CF9008956091F4027091F5028091F602B0
:102C40009091F7020E9407160895E4EFF2E083E006
:102C5000808311828FEF82838383148260817181EC
:102C6000828193810E94071608958091F40280FF6B
:102C700002C08695089580E008959091F8029330FF
:102C800018F49F5F9093F802882351F06091F4024A
:102C90007091F5028091F6029091F7020E9407165A
:102CA000089581E00E943D1608959091F8029923BD
:102CB00019F091509093F802882351F06091F4023A
:102CC0007091F5028091F6029091F7020E9407162A
:102CD000089581E00E94551608958091F8020895A4
:102CE0008093F802662351F06091F4027091F5022E
:102CF0008091F6029091F7020E940716089560E015
:102D00000E94701608958091F50208958091F60250
:102D100008958091F702089570E00E94B81C08950C
:102D2000CF92DF92EF920F931F93CF93DF93CDB7A4
:102D3000DEB7AA970FB6F894DEBF0FBECDBF609185
:102D40000E018091F40280FF36C0E3E4F4E09E01BE
:102D50002F5F3F4F8E01055D1F4FC901A4914A2F80
:102D600050E0DA01AA0FBB1FA40FB51FA750BD4F3B
:102D7000CD90DD90EC90D901CD92DD92ED929D0148
:102D80003196A017B10751F720910D01B3E02B9FA9
:102D9000800D911D11240E948C16AA960FB6F894EE
:102DA000DEBF0FBECDBFDF91CF911F910F91EF908E
:102DB000DF90CF90089580910F019091100123E052
:102DC000829FF0011124E750FD4F891708F0BDCF15
:102DD0001182108212828F5F3396F7CF9091F402A6
:102DE00090FF0EC090910F012091100133E0939F4E
:102DF000F0011124E750FD4F921718F00E94901631
:102E000008958183608342839F5F3396F5CFA3E06B
:102E1000B0E0EDE0F7E10C94C12D9091F40290FF49
:102E20000AC09E012F5F3F4F0E94E5154B816981CB
:102E30008A810E94EE162396E2E00C94DD2DCF935A
:102E4000DF93EC01EC81F0E0E25CFC4F4491E4EFB5
:102E5000F2E0628181810E9407178C818F5F8C83F1
:102E6000DF91CF910895CF93DF93EC01E4EFF2E08F
:102E7000438162818C810E9407178C818F5F8C83D4
:102E8000DF91CF910895A3E0B0E0E9E4F7E10C947D
:102E9000BF2D8C0180919F0281110AC09E012F5F7E
:102EA0003F4F4FEF6FEF0E94E5158A8180939F029D
:102EB000F8016481613069F080919F0240E06623EF
:102EC00061F040E0623011F440919F0280E060E0E8
:102ED00004C060919F0240E080E00E94EE16F8017D
:102EE000848190E0019663E070E00E943D2D848330
:102EF0002396E4E00C94DB2DA3E0B0E0E2E8F7E1F8
:102F00000C94BA2D082FD62EE42EC22E9091F402E6
:102F100090FF29C0E92FE695AE2FB0E0AF55BE4F28
:102F20008C918093AB029E7F923009F59E012F5FBA
:102F30003F4F802F0E94E5154B8169818A810E9455
:102F4000EE160093F502D092F602E092F702CC2042
:102F500051F06091F4027091F5028091F602909127
:102F6000F7020E9407162396E9E00C94D62D8230D2
:102F700019F4E090F702E5CF863019F40091F502DC
:102F8000E0CF8930D9F38931E1F6E9516E2F6170D4
:102F9000B62EE695F0E0E25CFB4F1491F12C6091C7
:102FA0001101F61618F00E949016CBCFF19EC001C9
:102FB000112470E00E94292D802FB11014C0860FBB
:102FC00020910F01622F6F0D7727771F9B01220F32
:102FD000331F260F371F27503D4F4E2D6D2D0E945A
:102FE000E515F394DCCF861BEBCFE4EFF2E09181A3
:102FF000282F4381628188E0890F0E947C17089501
:1030000081E00E94F5170895E4EFF2E09181282F06
:103010004381628188EF890F0E947C17089581E0C7
:103020000E9404180895E4EFF2E0628128E0620F44
:1030300008F46FEF282F438181810E947C17089547
:1030400081E00E9413180895E4EFF2E0628128E025
:10305000621B08F460E0282F438181810E947C1765
:10306000089581E00E9424180895E4EFF2E043817E
:1030700028E0420F08F44FEF282F628181810E94DF
:103080007C17089581E00E9435180895E4EFF2E07E
:10309000438128E0421B08F440E0282F62818181AF
:1030A0000E947C17089581E00E944618089520E050
:1030B0000E947C170895EF92FF921F93CF93DF93A6
:1030C000EC0110E0EE24EA94F12C60911101161746
:1030D00070F00E9490169A818C8190FF27C08F5FBC
:1030E0008C83DF91CF911F91FF90EF9008952091F5
:1030F0000F01422F410F5527551FCA019A01220F78
:10310000331F280F391F27503D4F70E0C7010E9421
:103110003D2D962F8C814091F7026091F602199F08
:10312000800D11240E94E5151F5FCFCF8150D8CFAD
:10313000B0E0A0E0EEE9F8E10C94B92DFC01828149
:103140000FEF80FF01E010E04EE0A42E809111010E
:10315000181798F00E9490168091A102013009F092
:103160004FC0811102C08091110181508093A10252
:10317000CDB7DEB7EAE00C94D52DC0910F01C12E7A
:10318000D12CCC0DDD2DD11DCE01880F991FC80F7C
:10319000D91FC750DD4F198218821A8234E0E32EFE
:1031A000F12CB12C8091A1028B0D8F301CF16A2D76
:1031B0000E941B2D892F082E000C990BC816D906CA
:1031C00091F48091F7028E9DA0018F9D500D1124E6
:1031D00055954795559547959E016091F6028091CA
:1031E000F5020E94E515B00EF1E0EF1AF108D1F6F4
:1031F0001F5FACCF87FFDFCF90911101890FDBCF2D
:1032000090E001966091110170E00E943D2DAECFDB
:103210000F931F93CF93DF9380910F019091100133
:1032200023E0829FF0011124E750FD4F891740F100
:10323000C0E0D3E060911101C61740F10E949016E2
:1032400020910B018091A002820F8093A0029091A7
:103250000C01920F90930C01191654F4082E000CD7
:10326000990B409111014150550B841795071CF0A3
:10327000219520930B01DF91CF911F910F9108951C
:103280001182108212828F5F3396D0CF0C2F10E004
:1032900070E0C8010E943D2D20910F01820F482F40
:1032A00050E02091A002022E000C330B02171307EE
:1032B000BCF020910C01022E000C330B20173107BB
:1032C0007CF08D9F9001112427503D4F4091F702D3
:1032D0006091F6028091F5020E94E515CF5FAACFBA
:1032E000FA01EE0FFF1FE40FF51FE750FD4F1182AB
:1032F00010821282F3CFB0E0A0E0E1E8F9E10C9493
:10330000B72DEC014C81042F10E09801D8010E94E8
:10331000882D9B01AC010E949E2D4B015C01E0E2D7
:10332000F0E0E01BF10BA5E5B0E0AC019B010E94D1
:103330009E2D6B017C019F01DF010E94802D9B016E
:10334000AC010E94A92D9B01AC01280D391D4A1D1D
:103350005B1DC701B6010E94512DF22E822F90E015
:1033600039E23F1520F143E0249F90011124359567
:103370002795122F109500E085E5E82EEF18809133
:103380001101081718F10E9490169C8181E0992381
:1033900019F0903219F48FEF80930A0180910A019D
:1033A000890F8C83CDB7DEB7ECE00C94D32D25E5E7
:1033B00030E0B901681B790B9B01220F331F260FE8
:1033C000371F37FFD4CF2F5F3F4FD1CF8E2D01FD59
:1033D0008F2D20910F01622F600F7727771F9B01A0
:1033E000220F331F260F371F27503D4F412F60916B
:1033F000F6020E94E5150F5FC2CF0F931F93CF9384
:10340000DF93EC0110E000E090911101901711069C
:1034100009F06CF40E9490168C8190E00196817006
:1034200099278C83DF91CF911F910F91089520915F
:103430000F01A801420F511D9A01220F331F240FC3
:10344000351F27503D4F4C816091F6028091F50267
:1034500096959017110651F04CF0442349F0409195
:10346000F7020E94E5150F5F1F4FCECF4423B9F33B
:1034700040E0F7CFE4EFF2E080818E7F80836081CF
:103480007181828193810E9407161092AC022FEF06
:1034900080E792E0215080409040E1F700C00000BA
:1034A0000E9490160895E4EFF2E080818E7F808381
:1034B0001092AC022FEF80E792E0215080409040C4
:1034C000E1F700C000000E94901608951092AC022F
:1034D0008091A90281110AC081E08093A9028091A4
:1034E000F40281708093A8020E94531A089560919B
:1034F000F402669570E04BE050E082E191E00E94BA
:10350000F42D892B19F481E08093AC020E942025D0
:103510009093A3028093A20208959091F40290FFE9
:103520002BC09170811129C092609093F4026623A0
:1035300051F06091F4027091F5028091F602909141
:10354000F7020E9407166091F402669570E04BE066
:1035500050E082E191E00E94F42D892BA9F01092B5
:10356000AC0281E08093A5024091F7026091F602DF
:103570008091F5020E9457180895853210F09864E2
:10358000D4CF880F982BD1CF0E94771AEACF682F1B
:103590009091F402969581E0890F853208F081E0E0
:1035A0000E948D1A089581E00E94C71A0895682F1D
:1035B0009091F40296958FEF890F09F484E20E94AE
:1035C0008D1A089581E00E94D71A089561E00E9443
:1035D0008D1A0895E4EFF2E0808181608083869502
:1035E0000E94E61A08958091F40280FF03C00E94B1
:1035F0003A1A08950E94EA1A089560E00E948D1A0E
:1036000008958091AA0281112EC00E94BD0D8111E2
:1036100004C00E946A0E0E9425160E940216609342
:10362000F4027093F5028093F6029093F7026E7F96
:1036300061F40E9425160E9402166093F4027093B2
:10364000F5028093F6029093F7020E94F315109210
:10365000AC028091F40280FF03C086950E94FD1A9F
:1036600081E08093AA020895E4EFF2E08081816016
:10367000808386950E94FD1A08951092A902809178
:10368000A80281110E94341B0E94771A08950F939B
:103690001F93CF93DF938091AC028823B9F180917F
:1036A000AB02E091F402E695E81BE093A4028230BD
:1036B00091F5F0E0E65CFC4FE491CE2FD0E00FE115
:1036C00017E18091A502882361F01092A5020E9463
:1036D00020259093A3028093A2021092A702109239
:1036E000A6020E942025E091A202F091A3028E1B67
:1036F0009F0B8F3F9F4750F4EC0FFD1FF093A302E9
:10370000E093A20282EA92E0F8010995DF91CF915D
:103710001F910F910895863049F4F0E0E95CFC4F69
:10372000E491CE2FD0E003E317E1CBCF893051F401
:10373000E695F0E0EC5CFC4FE491CE2FD0E00BE599
:1037400018E1BFCF8F3051F4E695F0E0EF5CFC4F0D
:10375000E491CE2FD0E008E918E1B3CF853149F4E8
:10376000F0E0E25DFC4FE491CE2FD0E008E019E1FB
:10377000A8CFC8E2D0E00BE719E1883109F4A1CF66
:10378000833239F4ECE2F3E0C591D49103E417E11C
:1037900098CFC4EFD1E00DEF19E1843209F491CF55
:1037A000C0EDD7E001EE15E18CCFFA01811101C027
:1037B000FB0109950895CF93DF93C82FD62F0E9460
:1037C00035168C1748F00E9435168D1728F40E9484
:1037D000D31ADF91CF9108958C2F0E94E61AF9CF6A
:1037E0001F93CF93DF93EC01FB01128111117EC077
:1037F0000E94CF0C8272CC3CFCE5DF0709F49CC030
:1038000008F041C0C63CECE5DE0709F481C0D8F4FD
:10381000C33C9CE5D90709F471C030F4C23CDC45D7
:1038200009F469C011E062C0C43C9CE5D90709F401
:103830006AC04FE058E160E078E1C53CDC4591F7B3
:103840000E94D51B53C0C93CFCE5DF0709F46AC0E0
:1038500068F4C73CECE5DE0709F45FC040E258E1DC
:1038600061E378E1C83CDC4559F3DCCFCA3C9CE518
:10387000D90709F45CC049E656E161E576E1CB3C45
:10388000DC45F1F2CFCFC13DFCE5DF0709F465C0AF
:1038900098F4CE3C9CE5D90709F457C008F451C010
:1038A000CF3CFCE5DF0709F455C0C03DDC4509F01D
:1038B000B9CF6EE089E04BC0C43D9CE5D90709F45F
:1038C00052C058F4C23DFCE5DF0709F449C0C33DCE
:1038D000DC4509F0A7CF88E135C0C53D9CE5D90797
:1038E00009F444C0CD35DD4509F09CCF812FDF912F
:1038F000CF911F9108950E94F31AF8CF42EE5AE13A
:1039000063ED7AE19DCF43ED5AE162EE7AE198CF23
:1039100040E058E16FE078E193CF41E358E160E2A5
:1039200078E18ECF43E558E162E478E189CF42E463
:1039300058E163E578E184CF41E556E169E676E157
:103940007FCF81E00E94E61AD1CF65E082E00E943D
:10395000DB1BCCCF68E086E0FACF64E18FE0F7CFE5
:1039600067E185E1F4CF62E289E1F1CF83E2EACF5A
:10397000879A41B34F7751B35068EFB7F8949B01E2
:10398000220F331F260F371F280F391F281739071B
:1039900041F4EFBF8FE594E00197F1F700C000001C
:1039A0000895DC016D91CD0178E051BB000000C0AD
:1039B00067FF41BB660F000000C000C000C041BBF4
:1039C00000C07A9591F7E2CF83E290E00E94172E33
:1039D000823289F484E290E00E94172E893059F4F3
:1039E00085E290E00E94172E91E0863109F090E088
:1039F000892F8170089580E0FCCFCF93C82F6FEF9F
:103A0000811162E283E290E00E942B2E6FEFC111E0
:103A100069E084E290E00E942B2E6FEFC11166E115
:103A200085E290E00E942B2ECF910895089586E2C2
:103A300090E00E94172E682F70E090E080E00895DB
:103A40000895CF93C62F0E94201D6C2F86E290E030
:103A50000E942B2ECF91089580E00E94FD1C60E013
:103A600070E0CB010E94211D0E9429210E940822A2
:103A700081E00E94FD1C08950E94161D0E94171DE2
:103A80000E94201D0E94E41C811102C00E942C1D76
:103A90000895CF93FB01C281CC2309F19C012251EF
:103AA0003F452031310520F582510E941822C0E0A7
:103AB0008C2FCF91089581E00E94020943E062E0DB
:103AC00081E00E948604F3CF81E00E940E0943E06A
:103AD00062E081E00E948604EBCF82E0F6CF803185
:103AE000FFE59F0789F381319F45B9F3C1E0E0CF3E
:103AF0008031EFE59E07F9F281319F45C9F682E0FA
:103B0000DBCF2FEFFC0120830895CF93DF93EC01EF
:103B100088818138E9F028F4803871F0DF91CF9105
:103B200008958238C9F08338C9F70E9483168983C3
:103B30000E9486168A83F2CF0E9489162FEF829FF9
:103B4000C00111246FEF70E00E94292D6983E6CF38
:103B50000E9435168983E2CF0E946D16FBCFCF936A
:103B6000DF93EC018881813821F128F4803869F0F5
:103B7000DF91CF910895823841F18338C9F70E94CF
:103B80008916482F6A81898111C089812FEF829F10
:103B9000C00111246FEF70E00E94292DD62F0E94E2
:103BA0008616C82F0E9483164D2F6C2F0E9457181F
:103BB000DFCF89810E94FD1A8981811103C00E9493
:103BC000531AD6CF0E94341BD3CF89810E947F160F
:103BD000CFCFEF92FF920F931F93CF93DF93EC0120
:103BE000062FDC01ED91CD01E150E33108F0ACC0CE
:103BF000F0E0E359F14D0C94732D19828AE08A8329
:103C0000602FCE010E943326CDB7DEB7E6E00C94DC
:103C1000D92D8981823069F0833071F08130D9F4F7
:103C20000E942C250E94792D6A837B838C839D833F
:103C3000E7CF0E94171DF6CF7E0110E0812F0E9472
:103C40006111F701928383831F5FF2E0EF0EF11C95
:103C50001530A1F7D5CF602FCE010E94811DD0CFA6
:103C600089818230C1F76A817B818C819D810E942C
:103C7000792D0E94211DC4CF4B816A8189810E94C8
:103C8000EB209827892798279D838C83B9CF2C8197
:103C90003D813227232732274B816A8189810E9407
:103CA0000D21AECF0E942921ABCF0E94AF1DA8CF1E
:103CB0000E94851DA5CF0E941A16A2CF0E94B9218D
:103CC00089839ECF0E94BB219827892798279A83B2
:103CD000898396CF6B8170E089819A81AE014C5FB8
:103CE0005F4F9827892798270E94BE2189CF6B8133
:103CF00070E089819A81AE014C5F5F4F98278927D8
:103D000098270E94E3217CCF0E94082279CF0E944D
:103D1000D820D6CF6B8170E089819A81AE014C5F4B
:103D20005F4F9827892798270E94632169CF6B816D
:103D300070E089819A81AE014C5F5F4F9827892797
:103D400098270E9487215CCF8FEF888359CFCF932C
:103D5000DF93EC01FB018281882309F464C1C33045
:103D6000FDE5DF07E0F5CA3F9CE5D90730F49E0189
:103D700022503C4524313105D8F50E94D30D909353
:103D8000DF028093DE02C231ECE5DE0709F41FC1D9
:103D900008F06EC0C9308CE5D80709F4F2C008F00D
:103DA0003FC0C530ECE5DE0709F4DBC058F5C33091
:103DB0008CE5D80709F4CDC008F0CFC08091DE02B1
:103DC0008160C230DC4509F4AEC08091DE02909182
:103DD000DF020E94E10D0E94800880E009C0C53A20
:103DE000EDE5DE0751F238F4C1369DE5D90729F239
:103DF000DF91CF9108959E012D5A3D452330310525
:103E0000B8F7BBCF8091DE028062C730FCE5DF07E8
:103E100009F489C008F4B1C08091DE02806483C0D7
:103E2000CD309CE5D90709F4BAC070F48091DE0268
:103E30008E7FCB30FCE5DF0709F475C008F4A7C01E
:103E40008091DE028D7F6FC0CF309CE5D90709F4E9
:103E5000B6C008F4A8C0C031FCE5DF0709F4B3C060
:103E6000C131DC4509F0B1CF8091DE028F7B5BC0B0
:103E7000CF3F9CE5D90709F4B4C098F5CA3FFCE5EB
:103E8000DF0709F472C0B8F4C4319CE5D90709F41E
:103E9000B6C008F4A2C0C531DC4509F096CF8091C8
:103EA000DE0282FB992790F921E0922790FB82F9AC
:103EB00090FB83F938C0CC3F8CE5D80709F477C074
:103EC00008F457C0CD3FECE5DE0709F474C08091DB
:103ED000DF028360CE3FDC4509F077CF8093DF02BD
:103EE00074CFC1368DE5D80709F496C068F4C130A7
:103EF000EDE5DE0709F48CC008F477C0C230DD457B
:103F000009F063CF80E085C0CD3A9DE5D907E9F09F
:103F100068F49091DE02892F8E7F90FF8160C53A10
:103F2000DD4509F052CF8093DE024FCFCE3A8DE5CA
:103F3000D80789F1CF3ADD4509F047CF9091DF02EC
:103F4000892F877F93FF8860C9CF8091DF028860C7
:103F5000C5CF8091DE028260E6CF8091DE02846070
:103F6000E2CF8091DE028860DECF8091DF02816047
:103F7000B5CF8091DF028260B1CF8091DE02806197
:103F8000D2CF0E9480088091DE028068CCCF8091E1
:103F9000DE028C60C8CF8091DF02877F9FCF809147
:103FA000DE028B7FC0CF8091DE02877FBCCF809105
:103FB000DF028E7F93CF8091DF028D7F8FCF809144
:103FC000DE028F7EB0CF8091DE028F7DACCF0E946B
:103FD00080088091DE028F77A6CF8091DE02837FFA
:103FE000A2CF8091DF028C7F79CF8091DF02982F62
:103FF000909591708E7F892B90FB81F96FCF0E94F5
:1040000080089091DE02892F97FB87F980588BCF2B
:1040100081E00E946D0ED9CE9091DE02892F8F7EB5
:1040200094FF806180CF81E0E3CEB0E0A0E0EBE1DF
:10403000F0E20C94BC2DE82FF0E0EF5AFA4FD49048
:10404000282F26952695269530E0F901EF50FA4F56
:104050000491877010E0082E02C0159507950A9408
:10406000E2F701701127F901EF51FA4FE490F12CBA
:10407000082E02C0F594E7940A94E2F791E0E92251
:10408000FF24F901EF52FA4FC491D0E002C0D59558
:10409000C7958A95E2F7C170DD270115110519F062
:1040A00081EE0E948D05E114F10419F086EE0E9464
:1040B0008D058D2D0E942306E114F10419F086EE82
:1040C0000E94D9050115110519F081EE0E94D9054C
:1040D000CD2B19F08CE20E942306CDB7DEB7E7E0C6
:1040E0000C94D82DEF92FF920F931F93CF93DF93F1
:1040F000EC01162F0AE08881882309F454C081302E
:1041000009F04EC08981813099F47E0122E0E20EEF
:10411000F11C8A810E942306E7012196812F81509C
:1041200050F3EFE9FFE03197F1F700C00000F7CF5F
:10413000823041F47E0182E0E80EF11C8A810E9407
:104140008D05EACF833041F47E01E2E0EE0EF11CF2
:104150008A810E94D905E0CF843011F02196DDCF0D
:104160002A81229690E080E0AE014F5F5F4F20539E
:10417000330B2A30310548F0019778F2EFE9FFE080
:104180003197F1F700C00000F7CF089FB001099FF9
:10419000700D1124C901860F971F2981EA01E4CF10
:1041A0000E941520BACFCDB7DEB7E6E00C94D92D2A
:1041B00084E0089590E2699FB001112450E0440F1B
:1041C000551F640F751F90EA899F600D711D1124A2
:1041D000CB01879608950F931F93CF93DF9384307D
:1041E000C8F46530B8F44031A8F40E94DA208C019C
:1041F0000E94172EC82FD0E0DC2FCC27C8010196D3
:104200000E94172E9E01282BC901DF91CF911F918B
:104210000F91089590E080E0F8CF0F931F93CF9314
:10422000DF93122F032F843078F4653068F4403127
:1042300058F40E94DA20EC01602F0E942B2E612F8F
:10424000CE0101960E942B2EDF91CF911F910F91ED
:104250000895B0E0A0E0EFE2F1E20C94B92D8CEA11
:10426000C82E80E0D82ED0E0C0E0760110E01CC05F
:104270000E94180421E030E08C171D0621F01CF08C
:10428000F50125913491402F612F8C2F0E940D2133
:1042900082E0A80EB11C0F5F003151F71F5F80E272
:1042A000E80EF11C153019F0570100E0E1CF21961E
:1042B00080EAC80ED11CC430D105B9F6CDB7DEB73F
:1042C000EAE00C94D52DEF92FF920F931F93CF93BA
:1042D000DF93EC018A017C01E60EF71ECE01879682
:1042E000CE15DF0529F4CDB7DEB7E6E00C94D92D65
:1042F000C03822E0D20740F40E94172EF8018083D4
:104300000F5F1F4F2196EACFF8011082F9CFB0E07E
:10431000A0E0EDE8F1E20C94BB2D7C016A018C0178
:10432000060F171FEC01CE018796C017D10729F49D
:10433000CDB7DEB7E8E00C94D72DC03822E0D20725
:1043400040F4FE01EE19FF09EC0DFD1D60810E9495
:104350002B2E2196E8CF462F843040F4753030F470
:10436000603120F4672F0E94EB20089590E080E0F8
:10437000089580E1089589E591E00895EF92FF9214
:104380000F931F93CF93DF93EC018A017C01E60E1C
:10439000F71ECE0189559D4FCE15DF0529F4CDB707
:1043A000DEB7E6E00C94D92DC93521E0D20740F400
:1043B0000E94172EF80180830F5F1F4F2196E9CFCF
:1043C000F8011082F9CFB0E0A0E0E9EEF1E20C9440
:1043D000BB2D7C016A018C01060F171FEC01CE0179
:1043E00089559D4FC017D10729F4CDB7DEB7E8E056
:1043F0000C94D72DC93521E0D20740F4FE01EE1907
:10440000FF09EC0DFD1D60810E942B2E2196E7CF48
:10441000CF93DF93C7EAD2E060E0CE010E942B2E5B
:104420002196C11584E0D807B9F7DF91CF9108959F
:10443000A4E0B0E0EEE1F2E20C94BC2DF82E8FE0A7
:104440008F1548F18FEF93E00E94172E811123C042
:1044500007EA12E0F11023C019821A821B821C8223
:10446000DD24D39478018FEFE81AF80AC8010E947E
:10447000172E89831A82882371F09FEF980F93304B
:10448000D8F48A83D9820E5F1F4FC7010E94172E6E
:104490008B83811112C02496E7E00C94D82D01156E
:1044A00084E01807C1F3C8010E94172E811101C0D2
:1044B000FA940F5F1F4FCECF870160E0CE010196C7
:1044C0000E947220CFCFCF93DF93EB0186319C45C2
:1044D00011F50E94CF0C9A81992399F08A7A91E084
:1044E00009F490E09093AD02811109C089E20E9425
:1044F000A70C0E94100D80E0DF91CF91089585E315
:10450000F6CF8091AD02811104C089E20E94AF0C08
:10451000F0CF85E3FBCF81E0EFCF0F931F93CF93D5
:10452000DF93C42FD22FFC0182818823C9F04093EE
:10453000B0020E9420259093AF028093AE0280E2E9
:104540008C0F883040F4C77081E001C0880FCA9595
:10455000EAF70E942C06DF91CF911F910F910895E9
:104560001091B002141332C08091AE029091AF024C
:104570000E943825883C910548F5C0E2CD0F1D17F3
:10458000B9F080E2810F883040F4177081E001C0FB
:10459000880F1A95EAF70E943306C83048F481E084
:1045A0009D2F977001C0880F9A95EAF70E942C06FC
:1045B000802F0E942306C83070F6D77081E001C0BA
:1045C000880FDA95EAF70E943306C5CF80E28C0F98
:1045D000883008F6C77081E001C0880FCA95EAF7F5
:1045E000F2CF0F939C01CB01233F4CE5340759F1E7
:1045F000A8F4283DFCE53F0701F1293D4CE53407CF
:10460000D1F1273D3C4591F406E221EE41EE67ED04
:104610007CE50E948D2280E00F910895253FFCE506
:104620003F07E9F0B0F0263F3C45F9F0FC018281FC
:10463000882339F11092B002EFCF07E225EE45EE64
:1046400068ED7CE5E6CF06E221EE40EE63EF7CE527
:10465000E0CF07E225EE44EE64EF7CE5DACF06E238
:1046600021EE42EE65EF7CE5D4CF07E225EE46EE83
:1046700066EF7CE5CECF08E221E045EE69ED7CE512
:10468000C8CF81E0C9CF9093D7018093D601089518
:104690009093B6028093B5020895E091B502F0912F
:1046A000B602309729F00190F081E02D0995089528
:1046B00080E00895E091B502F091B602309799F04C
:1046C00020912901222359F02091DE0227FF07C003
:1046D000DC012C9111962C93119726E02C930280EB
:1046E000F381E02D09950895E091B502F091B602AD
:1046F000309739F022E0DC012C930480F581E02D25
:10470000099508952091B3023091B4022817390712
:1047100071F09093B4028093B302E091B502F091EE
:10472000B602309721F00680F781E02D09950895B3
:104730002091B1023091B2022817390771F090939D
:10474000B2028093B102E091B502F091B6023097C7
:1047500021F00084F185E02D09950895FC01329641
:1047600080912901882321F08091DE029EE187FF5C
:1047700096E080E0915008F4089521912223D1F32E
:104780008F5FF8CF662301F1209129012223F1F0F8
:104790002091DE0227FF1AC0462F46954695469582
:1047A0004E3190F4677021E030E002C0220F331FD9
:1047B0006A95E2F7840F911DFC01828190E0282325
:1047C000392381E0232B69F480E00895FC013296BF
:1047D00008962191261721F0E817F907D1F7F4CFB1
:1047E00081E008959C01FC0132969FEF80E04191A9
:1047F000461751F09F3F19F4411101C0982F8F5F68
:104800008630A9F79F3F09F40895290F311D97FDC0
:104810003A95F90162830895FC0132960896219138
:10482000261303C0DF0111971C92E817F907B9F7A7
:104830000895E62FE695E695E695EE3168F4E80FE3
:10484000F92FF11D677021E030E001C0220F6A9559
:10485000EAF78281822B82830895E62FE695E6951A
:10486000E695EE3170F4E80FF92FF11D677021E045
:1048700030E001C0220F6A95EAF720958281282353
:104880002283089520912901222339F02091DE020C
:1048900027FF03C00E94192408950E94F22308955F
:1048A00020912901222339F02091DE0227FF03C045
:1048B0000E942D2408950E940C240895FC01329634
:1048C00080912901882351F08091DE0287FF06C084
:1048D0008EE1DF011D928A95E9F7089586E0F9CF10
:1048E00046E050E00E94012E21E0892B09F420E0EF
:1048F000822F089508950E947A240895811106C098
:1049000081E08093B7020E947B24089582E0F9CF72
:1049100083E08093B7020E947B2408950E947E2446
:10492000089581E08093B7020E947B2408950E943D
:1049300091240895089508950E949B240895089550
:1049400008950E949A240895CF930E949F240E9464
:1049500030120E94A024C0E08C2F0E946111892B8C
:1049600031F4CF5FC530C1F780E0CF91089581E089
:10497000FCCF85B7806885BF85B7806885BF0895FF
:104980001F921FB61F9211248F939F93AF93BF93D3
:104990008091B802811113C0809123039091240368
:1049A000A0912503B09126034196A11DB11D8093CE
:1049B000230390932403A0932503B0932603BF9170
:1049C000AF919F918F911F901FBE1F90189580915E
:1049D0002B03843031F10E940F051092B80288E158
:1049E00090E020E40FB6F894A895809360000FBE85
:1049F0002093600083B7817F846083BF83B7816029
:104A000083BF7894889583B78E7F83BF0FB6F89461
:104A1000A89580916000886180936000109260008A
:104A20000FBE08950E9480080E941605089582E036
:104A300084BD93E095BD9AEF97BD80936E00089575
:104A40002FB7F8948091230390912403A09125031C
:104A5000B09126032FBF08952FB7F89460912303D8
:104A60007091240380912503909126032FBF089510
:104A70009C014FB7F8948091230390912403A09157
:104A80002503B09126034FBF821B930B08957894A2
:104A90001F921FB61F9211248F939F93AF93BF93C2
:104AA0008091230390912403A0912503B0912603C4
:104AB0000196A11DB11D8093230390932403A0931D
:104AC0002503B0932603BF91AF919F918F911F90C3
:104AD0001FBE1F90189581E08093E00080E28093D4
:104AE000D8001092C9008FE19EE40197F1F700C051
:104AF000000087E090EBDC01809334039093350352
:104B0000A0933603B093370388E19CE00FB6F89486
:104B1000A895809360000FBE90936000FFCF88E15E
:104B20009CE00FB6F894A895809360000FBE909318
:104B30006000FFCF8091DC02089508959C0184E01D
:104B40008093E9009FEF8091E800915085FD06C0B9
:104B500085ED8A95F1F700009111F5CF8091E8007D
:104B600085FF0CC050E040E066E070E0C9010E94A3
:104B700045288091E8008E778093E8000895CF93D0
:104B8000DF93EC01809129018823B1F18091DE024D
:104B900087FF32C060E284E08093E9008FEF90915C
:104BA000E800815095FD06C095ED9A95F1F700005B
:104BB0008111F5CF8091E80085FF1BC0809129010C
:104BC00070E050E040E0811104C050E040E068E057
:104BD00070E0CE010E9445288091E8008E77809396
:104BE000E80080E2FE01ACEBB2E001900D928A9504
:104BF000E1F7DF91CF91089568E081E0CDCF809318
:104C0000B9027093BB026093BA0280912B03843087
:104C1000F9F48093E9008FEF9091E800815095FDC1
:104C200006C095ED9A95F1F700008111F5CF8091BE
:104C3000E80085FF0DC050E040E063E070E089EBE4
:104C400092E00E9445288091E8008E778093E800EA
:104C50000895BC0184E00E94FF250895BC0183E013
:104C60000E94FF250895CF93FC01603221F58091C9
:104C70002B03843001F5C091E900CF702091EC0046
:104C8000922F917020FD90E8C92B82E08093E9007B
:104C90008091E80080FF0CC050E040E060E270E0EE
:104CA000CF010E9445288091E8008E778093E8002C
:104CB000CF70C093E900CF91089580912A038111AC
:104CC00009C00E94242A0E94812A8091E200846007
:104CD0008093E200089510922A0308950E9491247F
:104CE00008956091270381E0611101C080E00E9476
:104CF0008824089590912B0381E0943009F080E09E
:104D0000609127030E948E24089542E061EC81E0C7
:104D10000E94A02942E261EC84E00E94A02942E2C4
:104D200061EC82E00E94A02942E260EC83E00E94F4
:104D3000A02990912B0381E0943009F080E06091EC
:104D400027030E947E24089580912D03833009F467
:104D500063C030F48130E1F1823009F4A0C00895DD
:104D60008A3009F48CC08B3009F471C0893009F0A5
:104D700052C080912C03813209F04DC080913003E4
:104D800090913103009719F0029709F044C0809187
:104D9000E800877F8093E8008091E80082FF37C0B9
:104DA0009091F3008091F200029731F48091F1002C
:104DB000813011F0863021F48091F1008093DC0283
:104DC0008091E8008B778093E8000E94D42923C06B
:104DD00080912C03813AF9F48091E800877F8093D9
:104DE000E8008091300390913103892B61F460E2F7
:104DF0008CEB92E070E00E94E3288091E8008B77D2
:104E00008093E800089560E090E080E0F3CF809127
:104E10002B038111C1CF089580912C03813AD9F7DA
:104E20008091300390913103892BA9F78091E8009C
:104E3000877F8093E8008091E80080FFFCCF80911D
:104E400029018093F1008091E8008E77BCCF80919A
:104E50002C03813201F78091300390913103892B2B
:104E6000D1F68091E800877F8093E8000E94D429E2
:104E700080912E03809329010E94800808958091DB
:104E80002C03813241F68091E800877F8093E8000F
:104E90000E94D42980912F038093DD020895809190
:104EA0002C03813A09F0B7CF8091E800877F809387
:104EB000E8008091E80080FFFCCF8091DD02C1CF47
:104EC00084B7877F84BF0FB6F894A895809160005F
:104ED000886180936000109260000FBE80E890E0CF
:104EE0000FB6F89480936100909361000FBE0E940A
:104EF000972408950E94242A0E94812AE2EEF0E07D
:104F000080818460808378940E94002D08958DE1D3
:104F100091E00E944823089580912B03853031F45D
:104F200080912B03853019F00E94122508950E946C
:104F3000E72480912903882399F30E94A4248823DD
:104F400079F30E942F280E948008EACFA0E2B0E007
:104F5000ECEAF7E20C94C12D80912B03843009F523
:104F600083E08093E9008091E80082FF1AC080917D
:104F7000E80090E085FF09C050E040E060E270E0AA
:104F8000CE0101960E94942891E08091E8008B77F1
:104F90008093E800992329F060E2CE0101960E94F7
:104FA000E91DA096E2E00C94DD2D0E94D82708951B
:104FB000292F33272330310521F168F421303105C1
:104FC00009F443C02230310509F444C090E080E088
:104FD00030E020E026C02132310551F12232310586
:104FE000A9F76330710590F7FB01EE0FFF1FE75340
:104FF000FE4F208131816A537E4FFB01808190E01A
:1050000010C099278130910581F0009729F002970F
:10501000E9F6E1E0F6E002C0E3E3F6E0849190E037
:105020009F01FA01318320830895E9E1F6E0F6CF8C
:105030006330710558F6660F771FFB01E153FE4F91
:105040002081318189E090E0ECCF82E190E022E99B
:1050500036E0E7CF8BE590E027E336E0E2CF80E172
:1050600089BD82E189BD09B400FEFDCF8091D800E1
:105070008F7D8093D8008091E00082608093E00073
:105080008091E00081FDFCCF0895AF92BF92CF9256
:10509000DF92FF920F931F93CF93DF936C01EB018D
:1050A0008A010E94F329F82E811123C001151105F0
:1050B00039F0F80180819181C81BD90BC80ED91E27
:1050C000B12CA12C2097A9F08091E80085FD22C089
:1050D0008091E8008E778093E80001151105A1F01A
:1050E000F80180819181A80EB91EB182A08285E06D
:1050F000F82E8F2DDF91CF911F910F91FF90DF90B0
:10510000CF90BF90AF9008950E94F3298823D1F2E9
:10511000F82EEFCFF60181916F018093F100219776
:10512000FFEFAF1ABF0ACECFAF92BF92CF92DF92FE
:10513000FF920F931F93CF93DF936C01EB018A01D2
:105140000E94F329F82E811123C00115110539F0B1
:10515000F80180819181C81BD90BC80ED91EB12CD2
:10516000A12C2097A9F08091E80085FD22C08091B4
:10517000E8008B778093E80001151105A1F0F80194
:1051800080819181A80EB91EB182A08285E0F82E9F
:105190008F2DDF91CF911F910F91FF90DF90CF90D6
:1051A000BF90AF9008950E94F3298823D1F2F82E82
:1051B000EFCF8091F100F60181936F012197FFEF0E
:1051C000AF1ABF0ACECFFC01809132039091330316
:1051D00086179707A0F06115710529F49091E800F2
:1051E0009E779093E80090E06115710551F491115C
:1051F00008C08091E80082FF34C080E00895BC01BF
:10520000F2CF80912B038823C1F18530C1F18091C9
:10521000E80083FD30C08091E80082FDEACF8091F4
:10522000E80080FFE1CF8091F3002091F200382F59
:105230006115710519F02830310558F091E02830DA
:10524000310509F090E02091E8002E772093E800E6
:10525000CBCF81918093F100615071092F5F3F4F57
:10526000E7CF80912B03882341F0853041F0809176
:10527000E80083FFBECF81E0089582E0089583E0D7
:105280000895FC01809132039091330386179707AC
:10529000A0F06115710529F48091E8008E77809364
:1052A000E80090E06115710551F4911108C08091FA
:1052B000E80082FF35C080E00895BC01F2CF809104
:1052C0002B038823C9F18530C9F18091E80083FD63
:1052D00031C08091E80082FDEACF8091E80080FF34
:1052E000E1CF8091F3002091F200382F6115710514
:1052F00019F02830310558F091E02830310509F0D7
:1053000090E08091E8008E778093E800CBCF849185
:105310008093F1003196615071092F5F3F4FE6CFC6
:1053200080912B03882341F0853041F08091E80083
:1053300083FFBDCF81E0089582E0089583E0089562
:10534000982F973028F08F708093E90081E00895BE
:105350009093E900242F762F50E0981731F0709148
:10536000EC002091ED005091F00021FD02C09F5F04
:10537000E8CF3091EB003E7F3093EB003091ED00B1
:105380003D7F3093ED003091EB0031603093EB00C6
:105390007093EC002093ED005093F0002091EE000C
:1053A00027FDE5CF80E0089580912C0387FF13C08F
:1053B0008091E80082FF06C08091E8008B7780939F
:1053C000E80004C080912B038111F2CF08958091F1
:1053D0002B038823D9F38091E80080FFF8CF8091D8
:1053E000E8008E77ECCF2091E4003091E50095E65F
:1053F000A9012091EC00822F817020FF06C08091CE
:10540000E80080FF06C080E008952091E80022FDBA
:105410001AC080912B03882389F0853089F0809110
:10542000EB0085FD0FC02091E4003091E5004217AC
:105430005307F9F29150E1F684E0089582E008956F
:1054400083E0089581E008950E94932A0E949B2A98
:10545000E0EEF0E0808181608083E8EDF0E0808123
:105460008F77808319BCA7EDB0E08C918E7F8C93F1
:1054700080818F7E808310922A0308950F931F935B
:10548000CF93DF930E94932A0E949B2AC8EDD0E01D
:1054900088818F77888388818068888388818F7DE1
:1054A000888319BC10922B031092270310922903B2
:1054B0001092280300EE10E0F80180818B7F80833A
:1054C00088818160888342E060E080E00E94A029BA
:1054D000E1EEF0E080818E7F8083E2EEF0E080817B
:1054E00081608083808188608083F80180818E7FE5
:1054F0008083888180618883DF91CF911F910F9194
:105500000895E8EDF0E080818F7E8083E7EDF0E0A4
:1055100080818160808384E082BF81E080932A0360
:105520000E943E2A0895E8EDF0E080818E7F80831E
:105530001092E20008951092DA001092E1000895AE
:105540001F920F920FB60F9211242F933F934F93F8
:105550005F936F937F938F939F93AF93BF93EF93DB
:10556000FF938091E10082FF0BC08091E20082FFF7
:1055700007C08091E1008B7F8093E1000E94FF2CA7
:105580008091DA0080FF19C08091D80080FF15C09B
:105590008091DA008E7F8093DA008091D90080FFBD
:1055A00096C080E189BD82E189BD09B400FEFDCFCE
:1055B00081E080932B030E945D268091E10080FFB3
:1055C00019C08091E20080FF15C08091E2008E7FBB
:1055D0008093E2008091E20080618093E2008091FC
:1055E000D80080628093D80019BC85E080932B039B
:1055F0000E9471268091E10084FF2BC08091E2001F
:1056000084FF27C080E189BD82E189BD89B5982FDB
:10561000917080FFFBCF8091D8008F7D8093D80060
:105620008091E1008F7E8093E1008091E2008F7E87
:105630008093E2008091E20081608093E20080919B
:105640002703882309F449C084E080932B030E9438
:105650007A268091E10083FF29C08091E20083FFD8
:1056600025C08091E100877F8093E10082E08093F4
:105670002B03109227038091E1008E7F8093E1003D
:105680008091E2008E7F8093E2008091E200806151
:105690008093E20042E060E080E00E94A0298091D7
:1056A000F00088608093F0000E946E26FF91EF91D9
:1056B000BF91AF919F918F917F916F915F914F912A
:1056C0003F912F910F900FBE0F901F90189519BC0E
:1056D00010922B030E946B2670CF8091E30087FD10
:1056E00093E090932B03B3CF1F920F920FB60F92BC
:1056F00011242F933F934F935F936F937F938F93D7
:105700009F93AF93BF93CF93DF93EF93FF93D0918A
:10571000E900DF708091EC00C82FC17080FDC0E807
:105720001092E9008091F000877F8093F0007894D8
:105730000E94B82B1092E9008091F000886080935D
:10574000F000CD2BCF70C093E900FF91EF91DF9176
:10575000CF91BF91AF919F918F917F916F915F9109
:105760004F913F912F910F900FBE0F901F90189562
:10577000AAE2B0E0EEEBFBE20C94C02D8CE293E0E9
:105780002091F100FC012193CF01F3E084339F07C6
:10579000B9F70E94A4268091E80083FF1EC1809182
:1057A0002C0390912D039A3008F017C1E92FF0E0F7
:1057B000E058F14D0C94732D803899F0823809F03F
:1057C0000CC1809130038F70873008F006C1809340
:1057D000E9008091EB0085FB882780F91092E900B1
:1057E00006C08091280390912903911182609091C5
:1057F000E800977F9093E8008093F1001092F10009
:105800008091E8008E77E5C0882309F4D3C0823008
:1058100009F0E3C080912E038111D6C0809130033E
:105820008F702FEF280F263008F0D7C08093E90043
:105830002091EB0020FFC8C0933031F48091EB0041
:1058400080628093EB00C0C09091EB0090619093D8
:10585000EB0021E030E001C0220F8A95EAF72093A7
:10586000EA001092EA008091EB008860EACF811193
:10587000B4C010912E031F778091E3008078812BB4
:105880008093E3008091E800877F8093E8000E9486
:10589000D4298091E80080FFFCCF8091E3008068EC
:1058A0008093E30082E0111183E080932B0395C085
:1058B0008058823008F091C080912E0390912F0380
:1058C0008C3D23E09207A1F583E08A838AE28983F5
:1058D0004FB7F894DE01139620E03EE051E2E32F4B
:1058E000F0E050935700E49120FF03C0E295EF7081
:1058F0003F5FEF708E2F90E0EA30C0F0C7968D9337
:105900009D932F5F243159F74FBF8091E800877F27
:105910008093E8006AE270E0CE0101960E94E328DD
:105920008091E8008B778093E80057C0C096E7CF5E
:105930006091300370913103AE014F5F5F4F0E9461
:10594000D527BC01892B09F448C09091E800977FC6
:105950009093E80089819A810E944129E1CF8038A3
:10596000E1F58091E800877F8093E800809127032C
:105970008093F10045CF811130C090912E03923079
:1059800060F58091E800877F8093E800909327037B
:105990000E94D42980912703882311F084E005C058
:1059A0008091E30087FDFACF81E080932B030E9472
:1059B000852613C080912E03813079F481E09330E5
:1059C00009F080E0809329031092E9008091E800BB
:1059D000877F8093E8000E94D4298091E80083FFAC
:1059E0000AC08091E800877F8093E8008091EB00F7
:1059F00080628093EB00AA96E3E00C94DC2D08957E
:105A0000CF9380912B038823A1F0C091E900CF7040
:105A10009091EC00892F817090FD80E8C82B109246
:105A2000E9008091E80083FD0E94B82BCF70C093FD
:105A3000E900CF91089587FB082E062687FD819502
:105A400067FD61950E94E82D0EF4919507FC819504
:105A50000895AA1BBB1B51E107C0AA1FBB1FA617B5
:105A6000B70710F0A61BB70B881F991F5A95A9F707
:105A700080959095BC01CD01089597FB072E16F4F3
:105A8000009407D077FD09D00E94292D07FC05D08E
:105A90003EF4909581959F4F0895709561957F4F45
:105AA0000895A1E21A2EAA1BBB1BFD010DC0AA1F5F
:105AB000BB1FEE1FFF1FA217B307E407F50720F077
:105AC000A21BB30BE40BF50B661F771F881F991FF2
:105AD0001A9469F760957095809590959B01AC013B
