:100000000C945F030C9497030C9497030C94970340
:100010000C9497030C9497030C9497030C949703F8
:100020000C9497030C9497030C9414270C94E827D2
:100030000C9490210C9497030C9497030C949703C1
:100040000C9497030C9497030C9497030C949703C8
:100050000C9497030C9417220C9497030C94970319
:100060000C9497030C9497030C9497030C949703A8
:100070000C9497030C9497030C9497030C94970398
:100080000C9497030C9497030C9497030C94970388
:100090000C9497030C9497030C9497030C94970378
:1000A0000C9497030C9497030C94970329001E005B
:1000B0001F0020002100220023002400250026002C
:1000C00027002D002E0000002A004C002B001400F9
:1000D0001A0008001500170000001C0018000C0092
:1000E000120013002F00300031004A0039000400D4
:1000F0001600070009000A0000000B000D000E00AA
:100100000F0033003400000028004D00E1001D0006
:100110001B00060019000500000068001100100017
:10012000360037003800E50052000000E000000013
:10013000E20000002C00215200002C000000E7002B
:1001400000000000E400500051004F0035003A006C
:100150003B003C003D003E003F00400041004200AB
:100160004300440045000000010001000100207828
:100170002178237824782578000026782778287835
:1001800001004600470048000100010001002978F5
:100190002A780100010001000000010001000100B7
:1001A00001000100010000000100007C01000100CD
:1001B00001000100010001000000690001000100D0
:1001C00001000100010001004B00000001000000DF
:1001D000010000000100010000000100000001001A
:1001E00000000000010001004E00010001000100BC
:1001F00001000100010001000100010001000100F7
:1002000001000100010000000100010001000100E7
:1002100001000100010001000000010001000100D7
:1002200001000100010001000100010001000100C6
:1002300001000100010001000000010001000100B7
:1002400001000100010000000100010001000100A7
:100250000100010001000100000001000100010097
:100260000100010001000100010000000100000088
:100270000100000001000100000001000000010079
:100280000000000001000100010001000100010068
:100290000100010001000100010001000100010056
:1002A0000100010001000000010001000100010047
:1002B0000100010001000100000001000100010037
:1002C0000100010001000100010001000100010026
:1002D0000100010001000100000001000100010017
:1002E0000100010001000000010001000100010007
:1002F00001000100010001000000010001000100F7
:1003000001000100010001000100000001000000E7
:1003100001000000010001000000010000000100D8
:1003200000000000010001000100010000020406BD
:10033000080A0C0D0B090705030100010101010169
:10034000010101010202020202020202020303038E
:10035000030303030304040404040404050505055E
:10036000050606060606070707070708080808091E
:100370000909090A0A0A0B0B0B0C0C0C0D0D0D0ECA
:100380000E0E0F0F0F10101111111212131314145F
:10039000151516161717181819191A1A1B1B1C1DD4
:1003A0001D1E1E1F2020212222232424252626272D
:1003B0002829292A2B2C2D2D2E2F3031323233345F
:1003C00035363738393A3B3C3D3E3F404142434465
:1003D00045464748494A4C4D4E4F50515354555647
:1003E00058595A5B5D5E5F616264656668696B6CF3
:1003F0006D6F7072737577787A7B7D7E808283856E
:1004000087888A8C8E8F91939596989A9C9EA0A2AD
:10041000A3A5A7A9ABADAFB1B3B5B7BABCBEC0C2B7
:10042000C4C6C9CBCDCFD1D4D6D8DBDDDFE2E4E77B
:10043000E9EBEEF0F3F5F8FAFDFF00000000000034
:1004400000002A2B2800000000000000000000002F
:10045000000000000029000000002C1E3420212292
:1004600024342627252E362D3738271E1F202122FB
:10047000232425263333362E37381F040506070874
:10048000090A0B0C0D0E0F10111213141516171864
:10049000191A1B1C1D2F3130232D350405060708A2
:1004A000090A0B0C0D0E0F10111213141516171844
:1004B000191A1B1C1D2F3130354C000000000000A4
:1004C000000000000000000000000000000000002C
:1004D00000000000000000000000000000007E0F8F
:1004E00000D4FFFFFFC7000000782A0353006B0011
:1004F00065006C00650074006F006E003600380007
:100500005F0075006E0064006500720067006C009B
:100510006F0077000000180373006B0065006C002B
:10052000650074006F006E006B00620064000000E4
:100530000403090409025B00030100A0FA09040096
:1005400000010301010009211101000122440007FB
:1005500005810308000109040100020300000009ED
:10056000211101000122220007058203200001075A
:100570000503032000010904020001030000000933
:10058000211101000122B600070584032000011299
:10059000010002000000086C73726E00010102008D
:1005A000010660FF0961A1010962150026FF00959F
:1005B00020750881020963150026FF009520750843
:1005C0009102C005010902A10185020901A10005EE
:1005D00009190129081500250195087501810205F1
:1005E00001093009311581257F95027508810609B9
:1005F000381581257F950175088106050C0A38029A
:100600001581257F950175088106C0C00501098007
:10061000A101850319012AB700150126B70095012C
:1006200075108100C0050C0901A101850419012A7A
:10063000A002150126A002950175108100C00501D8
:100640000906A1018506050719E029E7150025011E
:100650009508750181020507190029EF150025018C
:1006600095F07501810205081901290595057501A7
:100670009102950175039101C005010906A10105CB
:100680000719E029E71500250195087501810295F4
:1006900001750881010507190029FF150026FF00D3
:1006A0009506750881000508190129051500250121
:1006B000950575019102950175039101C000112402
:1006C0001FBECFEFDAE0DEBFCDBF04B603FE18C019
:1006D0008091130390911403A0911503B091160318
:1006E0008730904BA740B04B59F4109213031092EF
:1006F00014031092150310921603E0E0F8E3099535
:1007000011E0A0E0B1E0E0E1F6E502C005900D9255
:10071000A43BB107D9F723E0A4EBB1E001C01D92DF
:10072000A331B207E1F70E94E9120C949F2A0C94BE
:1007300000008430C8F46530B8F44031A8F4E62FE6
:10074000F0E095E0899FE00DF11D112484E0EE0FAB
:10075000FF1F8A95E1F7E40FF11DEE0FFF1FE4552F
:10076000FF4F85919491089581E090E0089581E094
:1007700008950E94B703089581E008950E94B70389
:1007800008950E94BE03089508950E94C403089529
:10079000A6E0B0E0EEECF3E00C94D32949835A8351
:1007A0009E833091BB0189819A8131111AC03E81AB
:1007B000332399F0222389F00E943C09182F682FD7
:1007C00089819A810E94190969817A81812F0E9409
:1007D0004D102696E3E00C94EF290E942A09182F69
:1007E000F3CF0E943C0969817A81F1CFFC01262F69
:1007F0004081518162817381848195810E94C80307
:100800000895CF93DF93EC0161E00E94F603BE01EF
:100810000E94B903DF91CF910895CF93DF93EC014C
:1008200060E00E94F603BE010E94C503DF91CF91F4
:10083000089508950E9415080E9419042FEF84E37B
:100840009CE0215080409040E1F700C000000895F6
:100850000E941A040E943B2208950E941A040E94DA
:100860005F2208950F931F93CF93DF938C0161E074
:100870000E94F603EC01B8010E940B1A811106C018
:1008800080E0DF91CF911F910F910895B801CE01C3
:100890000E94C1038823A1F3B801CE010E944A1F20
:1008A000882371F3B801CE010E947C1B882341F399
:1008B000B801CE010E94BC1E882311F3B801CE01FD
:1008C0000E9420198823E1F2B801CE010E948E1FF8
:1008D0008823B1F2F8018581882361F0C330FCE7F9
:1008E000DF07E9F058F4C115ECE7DE07A9F0C130E5
:1008F000DC47B9F0C8010E94BC03C3CFCB358CE7FD
:10090000D807A9F0CC35ECE7DE0771F0CA35DC4733
:1009100089F70E94940DEECF0E942804B1CF0E9467
:100920009C0D0E942D04ACCF0E948A0DE3CF0E9443
:10093000980DE0CF0E946C210E94C5040E949C1774
:1009400008950E94C9040E9412190E9471210895FD
:10095000089581E008950895CF93DF93D82F0E94E2
:10096000A904C82F882319F08D2F0E94AB048C2F67
:10097000DF91CF9108950895CF93C82F0E94A804C6
:100980008C2F0E94AC04CF91089580E00E94BC049B
:1009900008950E94DC1F0E94BC040895CF930E941A
:1009A000DC1FC82F8091B6018C1779F0C093B60177
:1009B0000E94FC216093B7017093B8018093B90144
:1009C0009093BA018C2F0E94BC04CF910895ADE0A2
:1009D000B0E0EDEEF4E00C94D429488759876A879B
:1009E0007B878C879D8791110E94C20C1F8286E0B5
:1009F000FE013896DE01119601900D928A95E1F77D
:100A00008D8181110DC029813A814B815C816D817D
:100A10007E818F810E94F50B2D96E2E00C94F029E7
:100A2000CE0101960E9401048111EDCFF5CFFC01AA
:100A30002481213021F4808191810E9469090895E7
:100A4000662329F00E9480130E94531408950E9487
:100A5000DA13FACFCF93C82F8823B9F08CEF8C0F1D
:100A6000813AA8F46C2F80910001909101010E94BD
:100A70006F20882329F08C2F0E94820C0E94FB0C8F
:100A80008C2F0E947A0C0E94FB0CCF91089580E27B
:100A90008C0F883048F4C77081E001C0880FCA9578
:100AA000EAF70E94A50CEFCFEBE5EC0FE33040F442
:100AB000F0E0EF5AFE4F808190E00E941120E5CFD8
:100AC000E8E5EC0FEB3150F4F0E0EE0FFF1FE55ED0
:100AD000FE4F808191810E943620D7CF83E38C0F17
:100AE000833198F661E08C2F0E942005CECF8823B9
:100AF00081F19CEF980F913A28F40E94820C0E9499
:100B0000FB0C089590E2980F983050F4877091E0B4
:100B100001C0990F8A95EAF7892F0E94AB0CEFCF9D
:100B20009BE5980F933028F490E080E00E9411201C
:100B3000089598E5980F9B3128F490E080E00E949A
:100B40003620089593E3980F933118F460E00E94E3
:100B5000200508951F93CF93DF93182FEB010E9478
:100B60002A05209739F4812F0E947705DF91CF91D4
:100B70001F9108958FE99FE00197F1F700C00000F1
:100B80002197EFCF70E060E0893311F460E570E009
:100B90000E94AA050895882321F00E94A50C0E94B6
:100BA000FB0C0895882321F00E94AB0C0E94FB0CE3
:100BB0000895B0E0A0E0EFEDF5E00C94CD296C01D4
:100BC000D62FC72FFC011581068102950F700E9458
:100BD0009B0CE82E8823E9F0E12E1123D1F08C2F15
:100BE000807F803451F080E28D0F8830F8F0011161
:100BF00004C08C2F807E8032C9F08091BB0282FFBE
:100C000015C082E00E945E0D0E949B0C91E0E82ED0
:100C1000E926BC2EB2949FE0B922FBE0FB15B8F1A7
:100C2000EB2DF0E0EF55F54D0C94B729E12CF1CF09
:100C30000C2F0F70C07F11F00295007F112399F0E7
:100C4000002359F080E28D0F883010F0D11107C0D9
:100C5000802F0E94A50C0E94FB0C8D2F5AC0802F64
:100C60000E94B50CF8CF8D2F0E947705002379F0F4
:100C700080E28D0F883010F0D11104C0802F0E94C7
:100C8000AB0C03C0802F0E94BB0C0E94FB0CEB2D11
:100C9000E850FF0B349720F40E94DC1F0E94BC0434
:100CA000EE2089F00E94970C80FD0DC0F6011582A0
:100CB0000E94910C0E948D08C6010E94DC070E94D0
:100CC000910C0E949908CDB7DEB7E9E00C94E929B0
:100CD0002C2F2F70F22EC07FC03219F0F29480EFCB
:100CE000F822DD2341F0D130D1F1112309F444C0C1
:100CF0000023F1F0B2CF8091BB0282FD15C0112319
:100D000059F0FF2029F08F2D0E94A50C0E94FB0CAA
:100D100080E00E942A05BBCF80E00E947705FF207B
:100D200009F4B5CF8F2DABCF112369F0011104C0A9
:100D30008F2D0E94CB05ABCF013009F0A8CF8F2DAE
:100D40000E94D90CA4CF0111A2CF8F2D0E94D205F1
:100D50008F2D0E94E50C8F2D0E94C90C98CF112376
:100D600021F0063008F093CFE3CF053008F08FCFA5
:100D70008F2D0E94D2058BCF0023D1F3D93349F4B4
:100D80003FEF87EE93E0315080409040E1F700C0A4
:100D900000008D2F0E9477057ACF8C2F869586953F
:100DA000837069F0813009F072CF8D2F9C2F937082
:100DB000111102C080E090E00E94362068CF8D2F94
:100DC0009C2F9370111102C080E090E00E941120CE
:100DD0005ECF612F8D2F0E94200559CF8C2F8370FD
:100DE00079F5111154CF4D2F429546954770440F18
:100DF000440F8D2F8F70042E01C0880F0A94EAF7DC
:100E00002D2F2071D4FF07C02FE030E001C0220F4A
:100E10004A95EAF72095C695C695C370822BC230D5
:100E200049F058F4C13019F00E94690830CF0E948F
:100E300063082DCF0E946F082ACF0E94600827CF39
:100E40008695112311F08C2F8170882309F41FCF10
:100E50004D2F429546954770440F440F8D2F8F704C
:100E6000042E01C0880F0A94EAF72D2F2071D4FFB9
:100E700007C02FE030E001C0220F4A95EAF7209525
:100E8000C695C695C370822BC23049F058F4C13064
:100E900019F00E94B808FBCE0E94B208F8CE0E945A
:100EA000BE08F5CE0E947B08F2CECF70112329F048
:100EB0008C2F0E948D088D2F3CCF8D2F0E94D20544
:100EC0008C2F0E949908E3CED23F41F160F4D03FCD
:100ED000B9F0D13F81F0112309F446C00111BDCE14
:100EE0008C2F8F711FC0D33F01F1D43FA1F78091A8
:100EF000BB0282FD24C08C2F8F71112311F312C00D
:100F0000112341F0053008F0C2CE8C2F8F710E9462
:100F1000A608BDCE063008F0BACEF7CF8C2F8F7161
:100F20001111CFCF0E948D08B2CE112329F08C2F42
:100F30008F710E948408ABCE0E948008A8CE112336
:100F400049F0CF718C2F0E948D0863E08C2F0E9496
:100F5000400D9DCE81E00E945E0D023008F497CED8
:100F600082E00E945E0D93CE002359F0D93309F040
:100F700010CFEFEFF7EE23E0E150F0402040E1F733
:100F800006CF8C2F8F719DCF0F931F93CF93DF933D
:100F9000EC01688179818D810E9474098C010E9425
:100FA000C4080E945F08B801CE010E94D905DF91F4
:100FB000CF911F910F910895CF93DF93EC018C8116
:100FC000882399F0CE010E943204811111C00E9441
:100FD0009B0C882351F08D81882339F08091BB02CE
:100FE00082FF03C082E00E945E0DDF91CF910895E1
:100FF000CE010E94C407CE010E940D04F6CF90E0FE
:1010000080E00E94112090E080E00E9436200E9443
:10101000C20C0E94FB0C0E946F140E94531408958E
:101020000E948A0C0E94FF0708950E94B20C0E9441
:101030001008089592959F70963091F058F4925F41
:101040009F70923058F4803F19F030F4883E30F4AD
:1010500081E008959A5FF4CF843FD1F380E0089552
:10106000883EB0F3813FD1F7F3CFFC0124812223E6
:1010700039F0808191810E9469090E941A080895BF
:1010800080E00895A6E0B0E0E8E4F8E00C94D4290C
:101090002696E2E00C94F029A7E0B0E0E2E5F8E063
:1010A0000C94D4292796E2E00C94F02908950E942C
:1010B000560808950E9457088093DB01089508950B
:1010C0000E945A0808959091DB01892B0E945A08CA
:1010D00008959091DB0189230E945A080895909108
:1010E000DB0189270E945A0808950E945608089536
:1010F0000E94750808950E9478088093DA01089587
:1011000080E00E947B08089591E001C0990F8A95C4
:10111000EAF7892F0E947B08089521E030E001C0A2
:10112000220F8A95EAF78091DA01822B0E947B08D0
:10113000089521E030E001C0220F8A95EAF720955A
:101140008091DA0182230E947B08089521E030E03B
:1011500001C0220F8A95EAF78091DA0182270E9466
:101160007B0808959091DA01892B0E947B080895ED
:101170009091DA0189230E947B0808959091DA0109
:1011800089270E947B0808950895262F277091E0F3
:1011900001C0990F2A95EAF723E0769567952A957D
:1011A000E1F7FB01EE0FFF1FE60FF71FE40FF51F3E
:1011B00050E040E0682F70E08191DF0111979B01C2
:1011C000042E02C0369527950A94E2F721702195E6
:1011D0002827292328272C934F5F5F4F4330510541
:1011E00059F70895A82FA77023E0969587952A951B
:1011F000E1F7FC01EE0FFF1FE80FF91FE60FF71FE5
:1012000050E040E080E0219130E00A2E02C03695A7
:1012100027950A94E2F721703327042E01C0220F8C
:101220000A94EAF7822B4F5F5F4F4330510559F71D
:101230000895262F953068F4803158F430E1939F5B
:10124000B0011124680F711D4CEB51E0822F0E94F8
:10125000C5080895953070F4803160F440E1949FA2
:10126000900111246CEB71E0820F932F911D0E946D
:10127000F208089580E00895CF92DF92FF920F93D5
:101280001F93CF93DF936C010091DA018091DB0112
:10129000082BC3E0D0E010E0FC2EC8010C2E02C0E9
:1012A000959587950A94E2F780FD0CC02197A0F7E9
:1012B000F12C8F2DDF91CF911F910F91FF90DF9037
:1012C000CF900895B6018C2F0E945910019771F3A9
:1012D000F0CFCF93DF93EC010E943C09BE010E9446
:1012E0005910DF91CF9108951F93CF93DF93EB01B6
:1012F0009091BB01992339F0CB010E946909DF91DC
:10130000CF911F910895882369F0CB010E943C0979
:10131000182F682FCE010E941909BE01812F0E944B
:101320005910EDCFCB010E942A09182FF6CFE1E02A
:10133000F0E0DF0102C0AA0FBB1F6A95E2F7BD0112
:10134000DF0102C0AA0FBB1F4A95E2F76A2B01C05A
:10135000EE0F2A95EAF7962F9823961302C08E2B4C
:101360000895E0958E230895242F462F682F8091AD
:10137000DA010E9497090E947B0808951F93CF937A
:10138000DF93C091DC0117E08091DD018C1304C074
:10139000DF91CF911F910895D0E01C9FF0011D9F18
:1013A000F00D1124E252FE4F2081318142815381A0
:1013B0006481758186810E944C082196C770E4CFB4
:1013C0002091160230911702409118025091190293
:1013D00060911A0270911B0280911C020E944C08BD
:1013E0000895CF93DF9380911C02807F09F04DC058
:1013F00080911B02882309F448C0E091DC015091E0
:10140000DD01C0911702D09116026091180270910F
:10141000190247E05E17C9F18E2F90E0E49FF001BA
:101420001124E252FE4F2481222391F1489FF001C2
:10143000499FF00D1124DF01A252BE4F11962C914D
:1014400011972C1325C02C912D1322C015962C9189
:10145000159721111DC012962D913C91261B370B1B
:10146000283C3105A8F480911C028F708061809324
:101470001C02EC51FE4F80818F708061808386E179
:1014800092E00E94DC070E94BE09DF91CF9108958F
:10149000FC013196E770BECF482F2091DC0190917E
:1014A000DD0157E0291302C080E0089530E0529F2B
:1014B000F001539FF00D1124E252FE4F8181681319
:1014C00006C08081481303C085818111EECF2F5F54
:1014D0003F4F2770E7CFA4E1B0E0E1E7FAE00C94DA
:1014E000CA298C0186E0F801DE011F9601900D9259
:1014F0008A95E1F7F8018481E58096E1A92E92E0D2
:10150000B92E90911A0291111FC08823D1F0EE20BC
:10151000A9F0C8010E943508F82E882379F087E0E9
:10152000F801D50101900D928A95E1F7C5010E945D
:1015300017050E94F1090E94E0095FC0C8010E94DE
:10154000DC07FF24F39459C0C080D180828093804F
:10155000F0901B022091180230911902A401421B45
:10156000530BFF2009F4F9C0483C510508F0A7C00F
:10157000882309F442C09091170280911C02282F01
:10158000207F09F05CC09D1116C090911602C9120F
:1015900012C0E1104EC08F70806180931C020E94C7
:1015A000E00986E192E00E94DC0780911C02F801CC
:1015B0008683F12C22C0E1103CC06D2D8C2D0E9441
:1015C0004C0A6D2D8C2D0E944C0AE82E8111F1CF12
:1015D000CF86D88A8F8598890E946909292F2295FC
:1015E0002F70243078F49F702230A8F09923B9F03E
:1015F000F8019681907F99F4FE2C8F2D6496ECE093
:101600000C94E6292A5F2F70223068F0C8010E94EE
:10161000DC07EF2CF1CF992311F0882369F3805E6A
:10162000883050F3F3CF803F38F3815F833070F719
:10163000E3CF80911C02816080931C02BACF9D1180
:1016400013C090911602C9120FC0E1100DC086831D
:10165000C8010E94DC0787E0F801A6E1B2E0019032
:101660000D928A95E1F767CFC8010E94350888235B
:1016700009F464CFEE2009F461CF80911C0280321E
:1016800088F02091160230911702398728879B86AF
:101690008A8690911A029C871D868E87CE010896B5
:1016A0000E94DC0787E0F801A6E1B2E001900D920C
:1016B0008A95E1F70E94F1090E94E00942CF9091DA
:1016C0001C02292F207FA1F4682D9A8A898AA601FD
:1016D0007A899E2D0E94420886E192E00E94DC07F2
:1016E00087E0F50111928A95E9F70E94E00961CF40
:1016F000882309F482CF809117028D1110C0809148
:101700001602C8120CC0E1100AC09683C8010E94DC
:10171000DC0787E0F50111928A95E9F76ECFC801E1
:101720000E943508882309F409CFEE2009F406CF7A
:1017300080911C02803208F4B5CF209116023091BE
:1017400017023A8329839C828B8290911A029D838F
:101750001E828F83CE010196A3CF483C5105B8F578
:10176000882309F4EECEFE2CEE2009F4E7CE80911A
:1017700017028D111EC080911602C8121AC08091E6
:101780001C0280FD0DC0982F907F51F08683903F02
:1017900009F45ECF982F907F905F8F70892B57CF81
:1017A00087E0F801A6E1B2E001900D928A95E1F799
:1017B00024CFC8010E943508811174CF80911C028A
:1017C000816080931C02C8010E94DC0716CF682D3F
:1017D0009A8A898AA6017A899E2D0E94420887E00A
:1017E000F50111928A95E9F7A6CEAEE0B0E0EBEFF5
:1017F000FBE00C94D329288739874A875B876C875D
:101800007D878E87CE0108960E946B0A8823B1F0EF
:101810006C85662341F0288539854A855B857D8501
:101820008E850E944C0817E08091DC019091DD01CB
:1018300089133DC02E96E3E00C94EF2987E0FE016A
:101840003896DE01119601900D928A95E1F78C850C
:10185000882349F32091DD0130E0C90101968770AA
:1018600099274091DC014817190699F097E0929F5B
:10187000D001939FB00D1124A252BE4FFE013196AC
:1018800001900D929A95E1F78093DD010E94BE09C7
:10189000CACF0E9415081092DD011092DC0187E08A
:1018A000E6E1F2E0DF011D928A95E9F7BCCF819F66
:1018B000C001112482529E4F0E946B0A882309F4B2
:1018C000B9CFE091DC011E9FF0011124E252FE4FDE
:1018D00020813181428153816481758186810E949A
:1018E0004C088091DC0190E00196877099278093E5
:1018F000DC019ACF682F80910001909101010E9434
:10190000EF200895682F80910001909101010E94BD
:10191000FD20089580910001909101010E940B210A
:10192000089580913D0286958695869508958091CB
:101930003D028770089590913D02977081E009F40F
:1019400080E0089580916102089590916102892B51
:1019500080936102089580959091610298239093FD
:101960006102089510926102089590916002892B9E
:1019700080936002089580959091600298239093DF
:101980006002089510926002089508950E94C50CA7
:10199000089590913E02292F282331F080958923C4
:1019A00080933E020E94C60C089508950E94D50CB3
:1019B000089590913F02292F2823281729F0982B6A
:1019C00090933F020E94D60C089590913F02292FD8
:1019D000282331F08095892380933F020E94D60C02
:1019E000089580913F02882329F010923F0280E001
:1019F0000E94D60C0895CF93DF93E0910001F091FF
:101A00000101809161028083E0910001F091010168
:101A1000808190916002892B808390913F0299236D
:101A200081F0E0910001F09101018081892B808398
:101A300080910001909101010E945B2081110E9420
:101A4000F10CC0910001D091010140E250E06DE144
:101A500072E0CE010E94312A892B59F080E2FE010A
:101A6000ADE1B2E001900D928A95E1F7CE010E94BE
:101A7000E91FDF91CF91089508950E943C0D0895CC
:101A80009091BB0292FF11C098E0899F90011124B0
:101A9000622B60933D020E948D0880913D028695E5
:101AA000869586950E943D0D08950E948D080895A3
:101AB00010923D0280E00E943D0D089590913D02FC
:101AC0008095892380933D02282F277069F4891718
:101AD00059F09091BB0292FF07C086958695869536
:101AE0000E9499080E94580D08959091BB0292FBA4
:101AF000222720F9281769F080FB92F99093BB0206
:101B00008091BA029091BB020E94BE0D82E00E94B9
:101B10005E0D08958091BB0282FB882780F991E0D9
:101B200089270E94750D089581E00E94750D089522
:101B300080E00E94750D08956FEF7FEF90E080E0E8
:101B40000E94892A089590E080E00E94552A863EEE
:101B50009E4F19F40E94A319089580E0089582E031
:101B600090E00E94472A089583E090E00E94472A6F
:101B7000089584E090E00E94552A0895BC0184E015
:101B800090E00E94892A0895AB01BC018FE090E0AB
:101B90000E947D2A0895AB01BC0183E190E00E9480
:101BA0007D2A089560E070E0CB010E94CB0D08957E
:101BB00060E070E0CB010E94C40D0E94D20D089538
:101BC000A8E0B0E0E6EEFDE00C94D42966EE7EEFEE
:101BD00090E080E00E94892A60E082E090E00E942C
:101BE0006B2A60E083E090E00E946B2A1092DB0198
:101BF00060E074E184E090E00E94892A60E086E081
:101C000090E00E946B2A6FEF87E090E00E946B2AC1
:101C100040E050E0BA0188E090E00E947D2A60E058
:101C200084E290E00E946B2A60E087E190E00E94ED
:101C30006B2A60E08CE090E00E946B2A60E08DE00F
:101C400090E00E946B2A19821A821B821C821D82DC
:101C50001E821F82188648E050E068E170E0CE01E5
:101C600001960E945B2A40E050E0BA0180E290E0D9
:101C70000E947D2A80E00E94BC190E94EB190E94FC
:101C8000D80D2896E2E00C94F0290E94E00D08950A
:101C9000682F8EE090E00E946B2A0895A6E0B0E0E5
:101CA000E4E5FEE00C94D2290E94F0218C018091A1
:101CB0006202909163028017910781F019821A8263
:101CC0000E94F021682F49815A81792F80E090E0AD
:101CD0000E94E70410936302009362022696E4E0F8
:101CE0000C94EE290E94FC2160937202709373029F
:101CF000809374029093750260936E0270936F02EA
:101D000080937002909371020895089508950E943F
:101D1000850E089508950E948A0E08958FE491E13A
:101D20000E94F6120E94860E0E94870E089581E09E
:101D300008950E94970E08950E94970E08950895A1
:101D400008950E949F0E0E94A00E08950E946E1199
:101D50000E94BB0408950E94E7210E94FB190E9483
:101D60004A120E94A60E0E94BE180E948B0E089571
:101D7000A6E0B0E0EEEBFEE00C94C8290E94990EBC
:101D800081110AC00E944E0E0E9491140E94CE043E
:101D90002696EEE00C94E4290E94601224E6822E3E
:101DA00022E0922E640110E0F601E190F1906F01C3
:101DB000812F0E9491111F5F153009F44BC0E81666
:101DC000F90691F38091760281FD0E949A110E949A
:101DD0009C0E782E10E066246394812F0E9491114E
:101DE0007C01F401A190B1904F018A159B0561F12E
:101DF00000E0CC24C394D12CAE24BF24C5018C2197
:101E00009D21892BC1F07720B1F009831A830E94AC
:101E1000F0219C838B836D8221E0C7018C219D2161
:101E2000892B09F420E049815A816B817C818D8165
:101E3000922F0E94E7040F5FCC0CDD1C0031F1F6FD
:101E4000F4013297F182E0821F5F153031F60E9473
:101E5000720E9ACFE816F90609F0B4CF93CF1F930C
:101E6000CF93DF930E945E10EC01C11580E5D80787
:101E7000F0F5C11580E4D80708F09CC0C03ED1053C
:101E800020F5CD3CD10508F082C0C83AD10578F4E0
:101E9000C53AD10508F073C0C130D10519F12097BA
:101EA00009F1C430D105F0F4D0E0C0E01BC0C33C60
:101EB000D105D0F7C85AD0E0CC0FDD1FCC5ADE4F89
:101EC0000990D881C02DD4640DC0C11580E2D80717
:101ED00008F0D1C0C11581E0D80708F05AC0C83E4B
:101EE000D10510F7CE01DF91CF911F910895C03633
:101EF00082E5D80718F5C03482E5D80708F06BC032
:101F0000C03282E5D80708F05FC0C11582E5D80766
:101F100008F497C02C2F2695269580E2289F9001E3
:101F200011248C2F8370C1E0D0E002C0CC0FDD1FE4
:101F30008A95E2F7C22BD32BDD68D4CFC03A82E575
:101F4000D80760F4C03882E5D80708F459C0CF71CB
:101F5000D0E0DC2FCC27C46FD06AC4CFC03C82E570
:101F6000D80708F462C0C03E82E5D80708F09CCFCD
:101F7000DC2FCC27CC27DF71C06FD06AB3CFC55A16
:101F8000D0E0C657DE4FC881D0E0D064ABCFD0657B
:101F9000A9CF8D2F0E940011182FCE0199270E94E2
:101FA0005E10C12FD0E0DC2FCC27CC27DF71C82BEF
:101FB000D92B98CFCE0199270E945E10CC27DF70D5
:101FC000C82BD92BD06A8ECFCF71D0E0DC2FCC2795
:101FD000C16FD06A87CF2C2F26952695277080E277
:101FE000289F900111248C2F8370C1E0D0E002C0A3
:101FF000CC0FDD1F8A95E2F7C22BD32BDC6872CFA2
:102000002C2F26952695277080E2289F9001112479
:102010008C2F8370C1E0D0E002C0CC0FDD1F8A9509
:10202000E2F7C22BD32BDA685DCF8C2F8F710E9421
:102030000011C82FD0E0DC2FCC27CC27DF71D06275
:1020400051CF8C2F8F710E94001155E0D695C79506
:102050005A95E1F7CF70D0E0DC2FCC27282F30E065
:1020600084FF05C044E0220F331F4A95E1F7C22BDD
:10207000D32BD06937CF8D2F8F710E940011182F6D
:10208000CE0199270E945E10C12FD0E0DC2FCC2713
:10209000CC27DF71C82BD92BD2CF462F753030F427
:1020A000603120F4672F0E94D41D089590E080E0F5
:1020B00008950E944D100E942F0F089582389105B7
:1020C000B9F1B0F48133910509F47DC048F4893247
:1020D000910509F46DC08A32910509F47BC0089519
:1020E0008533910509F45FC08933910509F108959D
:1020F000833E9105D9F138F4803E910529F1823E65
:10210000910579F10895863E9105D9F1873E9105B3
:1021100009F43EC0843E910541F52091BB0221FFA8
:1021200024C08091BA0284FD19C087EE90E0089522
:102130002091BA02237009F05AC02091BB0223FFFC
:1021400014C089E290E008952091BA0220FD38C0C1
:102150003091BB0230FF09C024FF43C090E080E013
:1021600008952091BA0222FDF7CF08952091BA0276
:1021700022FD3AC03091BB0230FD39C024FFF5CFBB
:10218000EDCF2091BA0223FFF0CF24FDE7CFCDCFD2
:102190002091BA0223FD2EC03091BB0231FFEECF59
:1021A00084EE90E008952091BA0225FFDECFC9CFDA
:1021B0002091BA0225FD21C02091BB0223FFD5CF7B
:1021C00089E390E0D2CF2091BA0226FFCECF8AE2F7
:1021D00090E008952091BA0226FFC7CF81E390E0F6
:1021E000089583EE90E0089582EE90E0089580EEE9
:1021F00090E0089586EE90E0089585E390E00895DC
:102200009091BA0292FF10C041E0282F247124302F
:1022100009F040E031E0282F2871283009F030E043
:10222000431711F02CE0822793FF10C041E0282FC4
:102230002471243109F040E031E0282F2871283141
:1022400009F030E0431711F02CE082273091BB02F7
:1022500030FF10C051E0282F2171213009F050E0EB
:1022600041E0282F2871283009F040E0541711F080
:1022700029E0822731FF10C041E0282F2171213150
:1022800009F040E031E0282F2871283109F030E0D2
:10229000431711F029E0822794FD877E089580E09E
:1022A00008950E949C0D08950E9460122FEF86E70A
:1022B00091E0215080409040E1F700C000000E9472
:1022C000601280E00E94911180FF04C00E945111B1
:1022D0000E943B2208950E94541108950E94A30D6C
:1022E000811102C00E94450E0E94AF0D80937602BC
:1022F0000E94B90D9093BB028093BA020E946B11A9
:102300000E94B40D0E9460088091DA010E94780852
:10231000089508950E948911089508950E948D11CD
:102320000895E82FF0E0EE0FFF1FEA53FD4F808184
:1023300091810895089580EA8A95F1F7089500C083
:1023400008950E949B110895F894E82FE295EF708C
:10235000F0E031A1282F2F7081E090E001C0880FBC
:102360002A95EAF7982F9095932391A392A1892B10
:1023700082A3789408950F931F93CF93DF93CDE9B1
:10238000D1E089918F3F11F00E94A41181E0C23AFF
:10239000D807B9F7CDE8D1E00DE911E089918F3F79
:1023A00011F00E94A4110C171D07C1F7DF91CF9106
:1023B0001F910F910895AF92BF92DF92EF92FF921B
:1023C0000F931F93CF93DF938C01D62EC62FD0E0AF
:1023D000CE0183569E4F7C01FC0120812F3F09F4E2
:1023E0004CC0F894E22FE295EF70F0E031A12F702D
:1023F00081E090E001C0880F2A95EAF7932F982B8F
:1024000091A392A18095892382A378940E949F1121
:10241000EDE8F1E041E050E0B12CA12C21912F3FFB
:10242000B1F1A22FA295AF70B0E090968C9190E0A0
:102430002F7002C0959587952A95E2F780FD27C0F9
:10244000CA01A82AB92A440F551F81E0ED39F807BF
:1024500029F7F70180818F3F11F00E94A41161E0FC
:10246000A114B10409F460E08D2D0E94A111CC0FDC
:10247000DD1FC00FD11FB982A882DF91CF911F91BC
:102480000F91FF90EF90DF90BF90AF90089590E094
:1024900080E0D7CF0E94BB118AE0E6ECF2E0DF01DA
:1024A000982F1D929A95E9F7ECEBF2E0DF011D926F
:1024B0008A95E9F785E00E949B120E948A1108958F
:1024C000AAE0B0E0E6E6F2E10C94D1298E010F5FBC
:1024D0001F4F8AE0F80111928A95E9F7F12C6F2DD0
:1024E000C8010E94DB11F394F5E0FF12F8CF4AE037
:1024F00050E0B8018CEB92E00E94312A21E0009775
:1025000009F420E0892B41F08AE0F801ACEBB2E05D
:1025100001900D928A95E1F745E066EC72E08CEB54
:1025200092E00E949C12182F0E948E11812F2A96F1
:10253000E5E00C94ED290895CF92DF92EF92FF929F
:102540001F93CF93DF936C017B01C42F222349F0AB
:1025500081E0809379020E94F02190937802809329
:1025600077021091790211110AC010E0812FDF91DA
:10257000CF911F91FF90EF90DF90CF9008958091C1
:102580007702909178020E940822059770F3D0E0BC
:10259000CC0FDD1FAE01B601C7010E94312A892B85
:1025A00041F0AE01B601C7010E943E2A10927902A5
:1025B000DDCF10E0FBCF0E94E9230E94AB0E0E940A
:1025C000F62308950E94FB230E94B80E0E94152452
:1025D00008950E9489210E94CF230E948E0E0E949E
:1025E000DB120E94E2120E94A10EFBCF9093B50174
:1025F0008093B4010895282F35EB2303C0011124E3
:1026000097FF04C080589109892F089580589F4FE3
:10261000FBCF8091800280FF0DC06091070170E0C8
:10262000660F771F6038710570F56115710569F1E6
:10263000862F089581FF07C06091070184E0689F9D
:10264000B0011124EFCF6091070182FD0AC0809193
:102650007F028823A9F0209106016091070182176B
:1026600010F088E0ECCF869FC001112433E0880F82
:10267000991F3A95E1F7622F70E00E94A329D2CF0B
:1026800068E070E0D5CF8FE7089581E008958091EC
:10269000800280FF0CC06091030170E07595679522
:1026A000759567956115710549F1862F089581FF2C
:1026B00006C06091030170E075956795F3CF609156
:1026C000030182FD0BC090917E029923A1F06091DD
:1026D000020180910301961738F0682F70E060388E
:1026E000710500F38FE70895899FC001112470E000
:1026F0000E94A329F4CF61E070E0D7CF81E0089574
:102700008D3C31F40E9409138195809384020895D1
:102710008E3C19F40E940913F8CF8F3C31F40E94CB
:1027200009138195809383020895803D19F40E94D6
:102730000913F8CF893D29F40E944713809385023D
:1027400008958A3D21F40E9447138195F7CF8B3D70
:1027500031F40E94471381958093860208958C3D41
:1027600019F40E944713F8CF9FE2980F983070F445
:10277000815D990B21E030E001C0220F8A95EAF7D4
:1027800080918202822B8093820208958D3D31F4E4
:102790008091800281608093800208958E3D21F4B3
:1027A000809180028260F7CF8F3DB9F780918002DF
:1027B0008460F1CF409183028D3C59F48091840272
:1027C00087FF0DC01092840241110BC010927F024E
:1027D00008C08E3C81F48091840218169CF3442337
:1027E00081F08091850290918602892B09F05AC070
:1027F00010927E0208958F3C49F447FFF0CF10926B
:102800008302809184028111ECCFE0CF803D19F4E6
:102810001416ACF3E4CF90918502893D29F4191682
:10282000F4F610928502DBCF8A3D19F497FFD7CFDB
:10283000F8CF909186028B3D29F497FFD0CF10926C
:102840008602CDCF8C3D19F41916CCF3C8CF9FE288
:10285000980F983090F4815D990B21E030E0B90138
:1028600002C0660F771F8A95E2F7CB0180959091A1
:102870008202892380938202B2CF8D3D31F4809110
:1028800080028E7F80938002AACF8E3D21F48091BA
:1028900080028D7FF7CF8F3D09F0A1CF809180021C
:1028A0008B7FF0CF08950E94F0219C0190918302CC
:1028B00080918402982B21F030937D0220937C023A
:1028C0009091850280918602982B21F030937B02B3
:1028D00020937A0281E892E00E940320089586E026
:1028E000E1E8F2E0DF011D928A95E9F710927F029C
:1028F00010927E02109280020895FC018281811163
:102900000EC0838181110BC08481811108C091E0C8
:102910008581811101C090E0892F8170089581E047
:10292000FCCFA6E0B0E0E7E9F4E10C94D32986E01F
:10293000E1E8F2E0DE01119601900D928A95E1F74F
:1029400010928302109284021092850210928602E5
:102950008B819C81892B89F080917C0290917D02F2
:102960000E940822AC0190917F029923C9F18091C5
:1029700008018417150608F440C08D819E81892BBB
:1029800091F080917A0290917B020E940822AC0122
:1029900090917E02992309F46AC080910401841702
:1029A000150608F472C0BE016F5F7F4F81E892E0A8
:1029B0000E941D21811105C081E892E00E947D14D2
:1029C00081110E94531486E0FE013196A1E8B2E025
:1029D00001900D928A95E1F72696E3E00C94EF2999
:1029E000209109018AE0289F9001112424173507BE
:1029F00020F69F5F90937F0202C09F3FD1F71B811B
:102A0000112359F00E9409139FEF11160CF491E065
:102A1000899F802D1124809383021C81112359F0FA
:102A20000E9409139FEF11160CF491E0899F802DED
:102A300011248093840280918302882309F49DCF1E
:102A400010918402112309F498CF0E94FB1288236D
:102A500051F080938302812F0E94FB12882329F07A
:102A6000809384028ACF81E0F4CF81E0F9CF209176
:102A700005018AE0289F900111242417350708F0EA
:102A800092CF9F5F90937E0202C09F3FD1F71D813E
:102A9000112359F00E9447139FEF11160CF491E097
:102AA000899F802D1124809385021E81112359F066
:102AB0000E9447139FEF11160CF491E0899F802D1F
:102AC00011248093860280918502882309F46BCFBC
:102AD00010918602112309F466CF0E94FB1288230D
:102AE00051F080938502812F0E94FB12882329F0E8
:102AF0008093860258CF81E0F4CF81E0F9CFEF9246
:102B0000FF920F931F93CF93DF93EB01E82FD11127
:102B10000EC0442321F0F0E0E65CFC4FE4916E2F00
:102B20007E2F8E2FCDB7DEB7E6E00C94EC290D2F6B
:102B300010E0282F30E0442329F0265C3C4FF901B7
:102B4000249130E0F6E0CF9FC0011124EFEFF0E0D8
:102B5000BF010E948F29AB018C2F90E0880F991F35
:102B6000A5E5A49FB001A59F700D1124861B970BAE
:102B7000982F990F980FBF01601B710B629FD001B6
:102B8000639FB00D729FB00D11248B2F9D9FB001DC
:102B90001124672F7727EF01C61BD70BBE01629F59
:102BA000E001639FD00D729FD00D11247F01E91ABF
:102BB000F108E09EB001E19E700DF09E700D1124B1
:102BC000672F7727E61BF70BE29F8001E39F100D2D
:102BD000F29F100D1124E12F722F4230510599F010
:102BE00048F44115510569F04130510581F0EB2F52
:102BF0008D2F07C04430510569F080F046305105F3
:102C0000B1F76E2F8FCFE22F7B2F812FFACFE22FDC
:102C10007D2FF7CFEB2F822F712FF3CF7B2F822FBA
:102C2000ED2FEFCF41E00E947F1508950E9412160C
:102C30000895CF93DF93762FE901682F842F0E94A8
:102C40001616798368838A83DF91CF9108958091E6
:102C5000D002982F9E7F39F48091D00281708260DB
:102C60008093D00208958430B8F70895B0E0A0E0D2
:102C7000ECE3F6E10C94CE2988E090E00E944F2A24
:102C80006B017C0184E290E00E94472A282F30E00B
:102C900040E050E060E070E080E090E000E20E9400
:102CA000FB29B22FA32FF42FE52FD62FC72F970183
:102CB0008601BC29A12BFE295E2F532B2B2F3A2FE7
:102CC0004F2F6D2F7C2FCDB7DEB7E8E00C94EA29AB
:102CD000B0E0A0E0EEE6F6E10C94CA2949015A0101
:102CE0006B017C010E9427168401A4016A2D7B2DB3
:102CF00088E090E00E947D2A94014A2D5B2DB60168
:102D0000C70100E20E94162A622F84E290E00E942E
:102D10006B2ACDB7DEB7ECE00C94E629E0EDF2E0EB
:102D200020813181428153816481758186819781BF
:102D30000E9468160895E0EDF2E083E0808311823E
:102D40008FEF828383831482758123E030E04FEF1D
:102D50005FEF60E0868197810E94681608958091F8
:102D6000D00280FF02C08695089580E0089580918A
:102D7000D002817008959091D402933018F49F5F2F
:102D80009093D402882391F02091D0023091D10207
:102D90004091D2025091D3026091D4027091D50239
:102DA0008091D6029091D7020E946816089581E022
:102DB0000E94BB1608959091D402992319F0915066
:102DC0009093D402882391F02091D0023091D102C7
:102DD0004091D2025091D3026091D4027091D502F9
:102DE0008091D6029091D7020E946816089581E0E2
:102DF0000E94DB1608958091D40208958093D40236
:102E0000662389F02091D0023091D1024091D20204
:102E10005091D3027091D502682F8091D602909183
:102E2000D7020E946816089560E00E94FE16089579
:102E30008091D10208958091D20208958091D302A9
:102E4000089570E00E9477190895CF92DF92EF9273
:102E50000F931F93CF93DF93CDB7DEB7AA970FB62B
:102E6000F894DEBF0FBECDBF60910B018091D00200
:102E700080FF36C0ECE2F3E09E012F5F3F4F8E01F2
:102E8000055D1F4FC901A4914A2F50E0DA01AA0F36
:102E9000BB1FA40FB51FA852BD4FCD90DD90EC9085
:102EA000D901CD92DD92ED929D013196A017B10727
:102EB00051F720910A01B3E02B9F800D911D112441
:102EC0000E942117AA960FB6F894DEBF0FBECDBFA1
:102ED000DF91CF911F910F91EF90DF90CF900895E8
:102EE00080910C0190910D0123E0829FF00111244B
:102EF000E852FD4F891708F0BDCF1182108212826F
:102F00008F5F3396F7CFE0EDF2E020812E7F2083B4
:102F100031814281538164817581868197810E94CC
:102F200068160E9425170895E0EDF2E080818E7FFB
:102F300080830E94251708958091880281110AC01C
:102F400081E0809388028091D00281708093870213
:102F50000E94941708959091D00290FF0EC0909116
:102F60000C0120910D0133E0939FF0011124E852F0
:102F7000FD4F921718F00E942517089581836083F2
:102F800042839F5F3396F5CFA3E0B0E0EAECF7E130
:102F90000C94D029F82E062F142FE22E8091D00207
:102FA00080FF2CC0E82FE695F0E0EE55FE4F9081B3
:102FB00090938A028E7F823059F49E012F5F3F4F9B
:102FC0008F2D0E9419164B8169818A810E94AB174F
:102FD000F092D1020093D2021093D302EE2071F04E
:102FE0002091D0026091D4027091D5023F2DA801AA
:102FF0008091D6029091D7020E9468162396E6E04F
:103000000C94EC29E0EDF2E09181282F438162815C
:1030100088E0890F0E94C417089581E00E94021879
:103020000895E0EDF2E09181282F4381628188EFDD
:10303000890F0E94C417089581E00E941118089515
:10304000E0EDF2E0628128E0620F08F46FEF282FD4
:10305000438181810E94C417089581E00E94201855
:103060000895E0EDF2E0628128E0621B08F460E080
:10307000282F438181810E94C417089581E00E9416
:1030800031180895E0EDF2E0438128E0420F08F4A2
:103090004FEF282F628181810E94C417089581E03B
:1030A0000E9442180895E0EDF2E0438128E0421BBF
:1030B00008F440E0282F628181810E94C41708959E
:1030C00081E00E945318089520E00E94C4170895DB
:1030D0002091D00220FF1EC0217022602093D002D8
:1030E000662381F03091D1024091D2025091D302F7
:1030F0006091D4027091D5028091D6029091D7024E
:103100000E9468164091D3026091D2028091D10250
:103110000E9464180895682F81E00E94681808953D
:1031200081E00E948B180895682F9091D0029695A7
:103130008FEF890F09F481E00E946818089581E0FB
:103140000E949418089561E00E9468180895E0EDC7
:10315000F2E080818160808386950E94A3180895A3
:103160008091D00280FF03C00E94831708950E94BF
:10317000A718089560E00E94681808958091890258
:1031800081113CC00E94A30D811104C00E94450E14
:103190000E949B160E9436162093D0023093D102D3
:1031A0004093D2025093D3026093D4027093D5021D
:1031B0008093D6029093D7022E7FA1F40E949B1693
:1031C0000E9436162093D0023093D1024093D2024F
:1031D0005093D3026093D4027093D5028093D602A9
:1031E0009093D7020E9427168091D00280FF03C0DF
:1031F00086950E94BA1881E0809389020895E0EDD7
:10320000F2E080818160808386950E94BA180895DB
:103210008091D00280FF03C00E94941708950E94FD
:10322000FF180895109288028091870281110E94F0
:10323000FF180895FA01811101C0FB010995089555
:103240001F93CF93DF93EC01FB011581111110C087
:103250000E94A20C8272FE01E052F847E531F105AE
:1032600008F043C0E355F54D0C94B7290E94B018FF
:10327000812FDF91CF911F9108954FE958E160E9C7
:1032800078E10E941A19F4CF40E958E16FE978E13A
:10329000F8CF4CE158E16DE078E1F3CF4DE058E133
:1032A0006CE178E1EECF4EE358E16DE278E1E9CFF1
:1032B0004DE258E16EE378E1E4CF40E658E16FE497
:1032C00078E1DFCF4FE458E160E678E1DACF47EF0D
:1032D00056E167ED76E1D5CF47ED56E167EF76E150
:1032E000D0CF81E00E94A318C3CF11E0C1CF879A4D
:1032F00041B34F7751B35068EFB7F8949B01220F59
:10330000331F260F371F280F391F2817390741F49D
:10331000EFBF8FE594E00197F1F700C0000008953A
:10332000DC016D91CD0178E051BB000000C067FF6A
:1033300041BB660F000000C000C000C041BB00C020
:103340007A9591F7E2CF85E290E00E94472A833296
:1033500089F486E290E00E94472A893059F487E296
:1033600090E00E94472A91E0843109F090E0892F93
:103370008170089580E0FCCFCF93C82F6FEF81114B
:1033800063E285E290E00E946B2A6FEFC11169E071
:1033900086E290E00E946B2A6FEFC11164E187E240
:1033A00090E00E946B2ACF910895089588E290E002
:1033B0000E94472A682F70E090E080E00895089509
:1033C000CF93C62F0E94DF196C2F88E290E00E94F5
:1033D0006B2ACF91089580E00E94BC1960E070E0F4
:1033E000CB010E94E0190E946C1D0E942F1E81E0FB
:1033F0000E94BC1908950E94D5190E94D6190E94F6
:10340000DF190E94A319811102C00E94EB190895CF
:103410000E94081908959C01FB018581882351F0C1
:10342000A90157574038510530F4822F0E943F1EA2
:1034300080E0089581E008952FEFFC012083089536
:1034400080E00895CF93DF93EC0188818230E9F02A
:1034500028F4813071F0DF91CF9108958330F9F035
:103460008430C9F70E94181789830E941B178A832A
:10347000F2CF0E941E172FEF829FC00111246FEF21
:1034800070E00E948F296983E6CF0E94B7168823D7
:1034900021F00E94AF168983DECF80E0FCCF0E942E
:1034A000FB16F9CFCF93DF93EC018881823021F1B5
:1034B00028F4813069F0DF91CF910895833041F194
:1034C0008430C9F70E941E17482F6A81898111C074
:1034D00089812FEF829FC00111246FEF70E00E945D
:1034E0008F29D62F0E941B17C82F0E9418174D2F07
:1034F0006C2F0E946418DFCF8981811103C00E9464
:103500009417D9CF0E94FF1889810E94BA18D3CF8F
:1035100089810E941417CFCFFC019C012E5F3F4F81
:103520009081983041F0993051F0973059F4C901A9
:103530000E94521A0895C9010E94221A08950E94F9
:103540008E1608958FEF80830895FC01218122302B
:1035500019F40E948C1A08950E941C1A0895B0E074
:10356000A0E0E5EBFAE10C94CE29EC01C62E0E9416
:10357000201A811110C0E881E150E331B8F4F0E085
:10358000EE53F54D0C94B72919828CE08A836C2D8B
:10359000CE010E94C322CDB7DEB7E8E00C94EA2941
:1035A00089818230C1F028F4813061F08FEF888307
:1035B000EECF833099F08430C9F71A821B821C82C7
:1035C0001D82E5CF0E94FC210E94BD296A837B8376
:1035D0008C839D83DCCF0E94D619F6CF8A81082F79
:1035E00010E07E019EE0D92ED80E0530110578F648
:1035F000802F0E949111F701938384830F5F1F4FE7
:10360000F2E0EF0EF11CD012F0CFC1CF89818230F1
:1036100031F0853059F68A810E94081AB8CF6A8144
:103620007B818C819D810E94BD290E94E019AFCFD2
:103630004B816A8189810E942E1D982789279827AE
:103640009D838C83A4CF2C813D8132272327322771
:103650004B816A8189810E94501D99CF0E946C1D07
:1036600096CF6C2DCE010E94A51A91CF0E94E01D2D
:1036700089838DCF0E94E21D9827892798279A83F6
:10368000898385CF6B8170E089819A81AE014C5F1F
:103690005F4F9827892798270E94E51D78CF6B8177
:1036A00070E089819A81AE014C5F5F4F982789272E
:1036B00098270E940A1E6BCF0E942F1E68CF0E947F
:1036C0001B1DD6CF6B8170E089819A81AE014C5F62
:1036D0005F4F9827892798270E948C1D58CF6B81B0
:1036E00070E089819A81AE014C5F5F4F98278927EE
:1036F00098270E94B01D4BCFCF93DF93EC01FB01C5
:103700008581882309F4D2C09E01305723323105C8
:1037100008F0B2C00E94B90D9093BB028093BA0228
:10372000FE01E150F047E232F10520F4EB52F54D95
:103730000C94B7298091BA0281608093BA0293C039
:103740008091BB0288608093BB028DC08091BA02D9
:103750008260F3CF8091BA028460EFCF8091BA0289
:103760008860EBCF8091BB028160EDCF8091BB027E
:103770008260E9CF8091BA028061DFCF8091BA0286
:103780008062DBCF8091BA028064D7CF0E94150897
:103790008091BA028068D1CF8091BA028C60CDCF7F
:1037A0008091BB028360CFCF8091BA028E7FC5CF5C
:1037B0008091BB02877FC7CF8091BA028D7FBDCF3A
:1037C0008091BA028B7FB9CF8091BA02877FB5CF43
:1037D0008091BB028E7FB7CF8091BB028D7FB3CF2C
:1037E0008091BA028F7EA9CF8091BA028F7DA5CF3A
:1037F0008091BA028F7BA1CF0E9415088091BA02F6
:103800008F779BCF8091BA02837F97CF8091BB0245
:103810008C7F99CF8091BA0282FB992790F921E0A1
:10382000922790FB82F990FB83F987CF8091BB02AE
:10383000982F909591708E7F892B90FB81F983CF83
:103840009091BA02892F8F7B96FF806476CF0E9479
:1038500015089091BA02892F97FB87F980586DCF90
:1038600081E00E94480E8091BA029091BB020E94B2
:10387000BE0D0E94150880E0DF91CF91089580E091
:10388000F0CF9091BA02892F8F7E94FF806155CF3F
:103890009091BA02892F8E7F90FF81604ECF9091D8
:1038A000BB02892F877F93FF88604DCF81E0E4CFF3
:1038B000B0E0A0E0EEE5FCE10C94CF29E82FF0E0C9
:1038C000E65CFB4FD490282F26952695269530E070
:1038D000F901E652FB4F0491877010E0082E02C0F8
:1038E000159507950A94E2F701701127F901E6533F
:1038F000FB4FE490F12C082E02C0F594E7940A9453
:10390000E2F791E0E922FF24F901E654FB4FC4916C
:10391000D0E002C0D595C7958A95E2F7C170DD2742
:103920000115110519F081EE0E942A05E114F10438
:1039300019F086EE0E942A058D2D0E94C205E11421
:10394000F10419F086EE0E9477050115110519F0B2
:1039500081EE0E947705CD2B19F08CE20E94C20502
:10396000CDB7DEB7E7E00C94EB29EF92FF920F930F
:103970001F93CF93DF93EC01162F0AE088818823F1
:1039800009F454C0813009F04EC08981813099F426
:103990007E0122E0E20EF11C8A810E94C205E7014D
:1039A0002196812F815050F3EFE9FFE03197F1F735
:1039B00000C00000F7CF823041F47E0182E0E80EC3
:1039C000F11C8A810E942A05EACF833041F47E01EE
:1039D000E2E0EE0EF11C8A810E947705E0CF843090
:1039E00011F02196DDCF2A81229690E080E0AE0191
:1039F0004F5F5F4F2053330B2A30310548F001975A
:103A000078F2EFE9FFE03197F1F700C00000F7CF5F
:103A1000089FB001099F700D1124C901860F971FDF
:103A20002981EA01E4CF0E94581CBACFCDB7DEB796
:103A3000E6E00C94EC2984E0089590E2699FB001DF
:103A4000112450E0440F551F640F751F90EA899FA1
:103A5000600D711D1124CB01899608950F931F935A
:103A6000CF93DF938430C8F46530B8F44031A8F4C4
:103A70000E941D1D8C010E94472AC82FD0E0DC2F18
:103A8000CC27C80101960E94472A9E01282BC90114
:103A9000DF91CF911F910F91089590E080E0F8CFD2
:103AA0000F931F93CF93DF93122F032F843078F45B
:103AB000653068F4403158F40E941D1DEC01602F00
:103AC0000E946B2A612FCE0101960E946B2ADF9122
:103AD000CF911F910F9108951F93CF93DF93D0E063
:103AE000C0E011C0412F6C2F8D2F0E9499039C01C3
:103AF000412F6C2F8D2F0E94501D1F5F103191F7A9
:103B0000CF5FC53011F010E0EDCFDF5FD43041F76B
:103B1000DF91CF911F910895EF92FF920F931F9322
:103B2000CF93DF93EC018A017C01E60EF71ECE01F4
:103B30008996CE15DF0529F4CDB7DEB7E6E00C9403
:103B4000EC29C03822E0D20740F40E94472AF8014D
:103B500080830F5F1F4F2196EACFF8011082F9CFC3
:103B6000B0E0A0E0E6EBFDE10C94CE297C016A0117
:103B70008C01060F171FEC01CE018996C017D107E3
:103B800029F4CDB7DEB7E8E00C94EA29C03822E08A
:103B9000D20740F4FE01EE19FF09EC0DFD1D608116
:103BA0000E946B2A2196E8CF843038F4653028F4DF
:103BB000403118F40E942E1D089590E080E0089591
:103BC00080E1089587E591E00895EF92FF920F93C9
:103BD0001F93CF93DF93EC018A017C01E60EF71E61
:103BE000CE0187559D4FCE15DF0529F4CDB7DEB741
:103BF000E6E00C94EC29C73521E0D20740F40E949E
:103C0000472AF80180830F5F1F4F2196E9CFF80103
:103C10001082F9CFB0E0A0E0E0E1FEE10C94CE2903
:103C20007C016A018C01060F171FEC01CE0187553C
:103C30009D4FC017D10729F4CDB7DEB7E8E00C944B
:103C4000EA29C73521E0D20740F4FE01EE19FF0949
:103C5000EC0DFD1D60810E946B2A2196E7CFCF936A
:103C6000DF93C9EAD2E060E0CE010E946B2A219680
:103C7000C11584E0D807B9F7DF91CF910895A8E086
:103C8000B0E0E5E4FEE10C94CC29F82E8FE08F152E
:103C900008F46EC08FEF93E00E94472A811168C03C
:103CA00009EA12E0F11035C0FE0131966F0188E09B
:103CB00011928A95E9F77801FFEFEF1AFF0AC80120
:103CC0000E94472A89831A82882309F451C08130CF
:103CD000D1F4580182E0A80EB11CC7010E94472A06
:103CE0008A83882309F444C09FEF980F9330F0F43F
:103CF000780193E0E90EF11CC5010E94472A8B83ED
:103D00008823B1F11C8260E0C6010E94B51C8701C6
:103D1000D2CF011594E0190759F1C8010E94472A32
:103D2000811101C0FA940F5F1F4FBCCF7501843021
:103D300051F702E010E07501EFEFEE1AFE0AC5013F
:103D40000E94472AF601E00FF11F8083882381F04B
:103D50008C3741F4E2E0F0E0EC0FFD1FE00FF11FC3
:103D60001082D1CF0F5F1F4F57010730110519F790
:103D70002896EAE00C94E829CF93DF93EB01863193
:103D80009C4711F50E94A20C9D81992399F08A7A93
:103D900091E009F490E090938C02811109C089E2CE
:103DA0000E947A0C0E94FB0C80E0DF91CF91089575
:103DB00085E3F6CF80918C02811104C089E20E94D4
:103DC000820CF0CF85E3FBCF81E0EFCF0F931F9301
:103DD000CF93DF93C42FD22FFC0185818823C9F0B4
:103DE00040938F020E94F02190938E0280938D0267
:103DF00080E28C0F883040F4C77081E001C0880FEA
:103E0000CA95EAF70E94CB05DF91CF911F910F91E0
:103E1000089510918F02141332C080918D029091F9
:103E20008E020E940822883C910548F5C0E2CD0F21
:103E30001D17B9F080E2810F883040F4177081E0DF
:103E400001C0880F1A95EAF70E94D205C83048F4DD
:103E500081E09D2F977001C0880F9A95EAF70E9424
:103E6000CB05802F0E94C205C83070F6D77081E064
:103E700001C0880FDA95EAF70E94D205C5CF80E22B
:103E80008C0F883008F6C77081E001C0880FCA9592
:103E9000EAF7F2CF0F93DB0188519C4787309105F9
:103EA000A0F5FC01E950F54D0C94B72906E221EE8E
:103EB00041EE6AE17CE7CD010E94E61E80E00F91B1
:103EC000089507E225EE45EE6BE17CE7F4CF06E2CC
:103ED00021EE40EE68E17CE7EECF07E225EE44EE0E
:103EE00069E17CE7E8CF06E221EE42EE6CE17CE797
:103EF000E2CF07E225EE46EE6DE17CE7DCCF08E29B
:103F000021E045EE6EE17CE7D6CF15968C918823B3
:103F100019F010928F02D3CF81E0D1CF1F93CF93AE
:103F2000DF9387372CE7920759F0C1E088379C4729
:103F3000E1F4FB01C581CC2371F10E94D11F06C0C1
:103F4000FB01C581CC23B1F00E94CE1F0E948D08D9
:103F50000E94D41FD82F0E94D11FC82F0E94CE1FAD
:103F60004D2F6C2F0E94B409C0E08C2FDF91CF91B0
:103F70001F9108950E94CE1F0E9499080E94D41F8D
:103F8000182F0E94D11FD82F0E94CE1F412F6D2FB6
:103F90000E94B409EACF0E94D11FEECF8091110197
:103FA000089580911001089580910F0108959093D4
:103FB0009502809394020895E0919402F091950205
:103FC000309729F00190F081E02D0995089580E067
:103FD0000895E0919402F0919502309799F0209124
:103FE0001A01222359F02091BA0227FF07C0DC01F1
:103FF0002C9111962C93119726E02C930280F3813B
:10400000E02D09950895E0919402F0919502309782
:1040100039F022E0DC012C930480F581E02D099534
:104020000895A3E0B0E0E7E1F0E20C94D4292091F8
:1040300092023091930228173907A1F090939302CE
:1040400080939202E0919402F0919502309751F0A2
:1040500023E029839B838A830680F781E02DCE01AC
:10406000019609952396E2E00C94F029A3E0B0E0D4
:10407000ECE3F0E20C94D42920919002309191026B
:1040800028173907A1F09093910280939002E09154
:104090009402F0919502309751F024E029839B839C
:1040A0008A830680F781E02DCE010196099523963B
:1040B000E2E00C94F029FC01329680911A018823E9
:1040C00021F08091BA029EE187FF96E080E0915056
:1040D00008F4089521912223D1F38F5FF8CF66234E
:1040E00001F120911A012223F1F02091BA0227FF59
:1040F0001AC0462F4695469546954E3190F4677006
:1041000021E030E002C0220F331F6A95E2F7840FEE
:10411000911DFC01828190E02823392381E0232B2B
:1041200069F480E00895FC013296089621912617E3
:1041300021F0E817F907D1F7F4CF81E008959C0149
:10414000FC0132969FEF80E04191461751F09F3F6E
:1041500019F4411101C0982F8F5F8630A9F79F3F56
:1041600009F40895290F311D97FD3A95F9016283ED
:104170000895FC01329608962191261303C0DF01B1
:1041800011971C92E817F907B9F70895E62FE695FD
:10419000E695E695EE3168F4E80FF92FF11D6770AA
:1041A00021E030E001C0220F6A95EAF78281822B7C
:1041B00082830895E62FE695E695E695EE3170F454
:1041C000E80FF92FF11D677021E030E001C0220FE8
:1041D0006A95EAF720958281282322830895209109
:1041E0001A01222339F02091BA0227FF03C00E944E
:1041F000C62008950E949F20089520911A0122232D
:1042000039F02091BA0227FF03C00E94DA200895F6
:104210000E94B9200895FC01329680911A018823EA
:1042200051F08091BA0287FF06C08EE1DF011D9236
:104230008A95E9F7089586E0F9CFDC01FB01119634
:104240009C9111978181981322C012968C9112979C
:10425000882319F0928189131AC013968C911397B1
:10426000882319F09381891312C015968C911597A4
:10427000882319F0958189130AC014969C9199237B
:1042800021F081E02481291303C080E001C081E096
:104290008170089508950E944A210895811106C0F1
:1042A00081E0809396020E944B21089582E0F9CF2D
:1042B00083E0809396020E944B2108950E944E2134
:1042C000089581E0809396020E944B2108950E94F8
:1042D00061210895089508950E946B21089508951D
:1042E00008950E946A210895CF930E946F210E9431
:1042F00060120E947021C0E08C2F0E949111892BC6
:1043000031F4CF5FC530C1F780E0CF91089581E0EF
:10431000FCCF85B7806885BF85B7806885BF089565
:104320001F921FB61F9211248F939F93AF93BF9339
:1043300080919702811113C0809102039091030331
:10434000A0910403B09105034196A11DB11D809376
:10435000020390930303A0930403B0930503BF915A
:10436000AF919F918F911F901FBE1F9018958091C4
:104370000A03843031F10E949A041092970288E176
:1043800090E020E40FB6F894A895809360000FBEEB
:104390002093600083B7817F846083BF83B781608F
:1043A00083BF7894889583B78E7F83BF0FB6F894C8
:1043B000A8958091600088618093600010926000F1
:1043C0000FBE08950E9415080E94A104089582E07E
:1043D00084BD93E095BD9AEF97BD80936E000895DC
:1043E0002FB7F8948091020390910303A0910403E6
:1043F000B09105032FBF08952FB7F8946091020381
:104400007091030380910403909105032FBF0895D9
:104410009C014FB7F8948091020390910303A091FF
:104420000403B09105034FBF821B930B089578944A
:104430001F921FB61F9211248F939F93AF93BF9328
:104440008091020390910303A0910403B0910503AE
:104450000196A11DB11D8093020390930303A093C5
:104460000403B0930503BF91AF919F918F911F906B
:104470001FBE1F90189581E08093E00080E280933A
:10448000D8001092C9008FE19EE40197F1F700C0B7
:10449000000087E090EBDC018093130390931403FA
:1044A000A0931503B093160388E19CE00FB6F8942F
:1044B000A895809360000FBE90936000FFCF88E1C5
:1044C0009CE00FB6F894A895809360000FBE90937F
:1044D0006000FFCF8091B80208959B01BA019091CE
:1044E0000A039430E9F48F708093E9009FEF809184
:1044F000E800915085FD06C085ED8A95F1F7000032
:104500009111F5CF8091E80085FF0AC050E040E0AE
:10451000C9010E94B9248091E8008E778093E80059
:10452000089543E050E0BC0184E00E946D220895AC
:1045300046E050E0BC0184E00E946D220895CF93D4
:10454000DF93EC0180911A01811111C048E050E025
:10455000BE0181E00E946D2280E2FE01A8E9B2E086
:1045600001900D928A95E1F7DF91CF9108958091A6
:10457000BA0287FF05C040E284E050E0BE01EACF06
:1045800048E081E0FACF603231F440E250E0BC0113
:1045900082E00E946D22089580910903811109C073
:1045A0000E9498260E94F5268091E2008460809304
:1045B000E20008951092090308950E946121089570
:1045C0006091060381E0611101C080E00E945821E2
:1045D000089590910A0381E0943009F080E06091A1
:1045E00006030E945E21089542E061EC81E00E9492
:1045F000142642E261EC84E00E94142642E261EC5F
:1046000082E00E94142642E260EC83E00E941426BD
:1046100090910A0381E0943009F080E060910603F4
:104620000E944E21089580910C03833009F463C0E9
:1046300030F48130E1F1823009F4A0C008958A306D
:1046400009F48CC08B3009F471C0893009F052C074
:1046500080910B03813209F04DC080910F0390913E
:104660001003009719F0029709F044C08091E80008
:10467000877F8093E8008091E80082FF37C09091A7
:10468000F3008091F200029731F48091F1008130C3
:1046900011F0863021F48091F1008093B80280916E
:1046A000E8008B778093E8000E94482623C0809121
:1046B0000B03813AF9F48091E800877F8093E8004A
:1046C00080910F0390911003892B61F460E288E9D7
:1046D00092E070E00E9457258091E8008B778093EC
:1046E000E800089560E090E080E0F3CF80910A0355
:1046F0008111C1CF089580910B03813AD9F7809140
:104700000F0390911003892BA9F78091E800877F10
:104710008093E8008091E80080FFFCCF80911A012F
:104720008093F1008091E8008E77BCCF80910B03DD
:10473000813201F780910F0390911003892BD1F6FC
:104740008091E800877F8093E8000E94482680914E
:104750000D0380931A010E941508089580910B03A0
:10476000813241F68091E800877F8093E8000E94C3
:10477000482680910E038093B902089580910B031F
:10478000813A09F0B7CF8091E800877F8093E800F5
:104790008091E80080FFFCCF8091B902C1CF84B73F
:1047A000877F84BF0FB6F894A895809160008861D8
:1047B00080936000109260000FBE80E890E00FB61A
:1047C000F89480936100909361000FBE0E9467216E
:1047D00008950E9498260E94F526E2EEF0E080817E
:1047E0008460808378940E947429089582E191E026
:1047F0000E94D71F089580910A03853031F480917B
:104800000A03853019F00E94E22108950E94B72121
:1048100080910803882399F30E947421882379F3F7
:104820000E94A3240E941508EACFA0E2B0E0EBE1C9
:10483000F4E20C94D42980910A03843009F583E0D2
:104840008093E9008091E80082FF1AC08091E8001F
:1048500090E085FF09C050E040E060E270E0CE01EA
:1048600001960E94082591E08091E8008B77809363
:10487000E800992329F060E2CE0101960E94AF1A68
:10488000A096E2E00C94F0299A0140911103509116
:1048900012030E944C240895492F55274330510597
:1048A00021F168F44130510509F443C0423051050B
:1048B00009F444C090E080E050E040E026C041327E
:1048C000510551F142325105A9F76330710590F756
:1048D000FB01EE0FFF1FE955FE4F408151816C55E2
:1048E0007E4FFB01808190E010C0992781309105B7
:1048F00081F0009729F00297E9F6EAEEF4E002C0B1
:10490000E0E3F5E0849190E0AF01F9015183408349
:104910000895E6E1F5E0F6CF6330710558F6660FCD
:10492000771FFB01E355FE4F4081518189E090E004
:10493000ECCF82E190E04FE855E0E7CF8BE590E0E7
:1049400044E355E0E2CF80E189BD82E189BD09B44D
:1049500000FEFDCF8091D8008F7D8093D80080919C
:10496000E00082608093E0008091E00081FDFCCF58
:104970000895AF92BF92CF92DF92FF920F931F9351
:10498000CF93DF936C01EB018A010E946726F82E1A
:10499000811123C00115110539F0F8018081918141
:1049A000C81BD90BC80ED91EB12CA12C2097A9F079
:1049B0008091E80085FD22C08091E8008E77809389
:1049C000E80001151105A1F0F80180819181A80E80
:1049D000B91EB182A08285E0F82E8F2DDF91CF9194
:1049E0001F910F91FF90DF90CF90BF90AF900895EF
:1049F0000E9467268823D1F2F82EEFCFF60181912D
:104A00006F018093F1002197FFEFAF1ABF0ACECF5D
:104A1000AF92BF92CF92DF92FF920F931F93CF93EB
:104A2000DF936C01EB018A010E946726F82E811149
:104A300023C00115110539F0F80180819181C81B4F
:104A4000D90BC80ED91EB12CA12C2097A9F08091AA
:104A5000E80085FD22C08091E8008B778093E80014
:104A600001151105A1F0F80180819181A80EB91EF0
:104A7000B182A08285E0F82E8F2DDF91CF911F911A
:104A80000F91FF90DF90CF90BF90AF9008950E945C
:104A900067268823D1F2F82EEFCF8091F100F6013E
:104AA00081936F012197FFEFAF1ABF0ACECFFC01B0
:104AB000809111039091120386179707A0F061155A
:104AC000710529F49091E8009E779093E80090E0BA
:104AD0006115710551F4911108C08091E80082FFC1
:104AE00034C080E00895BC01F2CF80910A0388238E
:104AF000C1F18530C1F18091E80083FD30C0809123
:104B0000E80082FDEACF8091E80080FFE1CF80914C
:104B1000F3002091F200382F6115710519F028304B
:104B2000310558F091E02830310509F090E02091EE
:104B3000E8002E772093E800CBCF81918093F1009D
:104B4000615071092F5F3F4FE7CF80910A0388239F
:104B500041F0853041F08091E80083FFBECF81E0D5
:104B6000089582E0089583E00895FC018091110387
:104B70009091120386179707A0F06115710529F42B
:104B80008091E8008E778093E80090E061157105D0
:104B900051F4911108C08091E80082FF35C080E097
:104BA0000895BC01F2CF80910A038823C9F18530B2
:104BB000C9F18091E80083FD31C08091E80082FD59
:104BC000EACF8091E80080FFE1CF8091F30020914F
:104BD000F200382F6115710519F02830310558F0B1
:104BE00091E02830310509F090E08091E8008E775F
:104BF0008093E800CBCF84918093F100319661508F
:104C000071092F5F3F4FE6CF80910A03882341F05F
:104C1000853041F08091E80083FFBDCF81E00895A9
:104C200082E0089583E00895982F973028F08F70E0
:104C30008093E90081E008959093E900242F762F76
:104C400050E0981731F07091EC002091ED005091F8
:104C5000F00021FD02C09F5FE8CF3091EB003E7F66
:104C60003093EB003091ED003D7F3093ED003091BB
:104C7000EB0031603093EB007093EC002093ED007B
:104C80005093F0002091EE0027FDE5CF80E00895DD
:104C900080910B0387FF13C08091E80082FF06C05C
:104CA0008091E8008B778093E80004C080910A032C
:104CB0008111F2CF089580910A038823D9F380915E
:104CC000E80080FFF8CF8091E8008E77ECCF20914C
:104CD000E4003091E50095E6A9012091EC00822FD7
:104CE000817020FF06C08091E80080FF06C080E050
:104CF00008952091E80022FD1AC080910A038823BC
:104D000089F0853089F08091EB0085FD0FC02091FE
:104D1000E4003091E50042175307F9F29150E1F6B3
:104D200084E0089582E0089583E0089581E0089585
:104D30000E9407270E940F27E0EEF0E0808181604B
:104D40008083E8EDF0E080818F77808319BCA7ED48
:104D5000B0E08C918E7F8C9380818F7E80831092C7
:104D6000090308950F931F93CF93DF930E940727A2
:104D70000E940F27C8EDD0E088818F7788838881D3
:104D80008068888388818F7D888319BC10920A038C
:104D900010920603109208031092070300EE10E031
:104DA000F80180818B7F808388818160888342E0E5
:104DB00060E080E00E941426E1EEF0E080818E7FCA
:104DC0008083E2EEF0E08081816080838081886072
:104DD0008083F80180818E7F8083888180618883D1
:104DE000DF91CF911F910F910895E8EDF0E0808160
:104DF0008F7E8083E7EDF0E080818160808384E0B6
:104E000082BF81E0809309030E94B2260895E8EDF5
:104E1000F0E080818E7F80831092E20008951092EE
:104E2000DA001092E10008951F920F920FB60F92D0
:104E300011242F933F934F935F936F937F938F939F
:104E40009F93AF93BF93EF93FF938091E10082FF15
:104E50000BC08091E20082FF07C08091E1008B7F50
:104E60008093E1000E9473298091DA0080FF19C0CD
:104E70008091D80080FF15C08091DA008E7F8093EA
:104E8000DA008091D90080FF96C080E189BD82E17F
:104E900089BD09B400FEFDCF81E080930A030E9422
:104EA000CC228091E10080FF19C08091E20080FF58
:104EB00015C08091E2008E7F8093E2008091E20035
:104EC00080618093E2008091D80080628093D80056
:104ED00019BC85E080930A030E94E0228091E100E2
:104EE00084FF2BC08091E20084FF27C080E189BD50
:104EF00082E189BD89B5982F917080FFFBCF8091A9
:104F0000D8008F7D8093D8008091E1008F7E8093C0
:104F1000E1008091E2008F7E8093E2008091E200C8
:104F200081608093E20080910603882309F449C0E0
:104F300084E080930A030E94E9228091E10083FFCC
:104F400029C08091E20083FF25C08091E100877F26
:104F50008093E10082E080930A031092060380911F
:104F6000E1008E7F8093E1008091E2008E7F80934C
:104F7000E2008091E20080618093E20042E060E024
:104F800080E00E9414268091F00088608093F000F9
:104F90000E94DD22FF91EF91BF91AF919F918F9180
:104FA0007F916F915F914F913F912F910F900FBE25
:104FB0000F901F90189519BC10920A030E94DA22D4
:104FC00070CF8091E30087FD93E090930A03B3CF05
:104FD0001F920F920FB60F9211242F933F934F936E
:104FE0005F936F937F938F939F93AF93BF93CF9371
:104FF000DF93EF93FF93D091E900DF708091EC0095
:10500000C82FC17080FDC0E81092E9008091F000C7
:10501000877F8093F00078940E942C281092E900FA
:105020008091F00088608093F000CD2BCF70C0930A
:10503000E900FF91EF91DF91CF91BF91AF919F91E7
:105040008F917F916F915F914F913F912F910F9031
:105050000FBE0F901F901895AAE2B0E0E2E3F8E2CD
:105060000C94D3298BE093E02091F100FC01219373
:10507000CF01F3E083319F07B9F70E94132380919A
:10508000E80083FF1EC180910B0390910C039A30BE
:1050900008F017C1E92FF0E0E250F54D0C94B72964
:1050A000803899F0823809F00CC180910F038F701D
:1050B000873008F006C18093E9008091EB0085FB02
:1050C000882780F91092E90006C08091070390912B
:1050D0000803911182609091E800977F9093E80017
:1050E0008093F1001092F1008091E8008E77E5C086
:1050F000882309F4D3C0823009F0E3C080910D0306
:105100008111D6C080910F038F702FEF280F2630AA
:1051100008F0D7C08093E9002091EB0020FFC8C0C1
:10512000933031F48091EB0080628093EB00C0C03B
:105130009091EB0090619093EB0021E030E001C092
:10514000220F8A95EAF72093EA001092EA008091F4
:10515000EB008860EACF8111B4C010910D031F7776
:105160008091E3008078812B8093E3008091E800B8
:10517000877F8093E8000E9448268091E80080FFA6
:10518000FCCF8091E30080688093E30082E01111FE
:1051900083E080930A0395C08058823008F091C064
:1051A00080910D0390910E038C3D23E09207A1F5B1
:1051B00083E08A838AE289834FB7F894DE011396ED
:1051C00020E03EE051E2E32FF0E050935700E491FD
:1051D00020FF03C0E295EF703F5FEF708E2F90E0ED
:1051E000EA30C0F0C7968D939D932F5F243159F715
:1051F0004FBF8091E800877F8093E8006AE270E00B
:10520000CE0101960E9457258091E8008B7780930C
:10521000E80057C0C096E7CF60910F03709110036C
:10522000AE014F5F5F4F0E944424BC01892B09F4FB
:1052300048C09091E800977F9093E80089819A8117
:105240000E94B525E1CF8038E1F58091E800877FA5
:105250008093E800809106038093F10045CF81118F
:1052600030C090910D03923060F58091E800877F07
:105270008093E800909306030E94482680910603DD
:10528000882311F084E005C08091E30087FDFACF08
:1052900081E080930A030E94F42213C080910D03E1
:1052A000813079F481E0933009F080E08093080345
:1052B0001092E9008091E800877F8093E8000E94C7
:1052C00048268091E80083FF0AC08091E800877F2C
:1052D0008093E8008091EB0080628093EB00AA96B7
:1052E000E3E00C94EF290895CF9380910A0388237B
:1052F000A1F0C091E900CF709091EC00892F8170EE
:1053000090FD80E8C82B1092E9008091E80083FDB1
:105310000E942C28CF70C093E900CF910895AA1B5A
:10532000BB1B51E107C0AA1FBB1FA617B70710F090
:10533000A61BB70B881F991F5A95A9F780959095C2
:10534000BC01CD01089597FB072E16F4009407D0F9
:1053500077FD09D00E948F2907FC05D03EF4909577
:1053600081959F4F0895709561957F4F0895EE0F39
:10537000FF1F0590F491E02D09946927962769276E
:1053800078278727782708952F923F924F925F9230
:105390006F927F928F929F92AF92BF92CF92DF9245
:1053A000EF92FF920F931F93CF93DF93CDB7DEB7AA
:1053B000CA1BDB0B0FB6F894DEBF0FBECDBF09943E
:1053C0002A88398848885F846E847D848C849B8495
:1053D000AA84B984C884DF80EE80FD800C811B81A3
:1053E000AA81B981CE0FD11D0FB6F894DEBF0FBED2
:1053F000CDBFED010895002E083090F0982F872F33
:10540000762F652F542F432F322F22270850F4CFA9
:10541000220F331F441F551F661F771F881F991FB8
:105420000A95B2F7002D089597FD1094002E0830CC
:1054300098F00850232F342F452F562F672F782FA1
:10544000892F912DF4CF159497958795779567952A
:1054500057954795379527950A95AAF71124002D5A
:105460000895FB01DC0104C08D910190801921F4A5
:1054700041505040C8F7881B990B0895FB01DC018F
:1054800002C001900D9241505040D8F70895F9990B
:10549000FECF92BD81BDF89A992780B50895A6E107
:1054A000B0E044E050E00C94912AA8E1B0E042E082
:1054B00050E00C94912ADC01A40FB51F41505040DC
:1054C00048F0CB01840F951F2E910E946C2A415009
:1054D0005040D0F70895262FF999FECF92BD81BD97
:1054E000F89A019700B4021639F01FBA20BD0FB622
:1054F000F894FA9AF99A0FBE08950396272F0E94FE
:105500006C2A0E946B2A252F0E946C2A242F0C944F
:105510006C2A0196272F0E946C2A0C946B2ADC01BE
:10552000CB01FC01F999FECF06C0F2BDE1BDF89AAE
:10553000319600B40D9241505040B8F70895F89458
:10554000FFCF1806180668066806CD06E906470666
:105550004706EE0655076407640736193D194419D6
:1055600049194E19531958195D19621967196C199F
:10557000711938193819381938193819381938196A
:1055800038193819C41AD01A061B181B231B2E1BD6
:10559000311B311B311BD61AD61A361B3A1B421B44
:1055A0004F1B5C1B5F1B621B6F1BD41B481CDC1B4F
:1055B000A61BAA1BE01BAE1BE41BF01BBA1B411C65
:1055C000BE1BF41BC21BF81B201CC61BFC1B271C8C
:1055D000CC1B021C0A1CB21BE81BB61BEC1BD01B0D
:1055E000061C161C301C3F1CA01BD81B4F1C671F21
:1055F0006D1F561F611F731F791F7F1F502878284A
:10560000612978286129AB28CC28612923292F29F1
:105610004002280850011E0A1401000E000E0E035D
:1056200002016A229F229822912201E200E900EA07
:1056300000B500B600B700CD008301CC008A01920E
:105640000194012102230224022502260227022AB4
:1056500002B300B4006F0070009F01CB019F02A055
:1056600002818283E200E900EA00B500B600B700DB
:10567000CD008301CC008A01920194012102230212
:1056800024022502260227022A02B300B4006F007A
:1056900070009F01CB019F02A002818283303132D2
:1056A000333790919496973435366667C29293F467
:1056B000F5F600014422B67906A105C30546055F4B
:0456C000057F05005D
:00000001FF
